{"contracts/MasterChef.sol":{"MasterChef":{"abi":[{"inputs":[{"internalType":"contract Mora","name":"_mora","type":"address"},{"internalType":"uint256","name":"_moraPerSecond","type":"uint256"},{"internalType":"uint256","name":"_burnPercent","type":"uint256"},{"internalType":"uint256","name":"_startTime","type":"uint256"}],"stateMutability":"nonpayable","type":"constructor"},{"anonymous":false,"inputs":[{"indexed":false,"internalType":"uint256","name":"allocPoint","type":"uint256"},{"indexed":false,"internalType":"address","name":"lpToken","type":"address"},{"indexed":false,"internalType":"address","name":"rewarder","type":"address"}],"name":"AddPool","type":"event"},{"anonymous":false,"inputs":[{"indexed":true,"internalType":"address","name":"user","type":"address"},{"indexed":true,"internalType":"uint256","name":"pid","type":"uint256"},{"indexed":false,"internalType":"uint256","name":"amount","type":"uint256"}],"name":"Deposit","type":"event"},{"anonymous":false,"inputs":[{"indexed":true,"internalType":"address","name":"user","type":"address"},{"indexed":true,"internalType":"uint256","name":"pid","type":"uint256"},{"indexed":false,"internalType":"uint256","name":"amount","type":"uint256"}],"name":"EmergencyWithdraw","type":"event"},{"anonymous":false,"inputs":[{"indexed":true,"internalType":"address","name":"user","type":"address"},{"indexed":true,"internalType":"uint256","name":"pid","type":"uint256"}],"name":"FailedToNotifyRewarder","type":"event"},{"anonymous":false,"inputs":[{"indexed":true,"internalType":"address","name":"previousOwner","type":"address"},{"indexed":true,"internalType":"address","name":"newOwner","type":"address"}],"name":"OwnershipTransferred","type":"event"},{"anonymous":false,"inputs":[{"indexed":true,"internalType":"uint256","name":"pid","type":"uint256"},{"indexed":false,"internalType":"uint256","name":"rewardPerSecond","type":"uint256"}],"name":"SetBonusEmissionRate","type":"event"},{"anonymous":false,"inputs":[{"indexed":false,"internalType":"uint256","name":"moraPerSecond","type":"uint256"}],"name":"SetEmissionRate","type":"event"},{"anonymous":false,"inputs":[{"indexed":false,"internalType":"uint256","name":"burnPercent","type":"uint256"}],"name":"SetPercent","type":"event"},{"anonymous":false,"inputs":[{"indexed":true,"internalType":"uint256","name":"pid","type":"uint256"},{"indexed":false,"internalType":"uint256","name":"allocPoint","type":"uint256"},{"indexed":false,"internalType":"address","name":"rewarder","type":"address"}],"name":"SetPool","type":"event"},{"anonymous":false,"inputs":[{"indexed":true,"internalType":"address","name":"user","type":"address"},{"indexed":true,"internalType":"uint256","name":"pid","type":"uint256"},{"indexed":false,"internalType":"uint256","name":"amount","type":"uint256"}],"name":"Withdraw","type":"event"},{"inputs":[{"internalType":"uint256","name":"_allocPoint","type":"uint256"},{"internalType":"contract IERC20","name":"_lpToken","type":"address"},{"internalType":"address","name":"_rewarder","type":"address"}],"name":"addPool","outputs":[],"stateMutability":"nonpayable","type":"function"},{"inputs":[],"name":"burnAddress","outputs":[{"internalType":"address","name":"","type":"address"}],"stateMutability":"view","type":"function"},{"inputs":[],"name":"burnPercent","outputs":[{"internalType":"uint256","name":"","type":"uint256"}],"stateMutability":"view","type":"function"},{"inputs":[{"internalType":"uint256","name":"_pid","type":"uint256"},{"internalType":"uint256","name":"_amount","type":"uint256"}],"name":"deposit","outputs":[],"stateMutability":"nonpayable","type":"function"},{"inputs":[{"internalType":"uint256","name":"_pid","type":"uint256"}],"name":"emergencyWithdraw","outputs":[],"stateMutability":"nonpayable","type":"function"},{"inputs":[],"name":"mora","outputs":[{"internalType":"contract Mora","name":"","type":"address"}],"stateMutability":"view","type":"function"},{"inputs":[],"name":"moraPerSecond","outputs":[{"internalType":"uint256","name":"","type":"uint256"}],"stateMutability":"view","type":"function"},{"inputs":[],"name":"name","outputs":[{"internalType":"string","name":"","type":"string"}],"stateMutability":"view","type":"function"},{"inputs":[],"name":"owner","outputs":[{"internalType":"address","name":"","type":"address"}],"stateMutability":"view","type":"function"},{"inputs":[{"internalType":"uint256","name":"_pid","type":"uint256"},{"internalType":"address","name":"_user","type":"address"}],"name":"pendingReward","outputs":[{"internalType":"uint256","name":"pendingMora","type":"uint256"},{"internalType":"uint256","name":"pendingBonus","type":"uint256"}],"stateMutability":"view","type":"function"},{"inputs":[{"internalType":"uint256","name":"","type":"uint256"}],"name":"poolInfo","outputs":[{"internalType":"contract IERC20","name":"lpToken","type":"address"},{"internalType":"uint256","name":"allocPoint","type":"uint256"},{"internalType":"uint256","name":"lastRewardTime","type":"uint256"},{"internalType":"uint256","name":"accMoraPerShare","type":"uint256"},{"internalType":"uint256","name":"totalLp","type":"uint256"},{"internalType":"address","name":"rewarder","type":"address"}],"stateMutability":"view","type":"function"},{"inputs":[],"name":"poolLength","outputs":[{"internalType":"uint256","name":"","type":"uint256"}],"stateMutability":"view","type":"function"},{"inputs":[],"name":"renounceOwnership","outputs":[],"stateMutability":"nonpayable","type":"function"},{"inputs":[{"internalType":"uint256","name":"_pid","type":"uint256"},{"internalType":"uint256","name":"_rewardPerSecond","type":"uint256"}],"name":"setBonusEmissionRate","outputs":[],"stateMutability":"nonpayable","type":"function"},{"inputs":[{"internalType":"uint256","name":"_moraPerSecond","type":"uint256"}],"name":"setEmissionRate","outputs":[],"stateMutability":"nonpayable","type":"function"},{"inputs":[{"internalType":"uint256","name":"_burnPercent","type":"uint256"}],"name":"setPercent","outputs":[],"stateMutability":"nonpayable","type":"function"},{"inputs":[{"internalType":"uint256","name":"_pid","type":"uint256"},{"internalType":"uint256","name":"_allocPoint","type":"uint256"},{"internalType":"address","name":"_rewarder","type":"address"}],"name":"setPool","outputs":[],"stateMutability":"nonpayable","type":"function"},{"inputs":[],"name":"startTime","outputs":[{"internalType":"uint256","name":"","type":"uint256"}],"stateMutability":"view","type":"function"},{"inputs":[],"name":"totalAllocPoint","outputs":[{"internalType":"uint256","name":"","type":"uint256"}],"stateMutability":"view","type":"function"},{"inputs":[{"internalType":"address","name":"newOwner","type":"address"}],"name":"transferOwnership","outputs":[],"stateMutability":"nonpayable","type":"function"},{"inputs":[],"name":"updateAllPools","outputs":[],"stateMutability":"nonpayable","type":"function"},{"inputs":[{"internalType":"uint256[]","name":"pids","type":"uint256[]"}],"name":"updateMultiplePools","outputs":[],"stateMutability":"nonpayable","type":"function"},{"inputs":[{"internalType":"uint256","name":"_pid","type":"uint256"}],"name":"updatePool","outputs":[],"stateMutability":"nonpayable","type":"function"},{"inputs":[{"internalType":"uint256","name":"","type":"uint256"},{"internalType":"address","name":"","type":"address"}],"name":"userInfo","outputs":[{"internalType":"uint256","name":"amount","type":"uint256"},{"internalType":"uint256","name":"rewardDebt","type":"uint256"}],"stateMutability":"view","type":"function"},{"inputs":[{"internalType":"uint256","name":"_pid","type":"uint256"},{"internalType":"uint256","name":"_amount","type":"uint256"}],"name":"withdraw","outputs":[],"stateMutability":"nonpayable","type":"function"}],"devdoc":{"kind":"dev","methods":{"owner()":{"details":"Returns the address of the current owner."},"renounceOwnership()":{"details":"Leaves the contract without owner. It will not be possible to call `onlyOwner` functions anymore. Can only be called by the current owner. NOTE: Renouncing ownership will leave the contract without an owner, thereby removing any functionality that is only available to the owner."},"transferOwnership(address)":{"details":"Transfers ownership of the contract to a new account (`newOwner`). Can only be called by the current owner."}},"version":1},"evm":{"bytecode":{"linkReferences":{},"object":"60c06040523480156200001157600080fd5b5060405162002358380380620023588339810160408190526200003491620000b7565b600062000040620000b3565b600080546001600160a01b0319166001600160a01b0383169081178255604051929350917f8be0079c531659141344cd1fd0a4f28419497f9722a3daafe3b4186f6b6457e0908290a3506001805560609390931b6001600160601b03191660805260039190915560025560a05262000102565b3390565b60008060008060808587031215620000cd578384fd5b84516001600160a01b0381168114620000e4578485fd5b60208601516040870151606090970151919890975090945092505050565b60805160601c60a0516122076200015160003980610c7152806113ad52806113d45250806104a25280610612528061082552806108c4528061102d52806116b1528061174652506122076000f3fe608060405234801561001057600080fd5b50600436106101735760003560e01c80637154b8b5116100de57806398969e8211610097578063e2bbb15811610071578063e2bbb158146102e0578063e846ee59146102f3578063f2fde38b14610306578063f624d2c51461031957610173565b806398969e82146102b2578063a1bdb15e146102c5578063b9ec7d74146102d857610173565b80637154b8b51461025357806378e9792514610266578063864720331461026e5780638da5cb5b1461027657806393f1a40b1461027e57806396c8c4b51461029f57610173565b806317caf6f11161013057806317caf6f114610202578063441a3e701461020a57806351eb05a61461021d5780635312ea8e1461023057806370d5ae0514610243578063715018a61461024b57610173565b806303807ee51461017857806306fdde0314610196578063081e3eda146101ab5780630d969044146101b35780630e3e22df146101c85780631526fe27146101dd575b600080fd5b61018061032c565b60405161018d91906120fc565b60405180910390f35b61019e610332565b60405161018d9190611c84565b610180610358565b6101c66101c1366004611b91565b61035e565b005b6101d06104a0565b60405161018d9190611bfb565b6101f06101eb366004611af1565b6104c4565b60405161018d96959493929190611c4c565b610180610514565b6101c6610218366004611b91565b61051a565b6101c661022b366004611af1565b610751565b6101c661023e366004611af1565b61098e565b6101d0610b31565b6101c6610b37565b6101c6610261366004611af1565b610bc0565b610180610c6f565b610180610c93565b6101d0610c99565b61029161028c366004611b21565b610ca8565b60405161018d92919061213b565b6101c66102ad366004611a3c565b610ccc565b6102916102c0366004611b21565b610d00565b6101c66102d3366004611af1565b610ec6565b6101c6610f42565b6101c66102ee366004611b91565b610f61565b6101c6610301366004611bb2565b611158565b6101c6610314366004611a20565b6112a2565b6101c6610327366004611b50565b611362565b60025481565b6040518060400160405280600a81526020016926b0b9ba32b921b432b360b11b81525081565b60045490565b6103666115a2565b6001600160a01b0316610377610c99565b6001600160a01b0316146103a65760405162461bcd60e51b815260040161039d90611f26565b60405180910390fd5b60045482106103c75760405162461bcd60e51b815260040161039d90611de6565b6000600483815481106103d657fe5b906000526020600020906006020190506103ef83610751565b60058101546001600160a01b03168015610462576040516366da581560e01b81526001600160a01b038216906366da58159061042f9086906004016120fc565b600060405180830381600087803b15801561044957600080fd5b505af115801561045d573d6000803e3d6000fd5b505050505b837f2dae3718fe1b15657fc93de399148a4d8a76dec0acaf7165b38de1468ac2e6028460405161049291906120fc565b60405180910390a250505050565b7f000000000000000000000000000000000000000000000000000000000000000081565b600481815481106104d157fe5b60009182526020909120600690910201805460018201546002830154600384015460048501546005909501546001600160a01b0394851696509294919390921686565b60065481565b6002600154141561053d5760405162461bcd60e51b815260040161039d9061203d565b600260015560045482106105635760405162461bcd60e51b815260040161039d90611f5b565b60006004838154811061057257fe5b600091825260208083208684526005825260408085203386529092529220805460069092029092019250838110156105bc5760405162461bcd60e51b815260040161039d90611eb0565b6105c585610751565b60038301546004840154821561063b576001840154600090610603906105fd670de0b6b3a76400006105f788886115a6565b906115e9565b9061161b565b90506106396001600160a01b037f0000000000000000000000000000000000000000000000000000000000000000163383611643565b505b85156106725761064b838761161b565b8455610657818761161b565b60048601558454610672906001600160a01b03163388611643565b835460058601549093506001600160a01b031680156106ec5760405163186e465160e31b81526001600160a01b0382169063c3723288906106b99033908890600401611c33565b600060405180830381600087803b1580156106d357600080fd5b505af11580156106e7573d6000803e3d6000fd5b505050505b610702670de0b6b3a76400006105f786866115a6565b6001860155604051889033907ff279e6a1f5e320cca91135676d9cb6e44ca8a08c0b88342bcdb1144f6511b5689061073b908b906120fc565b60405180910390a3505060018055505050505050565b60045481106107725760405162461bcd60e51b815260040161039d906120b9565b60006004828154811061078157fe5b906000526020600020906006020190506000816002015490508042116107a857505061098b565b60048201548015806107bc57506001830154155b156107cf5750504260029091015561098b565b60006107db834261169e565b905060006108086006546105f78760010154610802600354876115a690919063ffffffff16565b906115a6565b9050600080610816836116aa565b90925090506001600160a01b037f0000000000000000000000000000000000000000000000000000000000000000166340c10f1930610855858561182c565b6040518363ffffffff1660e01b8152600401610872929190611c33565b600060405180830381600087803b15801561088c57600080fd5b505af11580156108a0573d6000803e3d6000fd5b5050505060008211156109515760405163a9059cbb60e01b81526001600160a01b037f0000000000000000000000000000000000000000000000000000000000000000169063a9059cbb906108fd9061dead908690600401611c33565b602060405180830381600087803b15801561091757600080fd5b505af115801561092b573d6000803e3d6000fd5b505050506040513d601f19601f8201168201806040525081019061094f9190611ad1565b505b61097561096a866105f784670de0b6b3a76400006115a6565b60038901549061182c565b6003880155505042600290950194909455505050505b50565b600260015414156109b15760405162461bcd60e51b815260040161039d9061203d565b60026001819055506000600482815481106109c857fe5b600091825260208083208584526005808352604080862033875290935291842080549481556006909302019081015460048201549194509192916001600160a01b031690610a16908361161b565b6004850155600060018401558354610a38906001600160a01b03163384611643565b84336001600160a01b03167fbb757047c2b5f3974fe26b7c10f732e7bce710b0952a71082702781e62ae059584604051610a7291906120fc565b60405180910390a3803b6001600160a01b03821615801590610a945750600081115b15610b255760405163186e465160e31b81526001600160a01b0383169063c372328890610ac8903390600090600401611c33565b600060405180830381600087803b158015610ae257600080fd5b505af1925050508015610af3575060015b610b2557604051869033907f685110d884797977c24f43db4f8721134c9414c01c0b57a5384802b573bfc81e90600090a35b50506001805550505050565b61dead81565b610b3f6115a2565b6001600160a01b0316610b50610c99565b6001600160a01b031614610b765760405162461bcd60e51b815260040161039d90611f26565b600080546040516001600160a01b03909116907f8be0079c531659141344cd1fd0a4f28419497f9722a3daafe3b4186f6b6457e0908390a3600080546001600160a01b0319169055565b610bc86115a2565b6001600160a01b0316610bd9610c99565b6001600160a01b031614610bff5760405162461bcd60e51b815260040161039d90611f26565b68056bc75e2d631000008110610c275760405162461bcd60e51b815260040161039d90612074565b610c2f610f42565b60028190556040517f0287d8f6090bf7e554411e129912f733c4ed418a656b56c01cb61c54890109d690610c649083906120fc565b60405180910390a150565b7f000000000000000000000000000000000000000000000000000000000000000081565b60035481565b6000546001600160a01b031690565b60056020908152600092835260408084209091529082529020805460019091015482565b60005b8151811015610cfc57610cf4828281518110610ce757fe5b6020026020010151610751565b600101610ccf565b5050565b60045460009081908410610d265760405162461bcd60e51b815260040161039d90611cec565b600060048581548110610d3557fe5b600091825260208083208884526005825260408085206001600160a01b038a168652909252922060036006909202909201908101546004820154600283015492945090914281108015610d8757508115155b15610df6576000610d98824261169e565b90506000610dbf6006546105f78960010154610802600354876115a690919063ffffffff16565b90506000610dcc826116aa565b9150610df09050610de9866105f784670de0b6b3a76400006115a6565b879061182c565b95505050505b610e2184600101546105fd670de0b6b3a76400006105f78789600001546115a690919063ffffffff16565b60058601549097506001600160a01b03168015610eb957845460405163f430cf0d60e01b81526001600160a01b0383169163f430cf0d91610e66918d91600401611c33565b60206040518083038186803b158015610e7e57600080fd5b505afa158015610e92573d6000803e3d6000fd5b505050506040513d601f19601f82011682018060405250810190610eb69190611b09565b96505b5050505050509250929050565b610ece6115a2565b6001600160a01b0316610edf610c99565b6001600160a01b031614610f055760405162461bcd60e51b815260040161039d90611f26565b610f0d610f42565b60038190556040517fbe8bc964758fb9bdff90ab397e91e1c2edd1bac024f40bfa335a5a57170d987c90610c649083906120fc565b60045460005b81811015610cfc57610f5981610751565b600101610f48565b60026001541415610f845760405162461bcd60e51b815260040161039d9061203d565b60026001556004548210610faa5760405162461bcd60e51b815260040161039d90611fbe565b600060048381548110610fb957fe5b60009182526020808320868452600582526040808520338652909252922060069091029091019150610fea84610751565b805460038301546004840154821561105657600184015460009061101e906105fd670de0b6b3a76400006105f788886115a6565b90506110546001600160a01b037f0000000000000000000000000000000000000000000000000000000000000000163383611643565b505b851561108f578454611073906001600160a01b0316333089611851565b61107d838761182c565b8455611089818761182c565b60048601555b835460058601549093506001600160a01b031680156111095760405163186e465160e31b81526001600160a01b0382169063c3723288906110d69033908890600401611c33565b600060405180830381600087803b1580156110f057600080fd5b505af1158015611104573d6000803e3d6000fd5b505050505b61111f670de0b6b3a76400006105f786866115a6565b6001860155604051889033907f90890809c654f11d6e72a28fa60149770a0d11ec6c92319d6ceb2bb0a4ea1a159061073b908b906120fc565b6111606115a2565b6001600160a01b0316611171610c99565b6001600160a01b0316146111975760405162461bcd60e51b815260040161039d90611f26565b60045483106111b85760405162461bcd60e51b815260040161039d90611cb7565b6111c0610f42565b6111f7600484815481106111d057fe5b9060005260206000209060060201600101546105fd8460065461182c90919063ffffffff16565b600681905550816004848154811061120b57fe5b906000526020600020906006020160010181905550806004848154811061122e57fe5b906000526020600020906006020160050160006101000a8154816001600160a01b0302191690836001600160a01b03160217905550827fd2737cc1f8a3945197fccdabf17f907b8e22ee474654fd0f656fc4dcf1d6a6248383604051611295929190612105565b60405180910390a2505050565b6112aa6115a2565b6001600160a01b03166112bb610c99565b6001600160a01b0316146112e15760405162461bcd60e51b815260040161039d90611f26565b6001600160a01b0381166113075760405162461bcd60e51b815260040161039d90611d32565b600080546040516001600160a01b03808516939216917f8be0079c531659141344cd1fd0a4f28419497f9722a3daafe3b4186f6b6457e091a3600080546001600160a01b0319166001600160a01b0392909216919091179055565b61136a6115a2565b6001600160a01b031661137b610c99565b6001600160a01b0316146113a15760405162461bcd60e51b815260040161039d90611f26565b6113a9610f42565b60007f000000000000000000000000000000000000000000000000000000000000000042116113f8577f00000000000000000000000000000000000000000000000000000000000000006113fa565b425b60065490915061140a908561182c565b60069081556040805160c0810182526001600160a01b03808716825260208201888152828401868152600060608501818152608086018281528a861660a088019081526004805460018101825594529651929098027f8a35acfbc15ff81a39ae7d344fd709f28e8600b4aa8c65c6b64bfe7fe36bd19b810180549387166001600160a01b031994851617905593517f8a35acfbc15ff81a39ae7d344fd709f28e8600b4aa8c65c6b64bfe7fe36bd19c85015591517f8a35acfbc15ff81a39ae7d344fd709f28e8600b4aa8c65c6b64bfe7fe36bd19d84015590517f8a35acfbc15ff81a39ae7d344fd709f28e8600b4aa8c65c6b64bfe7fe36bd19e83015594517f8a35acfbc15ff81a39ae7d344fd709f28e8600b4aa8c65c6b64bfe7fe36bd19f82015591517f8a35acfbc15ff81a39ae7d344fd709f28e8600b4aa8c65c6b64bfe7fe36bd1a09092018054929091169190931617909155517f1a43e4121268b689e564f3ca4b347e76e6a182afbd688a8ae883a62d09396428906115949086908690869061211c565b60405180910390a150505050565b3390565b6000826115b5575060006115e3565b828202828482816115c257fe5b04146115e05760405162461bcd60e51b815260040161039d90611ee5565b90505b92915050565b600080821161160a5760405162461bcd60e51b815260040161039d90611e79565b81838161161357fe5b049392505050565b60008282111561163d5760405162461bcd60e51b815260040161039d90611daf565b50900390565b6116998363a9059cbb60e01b8484604051602401611662929190611c33565b60408051601f198184030181529190526020810180516001600160e01b03166001600160e01b031990931692909217909152611878565b505050565b60006115e0828461161b565b60008060007f00000000000000000000000000000000000000000000000000000000000000006001600160a01b03166318160ddd6040518163ffffffff1660e01b815260040160206040518083038186803b15801561170857600080fd5b505afa15801561171c573d6000803e3d6000fd5b505050506040513d601f19601f820116820180604052508101906117409190611b09565b905060007f00000000000000000000000000000000000000000000000000000000000000006001600160a01b031663d5abeb016040518163ffffffff1660e01b815260040160206040518083038186803b15801561179d57600080fd5b505afa1580156117b1573d6000803e3d6000fd5b505050506040513d601f19601f820116820180604052508101906117d59190611b09565b90506117e1828661182c565b8110156117f5576117f2818361161b565b94505b61181768056bc75e2d631000006105f7600254886115a690919063ffffffff16565b9350611823858561161b565b92505050915091565b6000828201838110156115e05760405162461bcd60e51b815260040161039d90611d78565b611872846323b872dd60e01b85858560405160240161166293929190611c0f565b50505050565b60606118cd826040518060400160405280602081526020017f5361666545524332303a206c6f772d6c6576656c2063616c6c206661696c6564815250856001600160a01b03166119079092919063ffffffff16565b80519091501561169957808060200190518101906118eb9190611ad1565b6116995760405162461bcd60e51b815260040161039d90611ff3565b60606119168484600085611920565b90505b9392505050565b6060824710156119425760405162461bcd60e51b815260040161039d90611e33565b61194b856119e1565b6119675760405162461bcd60e51b815260040161039d90611f87565b60006060866001600160a01b031685876040516119849190611bdf565b60006040518083038185875af1925050503d80600081146119c1576040519150601f19603f3d011682016040523d82523d6000602084013e6119c6565b606091505b50915091506119d68282866119e7565b979650505050505050565b3b151590565b606083156119f6575081611919565b825115611a065782518084602001fd5b8160405162461bcd60e51b815260040161039d9190611c84565b600060208284031215611a31578081fd5b81356115e0816121bc565b60006020808385031215611a4e578182fd5b823567ffffffffffffffff811115611a64578283fd5b8301601f81018513611a74578283fd5b8035611a87611a8282612170565b612149565b8181528381019083850185840285018601891015611aa3578687fd5b8694505b83851015611ac5578035835260019490940193918501918501611aa7565b50979650505050505050565b600060208284031215611ae2578081fd5b815180151581146115e0578182fd5b600060208284031215611b02578081fd5b5035919050565b600060208284031215611b1a578081fd5b5051919050565b60008060408385031215611b33578081fd5b823591506020830135611b45816121bc565b809150509250929050565b600080600060608486031215611b64578081fd5b833592506020840135611b76816121bc565b91506040840135611b86816121bc565b809150509250925092565b60008060408385031215611ba3578182fd5b50508035926020909101359150565b600080600060608486031215611bc6578283fd5b83359250602084013591506040840135611b86816121bc565b60008251611bf1818460208701612190565b9190910192915050565b6001600160a01b0391909116815260200190565b6001600160a01b039384168152919092166020820152604081019190915260600190565b6001600160a01b03929092168252602082015260400190565b6001600160a01b039687168152602081019590955260408501939093526060840191909152608083015290911660a082015260c00190565b6000602082528251806020840152611ca3816040850160208701612190565b601f01601f19169190910160400192915050565b6020808252818101527f736574506f6f6c3a2054686520706f6f6c20646f6573206e6f74206578697374604082015260600190565b60208082526026908201527f70656e64696e675265776172643a2054686520706f6f6c20646f6573206e6f7460408201526508195e1a5cdd60d21b606082015260800190565b60208082526026908201527f4f776e61626c653a206e6577206f776e657220697320746865207a65726f206160408201526564647265737360d01b606082015260800190565b6020808252601b908201527f536166654d6174683a206164646974696f6e206f766572666c6f770000000000604082015260600190565b6020808252601e908201527f536166654d6174683a207375627472616374696f6e206f766572666c6f770000604082015260600190565b6020808252602d908201527f736574426f6e7573456d697373696f6e526174653a2054686520706f6f6c206460408201526c1bd95cc81b9bdd08195e1a5cdd609a1b606082015260800190565b60208082526026908201527f416464726573733a20696e73756666696369656e742062616c616e636520666f6040820152651c8818d85b1b60d21b606082015260800190565b6020808252601a908201527f536166654d6174683a206469766973696f6e206279207a65726f000000000000604082015260600190565b6020808252818101527f77697468647261773a2045786365656465642075736572277320616d6f756e74604082015260600190565b60208082526021908201527f536166654d6174683a206d756c7469706c69636174696f6e206f766572666c6f6040820152607760f81b606082015260800190565b6020808252818101527f4f776e61626c653a2063616c6c6572206973206e6f7420746865206f776e6572604082015260600190565b6020808252601290820152711dda5d1a191c985dce88109051081413d3d360721b604082015260600190565b6020808252601d908201527f416464726573733a2063616c6c20746f206e6f6e2d636f6e7472616374000000604082015260600190565b6020808252818101527f6465706f7369743a2054686520706f6f6c20646f6573206e6f74206578697374604082015260600190565b6020808252602a908201527f5361666545524332303a204552433230206f7065726174696f6e20646964206e6040820152691bdd081cdd58d8d9595960b21b606082015260800190565b6020808252601f908201527f5265656e7472616e637947756172643a207265656e7472616e742063616c6c00604082015260600190565b60208082526025908201527f73657450657263656e743a2050657263656e742063616e6e6f74206578636565604082015264064203130360dc1b606082015260800190565b60208082526023908201527f757064617465506f6f6c3a2054686520706f6f6c20646f6573206e6f742065786040820152621a5cdd60ea1b606082015260800190565b90815260200190565b9182526001600160a01b0316602082015260400190565b9283526001600160a01b03918216602084015216604082015260600190565b918252602082015260400190565b60405181810167ffffffffffffffff8111828210171561216857600080fd5b604052919050565b600067ffffffffffffffff821115612186578081fd5b5060209081020190565b60005b838110156121ab578181015183820152602001612193565b838111156118725750506000910152565b6001600160a01b038116811461098b57600080fdfea26469706673582212208d697662cc8afa267f064ab6be6181193241e11725b55c19389141c230b337ff64736f6c634300060c0033","opcodes":"PUSH1 0xC0 PUSH1 0x40 MSTORE CALLVALUE DUP1 ISZERO PUSH3 0x11 JUMPI PUSH1 0x0 DUP1 REVERT JUMPDEST POP PUSH1 0x40 MLOAD PUSH3 0x2358 CODESIZE SUB DUP1 PUSH3 0x2358 DUP4 CODECOPY DUP2 ADD PUSH1 0x40 DUP2 SWAP1 MSTORE PUSH3 0x34 SWAP2 PUSH3 0xB7 JUMP JUMPDEST PUSH1 0x0 PUSH3 0x40 PUSH3 0xB3 JUMP JUMPDEST PUSH1 0x0 DUP1 SLOAD PUSH1 0x1 PUSH1 0x1 PUSH1 0xA0 SHL SUB NOT AND PUSH1 0x1 PUSH1 0x1 PUSH1 0xA0 SHL SUB DUP4 AND SWAP1 DUP2 OR DUP3 SSTORE PUSH1 0x40 MLOAD SWAP3 SWAP4 POP SWAP2 PUSH32 0x8BE0079C531659141344CD1FD0A4F28419497F9722A3DAAFE3B4186F6B6457E0 SWAP1 DUP3 SWAP1 LOG3 POP PUSH1 0x1 DUP1 SSTORE PUSH1 0x60 SWAP4 SWAP1 SWAP4 SHL PUSH1 0x1 PUSH1 0x1 PUSH1 0x60 SHL SUB NOT AND PUSH1 0x80 MSTORE PUSH1 0x3 SWAP2 SWAP1 SWAP2 SSTORE PUSH1 0x2 SSTORE PUSH1 0xA0 MSTORE PUSH3 0x102 JUMP JUMPDEST CALLER SWAP1 JUMP JUMPDEST PUSH1 0x0 DUP1 PUSH1 0x0 DUP1 PUSH1 0x80 DUP6 DUP8 SUB SLT ISZERO PUSH3 0xCD JUMPI DUP4 DUP5 REVERT JUMPDEST DUP5 MLOAD PUSH1 0x1 PUSH1 0x1 PUSH1 0xA0 SHL SUB DUP2 AND DUP2 EQ PUSH3 0xE4 JUMPI DUP5 DUP6 REVERT JUMPDEST PUSH1 0x20 DUP7 ADD MLOAD PUSH1 0x40 DUP8 ADD MLOAD PUSH1 0x60 SWAP1 SWAP8 ADD MLOAD SWAP2 SWAP9 SWAP1 SWAP8 POP SWAP1 SWAP5 POP SWAP3 POP POP POP JUMP JUMPDEST PUSH1 0x80 MLOAD PUSH1 0x60 SHR PUSH1 0xA0 MLOAD PUSH2 0x2207 PUSH3 0x151 PUSH1 0x0 CODECOPY DUP1 PUSH2 0xC71 MSTORE DUP1 PUSH2 0x13AD MSTORE DUP1 PUSH2 0x13D4 MSTORE POP DUP1 PUSH2 0x4A2 MSTORE DUP1 PUSH2 0x612 MSTORE DUP1 PUSH2 0x825 MSTORE DUP1 PUSH2 0x8C4 MSTORE DUP1 PUSH2 0x102D MSTORE DUP1 PUSH2 0x16B1 MSTORE DUP1 PUSH2 0x1746 MSTORE POP PUSH2 0x2207 PUSH1 0x0 RETURN INVALID PUSH1 0x80 PUSH1 0x40 MSTORE CALLVALUE DUP1 ISZERO PUSH2 0x10 JUMPI PUSH1 0x0 DUP1 REVERT JUMPDEST POP PUSH1 0x4 CALLDATASIZE LT PUSH2 0x173 JUMPI PUSH1 0x0 CALLDATALOAD PUSH1 0xE0 SHR DUP1 PUSH4 0x7154B8B5 GT PUSH2 0xDE JUMPI DUP1 PUSH4 0x98969E82 GT PUSH2 0x97 JUMPI DUP1 PUSH4 0xE2BBB158 GT PUSH2 0x71 JUMPI DUP1 PUSH4 0xE2BBB158 EQ PUSH2 0x2E0 JUMPI DUP1 PUSH4 0xE846EE59 EQ PUSH2 0x2F3 JUMPI DUP1 PUSH4 0xF2FDE38B EQ PUSH2 0x306 JUMPI DUP1 PUSH4 0xF624D2C5 EQ PUSH2 0x319 JUMPI PUSH2 0x173 JUMP JUMPDEST DUP1 PUSH4 0x98969E82 EQ PUSH2 0x2B2 JUMPI DUP1 PUSH4 0xA1BDB15E EQ PUSH2 0x2C5 JUMPI DUP1 PUSH4 0xB9EC7D74 EQ PUSH2 0x2D8 JUMPI PUSH2 0x173 JUMP JUMPDEST DUP1 PUSH4 0x7154B8B5 EQ PUSH2 0x253 JUMPI DUP1 PUSH4 0x78E97925 EQ PUSH2 0x266 JUMPI DUP1 PUSH4 0x86472033 EQ PUSH2 0x26E JUMPI DUP1 PUSH4 0x8DA5CB5B EQ PUSH2 0x276 JUMPI DUP1 PUSH4 0x93F1A40B EQ PUSH2 0x27E JUMPI DUP1 PUSH4 0x96C8C4B5 EQ PUSH2 0x29F JUMPI PUSH2 0x173 JUMP JUMPDEST DUP1 PUSH4 0x17CAF6F1 GT PUSH2 0x130 JUMPI DUP1 PUSH4 0x17CAF6F1 EQ PUSH2 0x202 JUMPI DUP1 PUSH4 0x441A3E70 EQ PUSH2 0x20A JUMPI DUP1 PUSH4 0x51EB05A6 EQ PUSH2 0x21D JUMPI DUP1 PUSH4 0x5312EA8E EQ PUSH2 0x230 JUMPI DUP1 PUSH4 0x70D5AE05 EQ PUSH2 0x243 JUMPI DUP1 PUSH4 0x715018A6 EQ PUSH2 0x24B JUMPI PUSH2 0x173 JUMP JUMPDEST DUP1 PUSH4 0x3807EE5 EQ PUSH2 0x178 JUMPI DUP1 PUSH4 0x6FDDE03 EQ PUSH2 0x196 JUMPI DUP1 PUSH4 0x81E3EDA EQ PUSH2 0x1AB JUMPI DUP1 PUSH4 0xD969044 EQ PUSH2 0x1B3 JUMPI DUP1 PUSH4 0xE3E22DF EQ PUSH2 0x1C8 JUMPI DUP1 PUSH4 0x1526FE27 EQ PUSH2 0x1DD JUMPI JUMPDEST PUSH1 0x0 DUP1 REVERT JUMPDEST PUSH2 0x180 PUSH2 0x32C JUMP JUMPDEST PUSH1 0x40 MLOAD PUSH2 0x18D SWAP2 SWAP1 PUSH2 0x20FC JUMP JUMPDEST PUSH1 0x40 MLOAD DUP1 SWAP2 SUB SWAP1 RETURN JUMPDEST PUSH2 0x19E PUSH2 0x332 JUMP JUMPDEST PUSH1 0x40 MLOAD PUSH2 0x18D SWAP2 SWAP1 PUSH2 0x1C84 JUMP JUMPDEST PUSH2 0x180 PUSH2 0x358 JUMP JUMPDEST PUSH2 0x1C6 PUSH2 0x1C1 CALLDATASIZE PUSH1 0x4 PUSH2 0x1B91 JUMP JUMPDEST PUSH2 0x35E JUMP JUMPDEST STOP JUMPDEST PUSH2 0x1D0 PUSH2 0x4A0 JUMP JUMPDEST PUSH1 0x40 MLOAD PUSH2 0x18D SWAP2 SWAP1 PUSH2 0x1BFB JUMP JUMPDEST PUSH2 0x1F0 PUSH2 0x1EB CALLDATASIZE PUSH1 0x4 PUSH2 0x1AF1 JUMP JUMPDEST PUSH2 0x4C4 JUMP JUMPDEST PUSH1 0x40 MLOAD PUSH2 0x18D SWAP7 SWAP6 SWAP5 SWAP4 SWAP3 SWAP2 SWAP1 PUSH2 0x1C4C JUMP JUMPDEST PUSH2 0x180 PUSH2 0x514 JUMP JUMPDEST PUSH2 0x1C6 PUSH2 0x218 CALLDATASIZE PUSH1 0x4 PUSH2 0x1B91 JUMP JUMPDEST PUSH2 0x51A JUMP JUMPDEST PUSH2 0x1C6 PUSH2 0x22B CALLDATASIZE PUSH1 0x4 PUSH2 0x1AF1 JUMP JUMPDEST PUSH2 0x751 JUMP JUMPDEST PUSH2 0x1C6 PUSH2 0x23E CALLDATASIZE PUSH1 0x4 PUSH2 0x1AF1 JUMP JUMPDEST PUSH2 0x98E JUMP JUMPDEST PUSH2 0x1D0 PUSH2 0xB31 JUMP JUMPDEST PUSH2 0x1C6 PUSH2 0xB37 JUMP JUMPDEST PUSH2 0x1C6 PUSH2 0x261 CALLDATASIZE PUSH1 0x4 PUSH2 0x1AF1 JUMP JUMPDEST PUSH2 0xBC0 JUMP JUMPDEST PUSH2 0x180 PUSH2 0xC6F JUMP JUMPDEST PUSH2 0x180 PUSH2 0xC93 JUMP JUMPDEST PUSH2 0x1D0 PUSH2 0xC99 JUMP JUMPDEST PUSH2 0x291 PUSH2 0x28C CALLDATASIZE PUSH1 0x4 PUSH2 0x1B21 JUMP JUMPDEST PUSH2 0xCA8 JUMP JUMPDEST PUSH1 0x40 MLOAD PUSH2 0x18D SWAP3 SWAP2 SWAP1 PUSH2 0x213B JUMP JUMPDEST PUSH2 0x1C6 PUSH2 0x2AD CALLDATASIZE PUSH1 0x4 PUSH2 0x1A3C JUMP JUMPDEST PUSH2 0xCCC JUMP JUMPDEST PUSH2 0x291 PUSH2 0x2C0 CALLDATASIZE PUSH1 0x4 PUSH2 0x1B21 JUMP JUMPDEST PUSH2 0xD00 JUMP JUMPDEST PUSH2 0x1C6 PUSH2 0x2D3 CALLDATASIZE PUSH1 0x4 PUSH2 0x1AF1 JUMP JUMPDEST PUSH2 0xEC6 JUMP JUMPDEST PUSH2 0x1C6 PUSH2 0xF42 JUMP JUMPDEST PUSH2 0x1C6 PUSH2 0x2EE CALLDATASIZE PUSH1 0x4 PUSH2 0x1B91 JUMP JUMPDEST PUSH2 0xF61 JUMP JUMPDEST PUSH2 0x1C6 PUSH2 0x301 CALLDATASIZE PUSH1 0x4 PUSH2 0x1BB2 JUMP JUMPDEST PUSH2 0x1158 JUMP JUMPDEST PUSH2 0x1C6 PUSH2 0x314 CALLDATASIZE PUSH1 0x4 PUSH2 0x1A20 JUMP JUMPDEST PUSH2 0x12A2 JUMP JUMPDEST PUSH2 0x1C6 PUSH2 0x327 CALLDATASIZE PUSH1 0x4 PUSH2 0x1B50 JUMP JUMPDEST PUSH2 0x1362 JUMP JUMPDEST PUSH1 0x2 SLOAD DUP2 JUMP JUMPDEST PUSH1 0x40 MLOAD DUP1 PUSH1 0x40 ADD PUSH1 0x40 MSTORE DUP1 PUSH1 0xA DUP2 MSTORE PUSH1 0x20 ADD PUSH10 0x26B0B9BA32B921B432B3 PUSH1 0xB1 SHL DUP2 MSTORE POP DUP2 JUMP JUMPDEST PUSH1 0x4 SLOAD SWAP1 JUMP JUMPDEST PUSH2 0x366 PUSH2 0x15A2 JUMP JUMPDEST PUSH1 0x1 PUSH1 0x1 PUSH1 0xA0 SHL SUB AND PUSH2 0x377 PUSH2 0xC99 JUMP JUMPDEST PUSH1 0x1 PUSH1 0x1 PUSH1 0xA0 SHL SUB AND EQ PUSH2 0x3A6 JUMPI PUSH1 0x40 MLOAD PUSH3 0x461BCD PUSH1 0xE5 SHL DUP2 MSTORE PUSH1 0x4 ADD PUSH2 0x39D SWAP1 PUSH2 0x1F26 JUMP JUMPDEST PUSH1 0x40 MLOAD DUP1 SWAP2 SUB SWAP1 REVERT JUMPDEST PUSH1 0x4 SLOAD DUP3 LT PUSH2 0x3C7 JUMPI PUSH1 0x40 MLOAD PUSH3 0x461BCD PUSH1 0xE5 SHL DUP2 MSTORE PUSH1 0x4 ADD PUSH2 0x39D SWAP1 PUSH2 0x1DE6 JUMP JUMPDEST PUSH1 0x0 PUSH1 0x4 DUP4 DUP2 SLOAD DUP2 LT PUSH2 0x3D6 JUMPI INVALID JUMPDEST SWAP1 PUSH1 0x0 MSTORE PUSH1 0x20 PUSH1 0x0 KECCAK256 SWAP1 PUSH1 0x6 MUL ADD SWAP1 POP PUSH2 0x3EF DUP4 PUSH2 0x751 JUMP JUMPDEST PUSH1 0x5 DUP2 ADD SLOAD PUSH1 0x1 PUSH1 0x1 PUSH1 0xA0 SHL SUB AND DUP1 ISZERO PUSH2 0x462 JUMPI PUSH1 0x40 MLOAD PUSH4 0x66DA5815 PUSH1 0xE0 SHL DUP2 MSTORE PUSH1 0x1 PUSH1 0x1 PUSH1 0xA0 SHL SUB DUP3 AND SWAP1 PUSH4 0x66DA5815 SWAP1 PUSH2 0x42F SWAP1 DUP7 SWAP1 PUSH1 0x4 ADD PUSH2 0x20FC JUMP JUMPDEST PUSH1 0x0 PUSH1 0x40 MLOAD DUP1 DUP4 SUB DUP2 PUSH1 0x0 DUP8 DUP1 EXTCODESIZE ISZERO DUP1 ISZERO PUSH2 0x449 JUMPI PUSH1 0x0 DUP1 REVERT JUMPDEST POP GAS CALL ISZERO DUP1 ISZERO PUSH2 0x45D JUMPI RETURNDATASIZE PUSH1 0x0 DUP1 RETURNDATACOPY RETURNDATASIZE PUSH1 0x0 REVERT JUMPDEST POP POP POP POP JUMPDEST DUP4 PUSH32 0x2DAE3718FE1B15657FC93DE399148A4D8A76DEC0ACAF7165B38DE1468AC2E602 DUP5 PUSH1 0x40 MLOAD PUSH2 0x492 SWAP2 SWAP1 PUSH2 0x20FC JUMP JUMPDEST PUSH1 0x40 MLOAD DUP1 SWAP2 SUB SWAP1 LOG2 POP POP POP POP JUMP JUMPDEST PUSH32 0x0 DUP2 JUMP JUMPDEST PUSH1 0x4 DUP2 DUP2 SLOAD DUP2 LT PUSH2 0x4D1 JUMPI INVALID JUMPDEST PUSH1 0x0 SWAP2 DUP3 MSTORE PUSH1 0x20 SWAP1 SWAP2 KECCAK256 PUSH1 0x6 SWAP1 SWAP2 MUL ADD DUP1 SLOAD PUSH1 0x1 DUP3 ADD SLOAD PUSH1 0x2 DUP4 ADD SLOAD PUSH1 0x3 DUP5 ADD SLOAD PUSH1 0x4 DUP6 ADD SLOAD PUSH1 0x5 SWAP1 SWAP6 ADD SLOAD PUSH1 0x1 PUSH1 0x1 PUSH1 0xA0 SHL SUB SWAP5 DUP6 AND SWAP7 POP SWAP3 SWAP5 SWAP2 SWAP4 SWAP1 SWAP3 AND DUP7 JUMP JUMPDEST PUSH1 0x6 SLOAD DUP2 JUMP JUMPDEST PUSH1 0x2 PUSH1 0x1 SLOAD EQ ISZERO PUSH2 0x53D JUMPI PUSH1 0x40 MLOAD PUSH3 0x461BCD PUSH1 0xE5 SHL DUP2 MSTORE PUSH1 0x4 ADD PUSH2 0x39D SWAP1 PUSH2 0x203D JUMP JUMPDEST PUSH1 0x2 PUSH1 0x1 SSTORE PUSH1 0x4 SLOAD DUP3 LT PUSH2 0x563 JUMPI PUSH1 0x40 MLOAD PUSH3 0x461BCD PUSH1 0xE5 SHL DUP2 MSTORE PUSH1 0x4 ADD PUSH2 0x39D SWAP1 PUSH2 0x1F5B JUMP JUMPDEST PUSH1 0x0 PUSH1 0x4 DUP4 DUP2 SLOAD DUP2 LT PUSH2 0x572 JUMPI INVALID JUMPDEST PUSH1 0x0 SWAP2 DUP3 MSTORE PUSH1 0x20 DUP1 DUP4 KECCAK256 DUP7 DUP5 MSTORE PUSH1 0x5 DUP3 MSTORE PUSH1 0x40 DUP1 DUP6 KECCAK256 CALLER DUP7 MSTORE SWAP1 SWAP3 MSTORE SWAP3 KECCAK256 DUP1 SLOAD PUSH1 0x6 SWAP1 SWAP3 MUL SWAP1 SWAP3 ADD SWAP3 POP DUP4 DUP2 LT ISZERO PUSH2 0x5BC JUMPI PUSH1 0x40 MLOAD PUSH3 0x461BCD PUSH1 0xE5 SHL DUP2 MSTORE PUSH1 0x4 ADD PUSH2 0x39D SWAP1 PUSH2 0x1EB0 JUMP JUMPDEST PUSH2 0x5C5 DUP6 PUSH2 0x751 JUMP JUMPDEST PUSH1 0x3 DUP4 ADD SLOAD PUSH1 0x4 DUP5 ADD SLOAD DUP3 ISZERO PUSH2 0x63B JUMPI PUSH1 0x1 DUP5 ADD SLOAD PUSH1 0x0 SWAP1 PUSH2 0x603 SWAP1 PUSH2 0x5FD PUSH8 0xDE0B6B3A7640000 PUSH2 0x5F7 DUP9 DUP9 PUSH2 0x15A6 JUMP JUMPDEST SWAP1 PUSH2 0x15E9 JUMP JUMPDEST SWAP1 PUSH2 0x161B JUMP JUMPDEST SWAP1 POP PUSH2 0x639 PUSH1 0x1 PUSH1 0x1 PUSH1 0xA0 SHL SUB PUSH32 0x0 AND CALLER DUP4 PUSH2 0x1643 JUMP JUMPDEST POP JUMPDEST DUP6 ISZERO PUSH2 0x672 JUMPI PUSH2 0x64B DUP4 DUP8 PUSH2 0x161B JUMP JUMPDEST DUP5 SSTORE PUSH2 0x657 DUP2 DUP8 PUSH2 0x161B JUMP JUMPDEST PUSH1 0x4 DUP7 ADD SSTORE DUP5 SLOAD PUSH2 0x672 SWAP1 PUSH1 0x1 PUSH1 0x1 PUSH1 0xA0 SHL SUB AND CALLER DUP9 PUSH2 0x1643 JUMP JUMPDEST DUP4 SLOAD PUSH1 0x5 DUP7 ADD SLOAD SWAP1 SWAP4 POP PUSH1 0x1 PUSH1 0x1 PUSH1 0xA0 SHL SUB AND DUP1 ISZERO PUSH2 0x6EC JUMPI PUSH1 0x40 MLOAD PUSH4 0x186E4651 PUSH1 0xE3 SHL DUP2 MSTORE PUSH1 0x1 PUSH1 0x1 PUSH1 0xA0 SHL SUB DUP3 AND SWAP1 PUSH4 0xC3723288 SWAP1 PUSH2 0x6B9 SWAP1 CALLER SWAP1 DUP9 SWAP1 PUSH1 0x4 ADD PUSH2 0x1C33 JUMP JUMPDEST PUSH1 0x0 PUSH1 0x40 MLOAD DUP1 DUP4 SUB DUP2 PUSH1 0x0 DUP8 DUP1 EXTCODESIZE ISZERO DUP1 ISZERO PUSH2 0x6D3 JUMPI PUSH1 0x0 DUP1 REVERT JUMPDEST POP GAS CALL ISZERO DUP1 ISZERO PUSH2 0x6E7 JUMPI RETURNDATASIZE PUSH1 0x0 DUP1 RETURNDATACOPY RETURNDATASIZE PUSH1 0x0 REVERT JUMPDEST POP POP POP POP JUMPDEST PUSH2 0x702 PUSH8 0xDE0B6B3A7640000 PUSH2 0x5F7 DUP7 DUP7 PUSH2 0x15A6 JUMP JUMPDEST PUSH1 0x1 DUP7 ADD SSTORE PUSH1 0x40 MLOAD DUP9 SWAP1 CALLER SWAP1 PUSH32 0xF279E6A1F5E320CCA91135676D9CB6E44CA8A08C0B88342BCDB1144F6511B568 SWAP1 PUSH2 0x73B SWAP1 DUP12 SWAP1 PUSH2 0x20FC JUMP JUMPDEST PUSH1 0x40 MLOAD DUP1 SWAP2 SUB SWAP1 LOG3 POP POP PUSH1 0x1 DUP1 SSTORE POP POP POP POP POP POP JUMP JUMPDEST PUSH1 0x4 SLOAD DUP2 LT PUSH2 0x772 JUMPI PUSH1 0x40 MLOAD PUSH3 0x461BCD PUSH1 0xE5 SHL DUP2 MSTORE PUSH1 0x4 ADD PUSH2 0x39D SWAP1 PUSH2 0x20B9 JUMP JUMPDEST PUSH1 0x0 PUSH1 0x4 DUP3 DUP2 SLOAD DUP2 LT PUSH2 0x781 JUMPI INVALID JUMPDEST SWAP1 PUSH1 0x0 MSTORE PUSH1 0x20 PUSH1 0x0 KECCAK256 SWAP1 PUSH1 0x6 MUL ADD SWAP1 POP PUSH1 0x0 DUP2 PUSH1 0x2 ADD SLOAD SWAP1 POP DUP1 TIMESTAMP GT PUSH2 0x7A8 JUMPI POP POP PUSH2 0x98B JUMP JUMPDEST PUSH1 0x4 DUP3 ADD SLOAD DUP1 ISZERO DUP1 PUSH2 0x7BC JUMPI POP PUSH1 0x1 DUP4 ADD SLOAD ISZERO JUMPDEST ISZERO PUSH2 0x7CF JUMPI POP POP TIMESTAMP PUSH1 0x2 SWAP1 SWAP2 ADD SSTORE PUSH2 0x98B JUMP JUMPDEST PUSH1 0x0 PUSH2 0x7DB DUP4 TIMESTAMP PUSH2 0x169E JUMP JUMPDEST SWAP1 POP PUSH1 0x0 PUSH2 0x808 PUSH1 0x6 SLOAD PUSH2 0x5F7 DUP8 PUSH1 0x1 ADD SLOAD PUSH2 0x802 PUSH1 0x3 SLOAD DUP8 PUSH2 0x15A6 SWAP1 SWAP2 SWAP1 PUSH4 0xFFFFFFFF AND JUMP JUMPDEST SWAP1 PUSH2 0x15A6 JUMP JUMPDEST SWAP1 POP PUSH1 0x0 DUP1 PUSH2 0x816 DUP4 PUSH2 0x16AA JUMP JUMPDEST SWAP1 SWAP3 POP SWAP1 POP PUSH1 0x1 PUSH1 0x1 PUSH1 0xA0 SHL SUB PUSH32 0x0 AND PUSH4 0x40C10F19 ADDRESS PUSH2 0x855 DUP6 DUP6 PUSH2 0x182C JUMP JUMPDEST PUSH1 0x40 MLOAD DUP4 PUSH4 0xFFFFFFFF AND PUSH1 0xE0 SHL DUP2 MSTORE PUSH1 0x4 ADD PUSH2 0x872 SWAP3 SWAP2 SWAP1 PUSH2 0x1C33 JUMP JUMPDEST PUSH1 0x0 PUSH1 0x40 MLOAD DUP1 DUP4 SUB DUP2 PUSH1 0x0 DUP8 DUP1 EXTCODESIZE ISZERO DUP1 ISZERO PUSH2 0x88C JUMPI PUSH1 0x0 DUP1 REVERT JUMPDEST POP GAS CALL ISZERO DUP1 ISZERO PUSH2 0x8A0 JUMPI RETURNDATASIZE PUSH1 0x0 DUP1 RETURNDATACOPY RETURNDATASIZE PUSH1 0x0 REVERT JUMPDEST POP POP POP POP PUSH1 0x0 DUP3 GT ISZERO PUSH2 0x951 JUMPI PUSH1 0x40 MLOAD PUSH4 0xA9059CBB PUSH1 0xE0 SHL DUP2 MSTORE PUSH1 0x1 PUSH1 0x1 PUSH1 0xA0 SHL SUB PUSH32 0x0 AND SWAP1 PUSH4 0xA9059CBB SWAP1 PUSH2 0x8FD SWAP1 PUSH2 0xDEAD SWAP1 DUP7 SWAP1 PUSH1 0x4 ADD PUSH2 0x1C33 JUMP JUMPDEST PUSH1 0x20 PUSH1 0x40 MLOAD DUP1 DUP4 SUB DUP2 PUSH1 0x0 DUP8 DUP1 EXTCODESIZE ISZERO DUP1 ISZERO PUSH2 0x917 JUMPI PUSH1 0x0 DUP1 REVERT JUMPDEST POP GAS CALL ISZERO DUP1 ISZERO PUSH2 0x92B JUMPI RETURNDATASIZE PUSH1 0x0 DUP1 RETURNDATACOPY RETURNDATASIZE PUSH1 0x0 REVERT JUMPDEST POP POP POP POP PUSH1 0x40 MLOAD RETURNDATASIZE PUSH1 0x1F NOT PUSH1 0x1F DUP3 ADD AND DUP3 ADD DUP1 PUSH1 0x40 MSTORE POP DUP2 ADD SWAP1 PUSH2 0x94F SWAP2 SWAP1 PUSH2 0x1AD1 JUMP JUMPDEST POP JUMPDEST PUSH2 0x975 PUSH2 0x96A DUP7 PUSH2 0x5F7 DUP5 PUSH8 0xDE0B6B3A7640000 PUSH2 0x15A6 JUMP JUMPDEST PUSH1 0x3 DUP10 ADD SLOAD SWAP1 PUSH2 0x182C JUMP JUMPDEST PUSH1 0x3 DUP9 ADD SSTORE POP POP TIMESTAMP PUSH1 0x2 SWAP1 SWAP6 ADD SWAP5 SWAP1 SWAP5 SSTORE POP POP POP POP JUMPDEST POP JUMP JUMPDEST PUSH1 0x2 PUSH1 0x1 SLOAD EQ ISZERO PUSH2 0x9B1 JUMPI PUSH1 0x40 MLOAD PUSH3 0x461BCD PUSH1 0xE5 SHL DUP2 MSTORE PUSH1 0x4 ADD PUSH2 0x39D SWAP1 PUSH2 0x203D JUMP JUMPDEST PUSH1 0x2 PUSH1 0x1 DUP2 SWAP1 SSTORE POP PUSH1 0x0 PUSH1 0x4 DUP3 DUP2 SLOAD DUP2 LT PUSH2 0x9C8 JUMPI INVALID JUMPDEST PUSH1 0x0 SWAP2 DUP3 MSTORE PUSH1 0x20 DUP1 DUP4 KECCAK256 DUP6 DUP5 MSTORE PUSH1 0x5 DUP1 DUP4 MSTORE PUSH1 0x40 DUP1 DUP7 KECCAK256 CALLER DUP8 MSTORE SWAP1 SWAP4 MSTORE SWAP2 DUP5 KECCAK256 DUP1 SLOAD SWAP5 DUP2 SSTORE PUSH1 0x6 SWAP1 SWAP4 MUL ADD SWAP1 DUP2 ADD SLOAD PUSH1 0x4 DUP3 ADD SLOAD SWAP2 SWAP5 POP SWAP2 SWAP3 SWAP2 PUSH1 0x1 PUSH1 0x1 PUSH1 0xA0 SHL SUB AND SWAP1 PUSH2 0xA16 SWAP1 DUP4 PUSH2 0x161B JUMP JUMPDEST PUSH1 0x4 DUP6 ADD SSTORE PUSH1 0x0 PUSH1 0x1 DUP5 ADD SSTORE DUP4 SLOAD PUSH2 0xA38 SWAP1 PUSH1 0x1 PUSH1 0x1 PUSH1 0xA0 SHL SUB AND CALLER DUP5 PUSH2 0x1643 JUMP JUMPDEST DUP5 CALLER PUSH1 0x1 PUSH1 0x1 PUSH1 0xA0 SHL SUB AND PUSH32 0xBB757047C2B5F3974FE26B7C10F732E7BCE710B0952A71082702781E62AE0595 DUP5 PUSH1 0x40 MLOAD PUSH2 0xA72 SWAP2 SWAP1 PUSH2 0x20FC JUMP JUMPDEST PUSH1 0x40 MLOAD DUP1 SWAP2 SUB SWAP1 LOG3 DUP1 EXTCODESIZE PUSH1 0x1 PUSH1 0x1 PUSH1 0xA0 SHL SUB DUP3 AND ISZERO DUP1 ISZERO SWAP1 PUSH2 0xA94 JUMPI POP PUSH1 0x0 DUP2 GT JUMPDEST ISZERO PUSH2 0xB25 JUMPI PUSH1 0x40 MLOAD PUSH4 0x186E4651 PUSH1 0xE3 SHL DUP2 MSTORE PUSH1 0x1 PUSH1 0x1 PUSH1 0xA0 SHL SUB DUP4 AND SWAP1 PUSH4 0xC3723288 SWAP1 PUSH2 0xAC8 SWAP1 CALLER SWAP1 PUSH1 0x0 SWAP1 PUSH1 0x4 ADD PUSH2 0x1C33 JUMP JUMPDEST PUSH1 0x0 PUSH1 0x40 MLOAD DUP1 DUP4 SUB DUP2 PUSH1 0x0 DUP8 DUP1 EXTCODESIZE ISZERO DUP1 ISZERO PUSH2 0xAE2 JUMPI PUSH1 0x0 DUP1 REVERT JUMPDEST POP GAS CALL SWAP3 POP POP POP DUP1 ISZERO PUSH2 0xAF3 JUMPI POP PUSH1 0x1 JUMPDEST PUSH2 0xB25 JUMPI PUSH1 0x40 MLOAD DUP7 SWAP1 CALLER SWAP1 PUSH32 0x685110D884797977C24F43DB4F8721134C9414C01C0B57A5384802B573BFC81E SWAP1 PUSH1 0x0 SWAP1 LOG3 JUMPDEST POP POP PUSH1 0x1 DUP1 SSTORE POP POP POP POP JUMP JUMPDEST PUSH2 0xDEAD DUP2 JUMP JUMPDEST PUSH2 0xB3F PUSH2 0x15A2 JUMP JUMPDEST PUSH1 0x1 PUSH1 0x1 PUSH1 0xA0 SHL SUB AND PUSH2 0xB50 PUSH2 0xC99 JUMP JUMPDEST PUSH1 0x1 PUSH1 0x1 PUSH1 0xA0 SHL SUB AND EQ PUSH2 0xB76 JUMPI PUSH1 0x40 MLOAD PUSH3 0x461BCD PUSH1 0xE5 SHL DUP2 MSTORE PUSH1 0x4 ADD PUSH2 0x39D SWAP1 PUSH2 0x1F26 JUMP JUMPDEST PUSH1 0x0 DUP1 SLOAD PUSH1 0x40 MLOAD PUSH1 0x1 PUSH1 0x1 PUSH1 0xA0 SHL SUB SWAP1 SWAP2 AND SWAP1 PUSH32 0x8BE0079C531659141344CD1FD0A4F28419497F9722A3DAAFE3B4186F6B6457E0 SWAP1 DUP4 SWAP1 LOG3 PUSH1 0x0 DUP1 SLOAD PUSH1 0x1 PUSH1 0x1 PUSH1 0xA0 SHL SUB NOT AND SWAP1 SSTORE JUMP JUMPDEST PUSH2 0xBC8 PUSH2 0x15A2 JUMP JUMPDEST PUSH1 0x1 PUSH1 0x1 PUSH1 0xA0 SHL SUB AND PUSH2 0xBD9 PUSH2 0xC99 JUMP JUMPDEST PUSH1 0x1 PUSH1 0x1 PUSH1 0xA0 SHL SUB AND EQ PUSH2 0xBFF JUMPI PUSH1 0x40 MLOAD PUSH3 0x461BCD PUSH1 0xE5 SHL DUP2 MSTORE PUSH1 0x4 ADD PUSH2 0x39D SWAP1 PUSH2 0x1F26 JUMP JUMPDEST PUSH9 0x56BC75E2D63100000 DUP2 LT PUSH2 0xC27 JUMPI PUSH1 0x40 MLOAD PUSH3 0x461BCD PUSH1 0xE5 SHL DUP2 MSTORE PUSH1 0x4 ADD PUSH2 0x39D SWAP1 PUSH2 0x2074 JUMP JUMPDEST PUSH2 0xC2F PUSH2 0xF42 JUMP JUMPDEST PUSH1 0x2 DUP2 SWAP1 SSTORE PUSH1 0x40 MLOAD PUSH32 0x287D8F6090BF7E554411E129912F733C4ED418A656B56C01CB61C54890109D6 SWAP1 PUSH2 0xC64 SWAP1 DUP4 SWAP1 PUSH2 0x20FC JUMP JUMPDEST PUSH1 0x40 MLOAD DUP1 SWAP2 SUB SWAP1 LOG1 POP JUMP JUMPDEST PUSH32 0x0 DUP2 JUMP JUMPDEST PUSH1 0x3 SLOAD DUP2 JUMP JUMPDEST PUSH1 0x0 SLOAD PUSH1 0x1 PUSH1 0x1 PUSH1 0xA0 SHL SUB AND SWAP1 JUMP JUMPDEST PUSH1 0x5 PUSH1 0x20 SWAP1 DUP2 MSTORE PUSH1 0x0 SWAP3 DUP4 MSTORE PUSH1 0x40 DUP1 DUP5 KECCAK256 SWAP1 SWAP2 MSTORE SWAP1 DUP3 MSTORE SWAP1 KECCAK256 DUP1 SLOAD PUSH1 0x1 SWAP1 SWAP2 ADD SLOAD DUP3 JUMP JUMPDEST PUSH1 0x0 JUMPDEST DUP2 MLOAD DUP2 LT ISZERO PUSH2 0xCFC JUMPI PUSH2 0xCF4 DUP3 DUP3 DUP2 MLOAD DUP2 LT PUSH2 0xCE7 JUMPI INVALID JUMPDEST PUSH1 0x20 MUL PUSH1 0x20 ADD ADD MLOAD PUSH2 0x751 JUMP JUMPDEST PUSH1 0x1 ADD PUSH2 0xCCF JUMP JUMPDEST POP POP JUMP JUMPDEST PUSH1 0x4 SLOAD PUSH1 0x0 SWAP1 DUP2 SWAP1 DUP5 LT PUSH2 0xD26 JUMPI PUSH1 0x40 MLOAD PUSH3 0x461BCD PUSH1 0xE5 SHL DUP2 MSTORE PUSH1 0x4 ADD PUSH2 0x39D SWAP1 PUSH2 0x1CEC JUMP JUMPDEST PUSH1 0x0 PUSH1 0x4 DUP6 DUP2 SLOAD DUP2 LT PUSH2 0xD35 JUMPI INVALID JUMPDEST PUSH1 0x0 SWAP2 DUP3 MSTORE PUSH1 0x20 DUP1 DUP4 KECCAK256 DUP9 DUP5 MSTORE PUSH1 0x5 DUP3 MSTORE PUSH1 0x40 DUP1 DUP6 KECCAK256 PUSH1 0x1 PUSH1 0x1 PUSH1 0xA0 SHL SUB DUP11 AND DUP7 MSTORE SWAP1 SWAP3 MSTORE SWAP3 KECCAK256 PUSH1 0x3 PUSH1 0x6 SWAP1 SWAP3 MUL SWAP1 SWAP3 ADD SWAP1 DUP2 ADD SLOAD PUSH1 0x4 DUP3 ADD SLOAD PUSH1 0x2 DUP4 ADD SLOAD SWAP3 SWAP5 POP SWAP1 SWAP2 TIMESTAMP DUP2 LT DUP1 ISZERO PUSH2 0xD87 JUMPI POP DUP2 ISZERO ISZERO JUMPDEST ISZERO PUSH2 0xDF6 JUMPI PUSH1 0x0 PUSH2 0xD98 DUP3 TIMESTAMP PUSH2 0x169E JUMP JUMPDEST SWAP1 POP PUSH1 0x0 PUSH2 0xDBF PUSH1 0x6 SLOAD PUSH2 0x5F7 DUP10 PUSH1 0x1 ADD SLOAD PUSH2 0x802 PUSH1 0x3 SLOAD DUP8 PUSH2 0x15A6 SWAP1 SWAP2 SWAP1 PUSH4 0xFFFFFFFF AND JUMP JUMPDEST SWAP1 POP PUSH1 0x0 PUSH2 0xDCC DUP3 PUSH2 0x16AA JUMP JUMPDEST SWAP2 POP PUSH2 0xDF0 SWAP1 POP PUSH2 0xDE9 DUP7 PUSH2 0x5F7 DUP5 PUSH8 0xDE0B6B3A7640000 PUSH2 0x15A6 JUMP JUMPDEST DUP8 SWAP1 PUSH2 0x182C JUMP JUMPDEST SWAP6 POP POP POP POP JUMPDEST PUSH2 0xE21 DUP5 PUSH1 0x1 ADD SLOAD PUSH2 0x5FD PUSH8 0xDE0B6B3A7640000 PUSH2 0x5F7 DUP8 DUP10 PUSH1 0x0 ADD SLOAD PUSH2 0x15A6 SWAP1 SWAP2 SWAP1 PUSH4 0xFFFFFFFF AND JUMP JUMPDEST PUSH1 0x5 DUP7 ADD SLOAD SWAP1 SWAP8 POP PUSH1 0x1 PUSH1 0x1 PUSH1 0xA0 SHL SUB AND DUP1 ISZERO PUSH2 0xEB9 JUMPI DUP5 SLOAD PUSH1 0x40 MLOAD PUSH4 0xF430CF0D PUSH1 0xE0 SHL DUP2 MSTORE PUSH1 0x1 PUSH1 0x1 PUSH1 0xA0 SHL SUB DUP4 AND SWAP2 PUSH4 0xF430CF0D SWAP2 PUSH2 0xE66 SWAP2 DUP14 SWAP2 PUSH1 0x4 ADD PUSH2 0x1C33 JUMP JUMPDEST PUSH1 0x20 PUSH1 0x40 MLOAD DUP1 DUP4 SUB DUP2 DUP7 DUP1 EXTCODESIZE ISZERO DUP1 ISZERO PUSH2 0xE7E JUMPI PUSH1 0x0 DUP1 REVERT JUMPDEST POP GAS STATICCALL ISZERO DUP1 ISZERO PUSH2 0xE92 JUMPI RETURNDATASIZE PUSH1 0x0 DUP1 RETURNDATACOPY RETURNDATASIZE PUSH1 0x0 REVERT JUMPDEST POP POP POP POP PUSH1 0x40 MLOAD RETURNDATASIZE PUSH1 0x1F NOT PUSH1 0x1F DUP3 ADD AND DUP3 ADD DUP1 PUSH1 0x40 MSTORE POP DUP2 ADD SWAP1 PUSH2 0xEB6 SWAP2 SWAP1 PUSH2 0x1B09 JUMP JUMPDEST SWAP7 POP JUMPDEST POP POP POP POP POP POP SWAP3 POP SWAP3 SWAP1 POP JUMP JUMPDEST PUSH2 0xECE PUSH2 0x15A2 JUMP JUMPDEST PUSH1 0x1 PUSH1 0x1 PUSH1 0xA0 SHL SUB AND PUSH2 0xEDF PUSH2 0xC99 JUMP JUMPDEST PUSH1 0x1 PUSH1 0x1 PUSH1 0xA0 SHL SUB AND EQ PUSH2 0xF05 JUMPI PUSH1 0x40 MLOAD PUSH3 0x461BCD PUSH1 0xE5 SHL DUP2 MSTORE PUSH1 0x4 ADD PUSH2 0x39D SWAP1 PUSH2 0x1F26 JUMP JUMPDEST PUSH2 0xF0D PUSH2 0xF42 JUMP JUMPDEST PUSH1 0x3 DUP2 SWAP1 SSTORE PUSH1 0x40 MLOAD PUSH32 0xBE8BC964758FB9BDFF90AB397E91E1C2EDD1BAC024F40BFA335A5A57170D987C SWAP1 PUSH2 0xC64 SWAP1 DUP4 SWAP1 PUSH2 0x20FC JUMP JUMPDEST PUSH1 0x4 SLOAD PUSH1 0x0 JUMPDEST DUP2 DUP2 LT ISZERO PUSH2 0xCFC JUMPI PUSH2 0xF59 DUP2 PUSH2 0x751 JUMP JUMPDEST PUSH1 0x1 ADD PUSH2 0xF48 JUMP JUMPDEST PUSH1 0x2 PUSH1 0x1 SLOAD EQ ISZERO PUSH2 0xF84 JUMPI PUSH1 0x40 MLOAD PUSH3 0x461BCD PUSH1 0xE5 SHL DUP2 MSTORE PUSH1 0x4 ADD PUSH2 0x39D SWAP1 PUSH2 0x203D JUMP JUMPDEST PUSH1 0x2 PUSH1 0x1 SSTORE PUSH1 0x4 SLOAD DUP3 LT PUSH2 0xFAA JUMPI PUSH1 0x40 MLOAD PUSH3 0x461BCD PUSH1 0xE5 SHL DUP2 MSTORE PUSH1 0x4 ADD PUSH2 0x39D SWAP1 PUSH2 0x1FBE JUMP JUMPDEST PUSH1 0x0 PUSH1 0x4 DUP4 DUP2 SLOAD DUP2 LT PUSH2 0xFB9 JUMPI INVALID JUMPDEST PUSH1 0x0 SWAP2 DUP3 MSTORE PUSH1 0x20 DUP1 DUP4 KECCAK256 DUP7 DUP5 MSTORE PUSH1 0x5 DUP3 MSTORE PUSH1 0x40 DUP1 DUP6 KECCAK256 CALLER DUP7 MSTORE SWAP1 SWAP3 MSTORE SWAP3 KECCAK256 PUSH1 0x6 SWAP1 SWAP2 MUL SWAP1 SWAP2 ADD SWAP2 POP PUSH2 0xFEA DUP5 PUSH2 0x751 JUMP JUMPDEST DUP1 SLOAD PUSH1 0x3 DUP4 ADD SLOAD PUSH1 0x4 DUP5 ADD SLOAD DUP3 ISZERO PUSH2 0x1056 JUMPI PUSH1 0x1 DUP5 ADD SLOAD PUSH1 0x0 SWAP1 PUSH2 0x101E SWAP1 PUSH2 0x5FD PUSH8 0xDE0B6B3A7640000 PUSH2 0x5F7 DUP9 DUP9 PUSH2 0x15A6 JUMP JUMPDEST SWAP1 POP PUSH2 0x1054 PUSH1 0x1 PUSH1 0x1 PUSH1 0xA0 SHL SUB PUSH32 0x0 AND CALLER DUP4 PUSH2 0x1643 JUMP JUMPDEST POP JUMPDEST DUP6 ISZERO PUSH2 0x108F JUMPI DUP5 SLOAD PUSH2 0x1073 SWAP1 PUSH1 0x1 PUSH1 0x1 PUSH1 0xA0 SHL SUB AND CALLER ADDRESS DUP10 PUSH2 0x1851 JUMP JUMPDEST PUSH2 0x107D DUP4 DUP8 PUSH2 0x182C JUMP JUMPDEST DUP5 SSTORE PUSH2 0x1089 DUP2 DUP8 PUSH2 0x182C JUMP JUMPDEST PUSH1 0x4 DUP7 ADD SSTORE JUMPDEST DUP4 SLOAD PUSH1 0x5 DUP7 ADD SLOAD SWAP1 SWAP4 POP PUSH1 0x1 PUSH1 0x1 PUSH1 0xA0 SHL SUB AND DUP1 ISZERO PUSH2 0x1109 JUMPI PUSH1 0x40 MLOAD PUSH4 0x186E4651 PUSH1 0xE3 SHL DUP2 MSTORE PUSH1 0x1 PUSH1 0x1 PUSH1 0xA0 SHL SUB DUP3 AND SWAP1 PUSH4 0xC3723288 SWAP1 PUSH2 0x10D6 SWAP1 CALLER SWAP1 DUP9 SWAP1 PUSH1 0x4 ADD PUSH2 0x1C33 JUMP JUMPDEST PUSH1 0x0 PUSH1 0x40 MLOAD DUP1 DUP4 SUB DUP2 PUSH1 0x0 DUP8 DUP1 EXTCODESIZE ISZERO DUP1 ISZERO PUSH2 0x10F0 JUMPI PUSH1 0x0 DUP1 REVERT JUMPDEST POP GAS CALL ISZERO DUP1 ISZERO PUSH2 0x1104 JUMPI RETURNDATASIZE PUSH1 0x0 DUP1 RETURNDATACOPY RETURNDATASIZE PUSH1 0x0 REVERT JUMPDEST POP POP POP POP JUMPDEST PUSH2 0x111F PUSH8 0xDE0B6B3A7640000 PUSH2 0x5F7 DUP7 DUP7 PUSH2 0x15A6 JUMP JUMPDEST PUSH1 0x1 DUP7 ADD SSTORE PUSH1 0x40 MLOAD DUP9 SWAP1 CALLER SWAP1 PUSH32 0x90890809C654F11D6E72A28FA60149770A0D11EC6C92319D6CEB2BB0A4EA1A15 SWAP1 PUSH2 0x73B SWAP1 DUP12 SWAP1 PUSH2 0x20FC JUMP JUMPDEST PUSH2 0x1160 PUSH2 0x15A2 JUMP JUMPDEST PUSH1 0x1 PUSH1 0x1 PUSH1 0xA0 SHL SUB AND PUSH2 0x1171 PUSH2 0xC99 JUMP JUMPDEST PUSH1 0x1 PUSH1 0x1 PUSH1 0xA0 SHL SUB AND EQ PUSH2 0x1197 JUMPI PUSH1 0x40 MLOAD PUSH3 0x461BCD PUSH1 0xE5 SHL DUP2 MSTORE PUSH1 0x4 ADD PUSH2 0x39D SWAP1 PUSH2 0x1F26 JUMP JUMPDEST PUSH1 0x4 SLOAD DUP4 LT PUSH2 0x11B8 JUMPI PUSH1 0x40 MLOAD PUSH3 0x461BCD PUSH1 0xE5 SHL DUP2 MSTORE PUSH1 0x4 ADD PUSH2 0x39D SWAP1 PUSH2 0x1CB7 JUMP JUMPDEST PUSH2 0x11C0 PUSH2 0xF42 JUMP JUMPDEST PUSH2 0x11F7 PUSH1 0x4 DUP5 DUP2 SLOAD DUP2 LT PUSH2 0x11D0 JUMPI INVALID JUMPDEST SWAP1 PUSH1 0x0 MSTORE PUSH1 0x20 PUSH1 0x0 KECCAK256 SWAP1 PUSH1 0x6 MUL ADD PUSH1 0x1 ADD SLOAD PUSH2 0x5FD DUP5 PUSH1 0x6 SLOAD PUSH2 0x182C SWAP1 SWAP2 SWAP1 PUSH4 0xFFFFFFFF AND JUMP JUMPDEST PUSH1 0x6 DUP2 SWAP1 SSTORE POP DUP2 PUSH1 0x4 DUP5 DUP2 SLOAD DUP2 LT PUSH2 0x120B JUMPI INVALID JUMPDEST SWAP1 PUSH1 0x0 MSTORE PUSH1 0x20 PUSH1 0x0 KECCAK256 SWAP1 PUSH1 0x6 MUL ADD PUSH1 0x1 ADD DUP2 SWAP1 SSTORE POP DUP1 PUSH1 0x4 DUP5 DUP2 SLOAD DUP2 LT PUSH2 0x122E JUMPI INVALID JUMPDEST SWAP1 PUSH1 0x0 MSTORE PUSH1 0x20 PUSH1 0x0 KECCAK256 SWAP1 PUSH1 0x6 MUL ADD PUSH1 0x5 ADD PUSH1 0x0 PUSH2 0x100 EXP DUP2 SLOAD DUP2 PUSH1 0x1 PUSH1 0x1 PUSH1 0xA0 SHL SUB MUL NOT AND SWAP1 DUP4 PUSH1 0x1 PUSH1 0x1 PUSH1 0xA0 SHL SUB AND MUL OR SWAP1 SSTORE POP DUP3 PUSH32 0xD2737CC1F8A3945197FCCDABF17F907B8E22EE474654FD0F656FC4DCF1D6A624 DUP4 DUP4 PUSH1 0x40 MLOAD PUSH2 0x1295 SWAP3 SWAP2 SWAP1 PUSH2 0x2105 JUMP JUMPDEST PUSH1 0x40 MLOAD DUP1 SWAP2 SUB SWAP1 LOG2 POP POP POP JUMP JUMPDEST PUSH2 0x12AA PUSH2 0x15A2 JUMP JUMPDEST PUSH1 0x1 PUSH1 0x1 PUSH1 0xA0 SHL SUB AND PUSH2 0x12BB PUSH2 0xC99 JUMP JUMPDEST PUSH1 0x1 PUSH1 0x1 PUSH1 0xA0 SHL SUB AND EQ PUSH2 0x12E1 JUMPI PUSH1 0x40 MLOAD PUSH3 0x461BCD PUSH1 0xE5 SHL DUP2 MSTORE PUSH1 0x4 ADD PUSH2 0x39D SWAP1 PUSH2 0x1F26 JUMP JUMPDEST PUSH1 0x1 PUSH1 0x1 PUSH1 0xA0 SHL SUB DUP2 AND PUSH2 0x1307 JUMPI PUSH1 0x40 MLOAD PUSH3 0x461BCD PUSH1 0xE5 SHL DUP2 MSTORE PUSH1 0x4 ADD PUSH2 0x39D SWAP1 PUSH2 0x1D32 JUMP JUMPDEST PUSH1 0x0 DUP1 SLOAD PUSH1 0x40 MLOAD PUSH1 0x1 PUSH1 0x1 PUSH1 0xA0 SHL SUB DUP1 DUP6 AND SWAP4 SWAP3 AND SWAP2 PUSH32 0x8BE0079C531659141344CD1FD0A4F28419497F9722A3DAAFE3B4186F6B6457E0 SWAP2 LOG3 PUSH1 0x0 DUP1 SLOAD PUSH1 0x1 PUSH1 0x1 PUSH1 0xA0 SHL SUB NOT AND PUSH1 0x1 PUSH1 0x1 PUSH1 0xA0 SHL SUB SWAP3 SWAP1 SWAP3 AND SWAP2 SWAP1 SWAP2 OR SWAP1 SSTORE JUMP JUMPDEST PUSH2 0x136A PUSH2 0x15A2 JUMP JUMPDEST PUSH1 0x1 PUSH1 0x1 PUSH1 0xA0 SHL SUB AND PUSH2 0x137B PUSH2 0xC99 JUMP JUMPDEST PUSH1 0x1 PUSH1 0x1 PUSH1 0xA0 SHL SUB AND EQ PUSH2 0x13A1 JUMPI PUSH1 0x40 MLOAD PUSH3 0x461BCD PUSH1 0xE5 SHL DUP2 MSTORE PUSH1 0x4 ADD PUSH2 0x39D SWAP1 PUSH2 0x1F26 JUMP JUMPDEST PUSH2 0x13A9 PUSH2 0xF42 JUMP JUMPDEST PUSH1 0x0 PUSH32 0x0 TIMESTAMP GT PUSH2 0x13F8 JUMPI PUSH32 0x0 PUSH2 0x13FA JUMP JUMPDEST TIMESTAMP JUMPDEST PUSH1 0x6 SLOAD SWAP1 SWAP2 POP PUSH2 0x140A SWAP1 DUP6 PUSH2 0x182C JUMP JUMPDEST PUSH1 0x6 SWAP1 DUP2 SSTORE PUSH1 0x40 DUP1 MLOAD PUSH1 0xC0 DUP2 ADD DUP3 MSTORE PUSH1 0x1 PUSH1 0x1 PUSH1 0xA0 SHL SUB DUP1 DUP8 AND DUP3 MSTORE PUSH1 0x20 DUP3 ADD DUP9 DUP2 MSTORE DUP3 DUP5 ADD DUP7 DUP2 MSTORE PUSH1 0x0 PUSH1 0x60 DUP6 ADD DUP2 DUP2 MSTORE PUSH1 0x80 DUP7 ADD DUP3 DUP2 MSTORE DUP11 DUP7 AND PUSH1 0xA0 DUP9 ADD SWAP1 DUP2 MSTORE PUSH1 0x4 DUP1 SLOAD PUSH1 0x1 DUP2 ADD DUP3 SSTORE SWAP5 MSTORE SWAP7 MLOAD SWAP3 SWAP1 SWAP9 MUL PUSH32 0x8A35ACFBC15FF81A39AE7D344FD709F28E8600B4AA8C65C6B64BFE7FE36BD19B DUP2 ADD DUP1 SLOAD SWAP4 DUP8 AND PUSH1 0x1 PUSH1 0x1 PUSH1 0xA0 SHL SUB NOT SWAP5 DUP6 AND OR SWAP1 SSTORE SWAP4 MLOAD PUSH32 0x8A35ACFBC15FF81A39AE7D344FD709F28E8600B4AA8C65C6B64BFE7FE36BD19C DUP6 ADD SSTORE SWAP2 MLOAD PUSH32 0x8A35ACFBC15FF81A39AE7D344FD709F28E8600B4AA8C65C6B64BFE7FE36BD19D DUP5 ADD SSTORE SWAP1 MLOAD PUSH32 0x8A35ACFBC15FF81A39AE7D344FD709F28E8600B4AA8C65C6B64BFE7FE36BD19E DUP4 ADD SSTORE SWAP5 MLOAD PUSH32 0x8A35ACFBC15FF81A39AE7D344FD709F28E8600B4AA8C65C6B64BFE7FE36BD19F DUP3 ADD SSTORE SWAP2 MLOAD PUSH32 0x8A35ACFBC15FF81A39AE7D344FD709F28E8600B4AA8C65C6B64BFE7FE36BD1A0 SWAP1 SWAP3 ADD DUP1 SLOAD SWAP3 SWAP1 SWAP2 AND SWAP2 SWAP1 SWAP4 AND OR SWAP1 SWAP2 SSTORE MLOAD PUSH32 0x1A43E4121268B689E564F3CA4B347E76E6A182AFBD688A8AE883A62D09396428 SWAP1 PUSH2 0x1594 SWAP1 DUP7 SWAP1 DUP7 SWAP1 DUP7 SWAP1 PUSH2 0x211C JUMP JUMPDEST PUSH1 0x40 MLOAD DUP1 SWAP2 SUB SWAP1 LOG1 POP POP POP POP JUMP JUMPDEST CALLER SWAP1 JUMP JUMPDEST PUSH1 0x0 DUP3 PUSH2 0x15B5 JUMPI POP PUSH1 0x0 PUSH2 0x15E3 JUMP JUMPDEST DUP3 DUP3 MUL DUP3 DUP5 DUP3 DUP2 PUSH2 0x15C2 JUMPI INVALID JUMPDEST DIV EQ PUSH2 0x15E0 JUMPI PUSH1 0x40 MLOAD PUSH3 0x461BCD PUSH1 0xE5 SHL DUP2 MSTORE PUSH1 0x4 ADD PUSH2 0x39D SWAP1 PUSH2 0x1EE5 JUMP JUMPDEST SWAP1 POP JUMPDEST SWAP3 SWAP2 POP POP JUMP JUMPDEST PUSH1 0x0 DUP1 DUP3 GT PUSH2 0x160A JUMPI PUSH1 0x40 MLOAD PUSH3 0x461BCD PUSH1 0xE5 SHL DUP2 MSTORE PUSH1 0x4 ADD PUSH2 0x39D SWAP1 PUSH2 0x1E79 JUMP JUMPDEST DUP2 DUP4 DUP2 PUSH2 0x1613 JUMPI INVALID JUMPDEST DIV SWAP4 SWAP3 POP POP POP JUMP JUMPDEST PUSH1 0x0 DUP3 DUP3 GT ISZERO PUSH2 0x163D JUMPI PUSH1 0x40 MLOAD PUSH3 0x461BCD PUSH1 0xE5 SHL DUP2 MSTORE PUSH1 0x4 ADD PUSH2 0x39D SWAP1 PUSH2 0x1DAF JUMP JUMPDEST POP SWAP1 SUB SWAP1 JUMP JUMPDEST PUSH2 0x1699 DUP4 PUSH4 0xA9059CBB PUSH1 0xE0 SHL DUP5 DUP5 PUSH1 0x40 MLOAD PUSH1 0x24 ADD PUSH2 0x1662 SWAP3 SWAP2 SWAP1 PUSH2 0x1C33 JUMP JUMPDEST PUSH1 0x40 DUP1 MLOAD PUSH1 0x1F NOT DUP2 DUP5 SUB ADD DUP2 MSTORE SWAP2 SWAP1 MSTORE PUSH1 0x20 DUP2 ADD DUP1 MLOAD PUSH1 0x1 PUSH1 0x1 PUSH1 0xE0 SHL SUB AND PUSH1 0x1 PUSH1 0x1 PUSH1 0xE0 SHL SUB NOT SWAP1 SWAP4 AND SWAP3 SWAP1 SWAP3 OR SWAP1 SWAP2 MSTORE PUSH2 0x1878 JUMP JUMPDEST POP POP POP JUMP JUMPDEST PUSH1 0x0 PUSH2 0x15E0 DUP3 DUP5 PUSH2 0x161B JUMP JUMPDEST PUSH1 0x0 DUP1 PUSH1 0x0 PUSH32 0x0 PUSH1 0x1 PUSH1 0x1 PUSH1 0xA0 SHL SUB AND PUSH4 0x18160DDD PUSH1 0x40 MLOAD DUP2 PUSH4 0xFFFFFFFF AND PUSH1 0xE0 SHL DUP2 MSTORE PUSH1 0x4 ADD PUSH1 0x20 PUSH1 0x40 MLOAD DUP1 DUP4 SUB DUP2 DUP7 DUP1 EXTCODESIZE ISZERO DUP1 ISZERO PUSH2 0x1708 JUMPI PUSH1 0x0 DUP1 REVERT JUMPDEST POP GAS STATICCALL ISZERO DUP1 ISZERO PUSH2 0x171C JUMPI RETURNDATASIZE PUSH1 0x0 DUP1 RETURNDATACOPY RETURNDATASIZE PUSH1 0x0 REVERT JUMPDEST POP POP POP POP PUSH1 0x40 MLOAD RETURNDATASIZE PUSH1 0x1F NOT PUSH1 0x1F DUP3 ADD AND DUP3 ADD DUP1 PUSH1 0x40 MSTORE POP DUP2 ADD SWAP1 PUSH2 0x1740 SWAP2 SWAP1 PUSH2 0x1B09 JUMP JUMPDEST SWAP1 POP PUSH1 0x0 PUSH32 0x0 PUSH1 0x1 PUSH1 0x1 PUSH1 0xA0 SHL SUB AND PUSH4 0xD5ABEB01 PUSH1 0x40 MLOAD DUP2 PUSH4 0xFFFFFFFF AND PUSH1 0xE0 SHL DUP2 MSTORE PUSH1 0x4 ADD PUSH1 0x20 PUSH1 0x40 MLOAD DUP1 DUP4 SUB DUP2 DUP7 DUP1 EXTCODESIZE ISZERO DUP1 ISZERO PUSH2 0x179D JUMPI PUSH1 0x0 DUP1 REVERT JUMPDEST POP GAS STATICCALL ISZERO DUP1 ISZERO PUSH2 0x17B1 JUMPI RETURNDATASIZE PUSH1 0x0 DUP1 RETURNDATACOPY RETURNDATASIZE PUSH1 0x0 REVERT JUMPDEST POP POP POP POP PUSH1 0x40 MLOAD RETURNDATASIZE PUSH1 0x1F NOT PUSH1 0x1F DUP3 ADD AND DUP3 ADD DUP1 PUSH1 0x40 MSTORE POP DUP2 ADD SWAP1 PUSH2 0x17D5 SWAP2 SWAP1 PUSH2 0x1B09 JUMP JUMPDEST SWAP1 POP PUSH2 0x17E1 DUP3 DUP7 PUSH2 0x182C JUMP JUMPDEST DUP2 LT ISZERO PUSH2 0x17F5 JUMPI PUSH2 0x17F2 DUP2 DUP4 PUSH2 0x161B JUMP JUMPDEST SWAP5 POP JUMPDEST PUSH2 0x1817 PUSH9 0x56BC75E2D63100000 PUSH2 0x5F7 PUSH1 0x2 SLOAD DUP9 PUSH2 0x15A6 SWAP1 SWAP2 SWAP1 PUSH4 0xFFFFFFFF AND JUMP JUMPDEST SWAP4 POP PUSH2 0x1823 DUP6 DUP6 PUSH2 0x161B JUMP JUMPDEST SWAP3 POP POP POP SWAP2 POP SWAP2 JUMP JUMPDEST PUSH1 0x0 DUP3 DUP3 ADD DUP4 DUP2 LT ISZERO PUSH2 0x15E0 JUMPI PUSH1 0x40 MLOAD PUSH3 0x461BCD PUSH1 0xE5 SHL DUP2 MSTORE PUSH1 0x4 ADD PUSH2 0x39D SWAP1 PUSH2 0x1D78 JUMP JUMPDEST PUSH2 0x1872 DUP5 PUSH4 0x23B872DD PUSH1 0xE0 SHL DUP6 DUP6 DUP6 PUSH1 0x40 MLOAD PUSH1 0x24 ADD PUSH2 0x1662 SWAP4 SWAP3 SWAP2 SWAP1 PUSH2 0x1C0F JUMP JUMPDEST POP POP POP POP JUMP JUMPDEST PUSH1 0x60 PUSH2 0x18CD DUP3 PUSH1 0x40 MLOAD DUP1 PUSH1 0x40 ADD PUSH1 0x40 MSTORE DUP1 PUSH1 0x20 DUP2 MSTORE PUSH1 0x20 ADD PUSH32 0x5361666545524332303A206C6F772D6C6576656C2063616C6C206661696C6564 DUP2 MSTORE POP DUP6 PUSH1 0x1 PUSH1 0x1 PUSH1 0xA0 SHL SUB AND PUSH2 0x1907 SWAP1 SWAP3 SWAP2 SWAP1 PUSH4 0xFFFFFFFF AND JUMP JUMPDEST DUP1 MLOAD SWAP1 SWAP2 POP ISZERO PUSH2 0x1699 JUMPI DUP1 DUP1 PUSH1 0x20 ADD SWAP1 MLOAD DUP2 ADD SWAP1 PUSH2 0x18EB SWAP2 SWAP1 PUSH2 0x1AD1 JUMP JUMPDEST PUSH2 0x1699 JUMPI PUSH1 0x40 MLOAD PUSH3 0x461BCD PUSH1 0xE5 SHL DUP2 MSTORE PUSH1 0x4 ADD PUSH2 0x39D SWAP1 PUSH2 0x1FF3 JUMP JUMPDEST PUSH1 0x60 PUSH2 0x1916 DUP5 DUP5 PUSH1 0x0 DUP6 PUSH2 0x1920 JUMP JUMPDEST SWAP1 POP JUMPDEST SWAP4 SWAP3 POP POP POP JUMP JUMPDEST PUSH1 0x60 DUP3 SELFBALANCE LT ISZERO PUSH2 0x1942 JUMPI PUSH1 0x40 MLOAD PUSH3 0x461BCD PUSH1 0xE5 SHL DUP2 MSTORE PUSH1 0x4 ADD PUSH2 0x39D SWAP1 PUSH2 0x1E33 JUMP JUMPDEST PUSH2 0x194B DUP6 PUSH2 0x19E1 JUMP JUMPDEST PUSH2 0x1967 JUMPI PUSH1 0x40 MLOAD PUSH3 0x461BCD PUSH1 0xE5 SHL DUP2 MSTORE PUSH1 0x4 ADD PUSH2 0x39D SWAP1 PUSH2 0x1F87 JUMP JUMPDEST PUSH1 0x0 PUSH1 0x60 DUP7 PUSH1 0x1 PUSH1 0x1 PUSH1 0xA0 SHL SUB AND DUP6 DUP8 PUSH1 0x40 MLOAD PUSH2 0x1984 SWAP2 SWAP1 PUSH2 0x1BDF JUMP JUMPDEST PUSH1 0x0 PUSH1 0x40 MLOAD DUP1 DUP4 SUB DUP2 DUP6 DUP8 GAS CALL SWAP3 POP POP POP RETURNDATASIZE DUP1 PUSH1 0x0 DUP2 EQ PUSH2 0x19C1 JUMPI PUSH1 0x40 MLOAD SWAP2 POP PUSH1 0x1F NOT PUSH1 0x3F RETURNDATASIZE ADD AND DUP3 ADD PUSH1 0x40 MSTORE RETURNDATASIZE DUP3 MSTORE RETURNDATASIZE PUSH1 0x0 PUSH1 0x20 DUP5 ADD RETURNDATACOPY PUSH2 0x19C6 JUMP JUMPDEST PUSH1 0x60 SWAP2 POP JUMPDEST POP SWAP2 POP SWAP2 POP PUSH2 0x19D6 DUP3 DUP3 DUP7 PUSH2 0x19E7 JUMP JUMPDEST SWAP8 SWAP7 POP POP POP POP POP POP POP JUMP JUMPDEST EXTCODESIZE ISZERO ISZERO SWAP1 JUMP JUMPDEST PUSH1 0x60 DUP4 ISZERO PUSH2 0x19F6 JUMPI POP DUP2 PUSH2 0x1919 JUMP JUMPDEST DUP3 MLOAD ISZERO PUSH2 0x1A06 JUMPI DUP3 MLOAD DUP1 DUP5 PUSH1 0x20 ADD REVERT JUMPDEST DUP2 PUSH1 0x40 MLOAD PUSH3 0x461BCD PUSH1 0xE5 SHL DUP2 MSTORE PUSH1 0x4 ADD PUSH2 0x39D SWAP2 SWAP1 PUSH2 0x1C84 JUMP JUMPDEST PUSH1 0x0 PUSH1 0x20 DUP3 DUP5 SUB SLT ISZERO PUSH2 0x1A31 JUMPI DUP1 DUP2 REVERT JUMPDEST DUP2 CALLDATALOAD PUSH2 0x15E0 DUP2 PUSH2 0x21BC JUMP JUMPDEST PUSH1 0x0 PUSH1 0x20 DUP1 DUP4 DUP6 SUB SLT ISZERO PUSH2 0x1A4E JUMPI DUP2 DUP3 REVERT JUMPDEST DUP3 CALLDATALOAD PUSH8 0xFFFFFFFFFFFFFFFF DUP2 GT ISZERO PUSH2 0x1A64 JUMPI DUP3 DUP4 REVERT JUMPDEST DUP4 ADD PUSH1 0x1F DUP2 ADD DUP6 SGT PUSH2 0x1A74 JUMPI DUP3 DUP4 REVERT JUMPDEST DUP1 CALLDATALOAD PUSH2 0x1A87 PUSH2 0x1A82 DUP3 PUSH2 0x2170 JUMP JUMPDEST PUSH2 0x2149 JUMP JUMPDEST DUP2 DUP2 MSTORE DUP4 DUP2 ADD SWAP1 DUP4 DUP6 ADD DUP6 DUP5 MUL DUP6 ADD DUP7 ADD DUP10 LT ISZERO PUSH2 0x1AA3 JUMPI DUP7 DUP8 REVERT JUMPDEST DUP7 SWAP5 POP JUMPDEST DUP4 DUP6 LT ISZERO PUSH2 0x1AC5 JUMPI DUP1 CALLDATALOAD DUP4 MSTORE PUSH1 0x1 SWAP5 SWAP1 SWAP5 ADD SWAP4 SWAP2 DUP6 ADD SWAP2 DUP6 ADD PUSH2 0x1AA7 JUMP JUMPDEST POP SWAP8 SWAP7 POP POP POP POP POP POP POP JUMP JUMPDEST PUSH1 0x0 PUSH1 0x20 DUP3 DUP5 SUB SLT ISZERO PUSH2 0x1AE2 JUMPI DUP1 DUP2 REVERT JUMPDEST DUP2 MLOAD DUP1 ISZERO ISZERO DUP2 EQ PUSH2 0x15E0 JUMPI DUP2 DUP3 REVERT JUMPDEST PUSH1 0x0 PUSH1 0x20 DUP3 DUP5 SUB SLT ISZERO PUSH2 0x1B02 JUMPI DUP1 DUP2 REVERT JUMPDEST POP CALLDATALOAD SWAP2 SWAP1 POP JUMP JUMPDEST PUSH1 0x0 PUSH1 0x20 DUP3 DUP5 SUB SLT ISZERO PUSH2 0x1B1A JUMPI DUP1 DUP2 REVERT JUMPDEST POP MLOAD SWAP2 SWAP1 POP JUMP JUMPDEST PUSH1 0x0 DUP1 PUSH1 0x40 DUP4 DUP6 SUB SLT ISZERO PUSH2 0x1B33 JUMPI DUP1 DUP2 REVERT JUMPDEST DUP3 CALLDATALOAD SWAP2 POP PUSH1 0x20 DUP4 ADD CALLDATALOAD PUSH2 0x1B45 DUP2 PUSH2 0x21BC JUMP JUMPDEST DUP1 SWAP2 POP POP SWAP3 POP SWAP3 SWAP1 POP JUMP JUMPDEST PUSH1 0x0 DUP1 PUSH1 0x0 PUSH1 0x60 DUP5 DUP7 SUB SLT ISZERO PUSH2 0x1B64 JUMPI DUP1 DUP2 REVERT JUMPDEST DUP4 CALLDATALOAD SWAP3 POP PUSH1 0x20 DUP5 ADD CALLDATALOAD PUSH2 0x1B76 DUP2 PUSH2 0x21BC JUMP JUMPDEST SWAP2 POP PUSH1 0x40 DUP5 ADD CALLDATALOAD PUSH2 0x1B86 DUP2 PUSH2 0x21BC JUMP JUMPDEST DUP1 SWAP2 POP POP SWAP3 POP SWAP3 POP SWAP3 JUMP JUMPDEST PUSH1 0x0 DUP1 PUSH1 0x40 DUP4 DUP6 SUB SLT ISZERO PUSH2 0x1BA3 JUMPI DUP2 DUP3 REVERT JUMPDEST POP POP DUP1 CALLDATALOAD SWAP3 PUSH1 0x20 SWAP1 SWAP2 ADD CALLDATALOAD SWAP2 POP JUMP JUMPDEST PUSH1 0x0 DUP1 PUSH1 0x0 PUSH1 0x60 DUP5 DUP7 SUB SLT ISZERO PUSH2 0x1BC6 JUMPI DUP3 DUP4 REVERT JUMPDEST DUP4 CALLDATALOAD SWAP3 POP PUSH1 0x20 DUP5 ADD CALLDATALOAD SWAP2 POP PUSH1 0x40 DUP5 ADD CALLDATALOAD PUSH2 0x1B86 DUP2 PUSH2 0x21BC JUMP JUMPDEST PUSH1 0x0 DUP3 MLOAD PUSH2 0x1BF1 DUP2 DUP5 PUSH1 0x20 DUP8 ADD PUSH2 0x2190 JUMP JUMPDEST SWAP2 SWAP1 SWAP2 ADD SWAP3 SWAP2 POP POP JUMP JUMPDEST PUSH1 0x1 PUSH1 0x1 PUSH1 0xA0 SHL SUB SWAP2 SWAP1 SWAP2 AND DUP2 MSTORE PUSH1 0x20 ADD SWAP1 JUMP JUMPDEST PUSH1 0x1 PUSH1 0x1 PUSH1 0xA0 SHL SUB SWAP4 DUP5 AND DUP2 MSTORE SWAP2 SWAP1 SWAP3 AND PUSH1 0x20 DUP3 ADD MSTORE PUSH1 0x40 DUP2 ADD SWAP2 SWAP1 SWAP2 MSTORE PUSH1 0x60 ADD SWAP1 JUMP JUMPDEST PUSH1 0x1 PUSH1 0x1 PUSH1 0xA0 SHL SUB SWAP3 SWAP1 SWAP3 AND DUP3 MSTORE PUSH1 0x20 DUP3 ADD MSTORE PUSH1 0x40 ADD SWAP1 JUMP JUMPDEST PUSH1 0x1 PUSH1 0x1 PUSH1 0xA0 SHL SUB SWAP7 DUP8 AND DUP2 MSTORE PUSH1 0x20 DUP2 ADD SWAP6 SWAP1 SWAP6 MSTORE PUSH1 0x40 DUP6 ADD SWAP4 SWAP1 SWAP4 MSTORE PUSH1 0x60 DUP5 ADD SWAP2 SWAP1 SWAP2 MSTORE PUSH1 0x80 DUP4 ADD MSTORE SWAP1 SWAP2 AND PUSH1 0xA0 DUP3 ADD MSTORE PUSH1 0xC0 ADD SWAP1 JUMP JUMPDEST PUSH1 0x0 PUSH1 0x20 DUP3 MSTORE DUP3 MLOAD DUP1 PUSH1 0x20 DUP5 ADD MSTORE PUSH2 0x1CA3 DUP2 PUSH1 0x40 DUP6 ADD PUSH1 0x20 DUP8 ADD PUSH2 0x2190 JUMP JUMPDEST PUSH1 0x1F ADD PUSH1 0x1F NOT AND SWAP2 SWAP1 SWAP2 ADD PUSH1 0x40 ADD SWAP3 SWAP2 POP POP JUMP JUMPDEST PUSH1 0x20 DUP1 DUP3 MSTORE DUP2 DUP2 ADD MSTORE PUSH32 0x736574506F6F6C3A2054686520706F6F6C20646F6573206E6F74206578697374 PUSH1 0x40 DUP3 ADD MSTORE PUSH1 0x60 ADD SWAP1 JUMP JUMPDEST PUSH1 0x20 DUP1 DUP3 MSTORE PUSH1 0x26 SWAP1 DUP3 ADD MSTORE PUSH32 0x70656E64696E675265776172643A2054686520706F6F6C20646F6573206E6F74 PUSH1 0x40 DUP3 ADD MSTORE PUSH6 0x8195E1A5CDD PUSH1 0xD2 SHL PUSH1 0x60 DUP3 ADD MSTORE PUSH1 0x80 ADD SWAP1 JUMP JUMPDEST PUSH1 0x20 DUP1 DUP3 MSTORE PUSH1 0x26 SWAP1 DUP3 ADD MSTORE PUSH32 0x4F776E61626C653A206E6577206F776E657220697320746865207A65726F2061 PUSH1 0x40 DUP3 ADD MSTORE PUSH6 0x646472657373 PUSH1 0xD0 SHL PUSH1 0x60 DUP3 ADD MSTORE PUSH1 0x80 ADD SWAP1 JUMP JUMPDEST PUSH1 0x20 DUP1 DUP3 MSTORE PUSH1 0x1B SWAP1 DUP3 ADD MSTORE PUSH32 0x536166654D6174683A206164646974696F6E206F766572666C6F770000000000 PUSH1 0x40 DUP3 ADD MSTORE PUSH1 0x60 ADD SWAP1 JUMP JUMPDEST PUSH1 0x20 DUP1 DUP3 MSTORE PUSH1 0x1E SWAP1 DUP3 ADD MSTORE PUSH32 0x536166654D6174683A207375627472616374696F6E206F766572666C6F770000 PUSH1 0x40 DUP3 ADD MSTORE PUSH1 0x60 ADD SWAP1 JUMP JUMPDEST PUSH1 0x20 DUP1 DUP3 MSTORE PUSH1 0x2D SWAP1 DUP3 ADD MSTORE PUSH32 0x736574426F6E7573456D697373696F6E526174653A2054686520706F6F6C2064 PUSH1 0x40 DUP3 ADD MSTORE PUSH13 0x1BD95CC81B9BDD08195E1A5CDD PUSH1 0x9A SHL PUSH1 0x60 DUP3 ADD MSTORE PUSH1 0x80 ADD SWAP1 JUMP JUMPDEST PUSH1 0x20 DUP1 DUP3 MSTORE PUSH1 0x26 SWAP1 DUP3 ADD MSTORE PUSH32 0x416464726573733A20696E73756666696369656E742062616C616E636520666F PUSH1 0x40 DUP3 ADD MSTORE PUSH6 0x1C8818D85B1B PUSH1 0xD2 SHL PUSH1 0x60 DUP3 ADD MSTORE PUSH1 0x80 ADD SWAP1 JUMP JUMPDEST PUSH1 0x20 DUP1 DUP3 MSTORE PUSH1 0x1A SWAP1 DUP3 ADD MSTORE PUSH32 0x536166654D6174683A206469766973696F6E206279207A65726F000000000000 PUSH1 0x40 DUP3 ADD MSTORE PUSH1 0x60 ADD SWAP1 JUMP JUMPDEST PUSH1 0x20 DUP1 DUP3 MSTORE DUP2 DUP2 ADD MSTORE PUSH32 0x77697468647261773A2045786365656465642075736572277320616D6F756E74 PUSH1 0x40 DUP3 ADD MSTORE PUSH1 0x60 ADD SWAP1 JUMP JUMPDEST PUSH1 0x20 DUP1 DUP3 MSTORE PUSH1 0x21 SWAP1 DUP3 ADD MSTORE PUSH32 0x536166654D6174683A206D756C7469706C69636174696F6E206F766572666C6F PUSH1 0x40 DUP3 ADD MSTORE PUSH1 0x77 PUSH1 0xF8 SHL PUSH1 0x60 DUP3 ADD MSTORE PUSH1 0x80 ADD SWAP1 JUMP JUMPDEST PUSH1 0x20 DUP1 DUP3 MSTORE DUP2 DUP2 ADD MSTORE PUSH32 0x4F776E61626C653A2063616C6C6572206973206E6F7420746865206F776E6572 PUSH1 0x40 DUP3 ADD MSTORE PUSH1 0x60 ADD SWAP1 JUMP JUMPDEST PUSH1 0x20 DUP1 DUP3 MSTORE PUSH1 0x12 SWAP1 DUP3 ADD MSTORE PUSH18 0x1DDA5D1A191C985DCE88109051081413D3D3 PUSH1 0x72 SHL PUSH1 0x40 DUP3 ADD MSTORE PUSH1 0x60 ADD SWAP1 JUMP JUMPDEST PUSH1 0x20 DUP1 DUP3 MSTORE PUSH1 0x1D SWAP1 DUP3 ADD MSTORE PUSH32 0x416464726573733A2063616C6C20746F206E6F6E2D636F6E7472616374000000 PUSH1 0x40 DUP3 ADD MSTORE PUSH1 0x60 ADD SWAP1 JUMP JUMPDEST PUSH1 0x20 DUP1 DUP3 MSTORE DUP2 DUP2 ADD MSTORE PUSH32 0x6465706F7369743A2054686520706F6F6C20646F6573206E6F74206578697374 PUSH1 0x40 DUP3 ADD MSTORE PUSH1 0x60 ADD SWAP1 JUMP JUMPDEST PUSH1 0x20 DUP1 DUP3 MSTORE PUSH1 0x2A SWAP1 DUP3 ADD MSTORE PUSH32 0x5361666545524332303A204552433230206F7065726174696F6E20646964206E PUSH1 0x40 DUP3 ADD MSTORE PUSH10 0x1BDD081CDD58D8D95959 PUSH1 0xB2 SHL PUSH1 0x60 DUP3 ADD MSTORE PUSH1 0x80 ADD SWAP1 JUMP JUMPDEST PUSH1 0x20 DUP1 DUP3 MSTORE PUSH1 0x1F SWAP1 DUP3 ADD MSTORE PUSH32 0x5265656E7472616E637947756172643A207265656E7472616E742063616C6C00 PUSH1 0x40 DUP3 ADD MSTORE PUSH1 0x60 ADD SWAP1 JUMP JUMPDEST PUSH1 0x20 DUP1 DUP3 MSTORE PUSH1 0x25 SWAP1 DUP3 ADD MSTORE PUSH32 0x73657450657263656E743A2050657263656E742063616E6E6F74206578636565 PUSH1 0x40 DUP3 ADD MSTORE PUSH5 0x642031303 PUSH1 0xDC SHL PUSH1 0x60 DUP3 ADD MSTORE PUSH1 0x80 ADD SWAP1 JUMP JUMPDEST PUSH1 0x20 DUP1 DUP3 MSTORE PUSH1 0x23 SWAP1 DUP3 ADD MSTORE PUSH32 0x757064617465506F6F6C3A2054686520706F6F6C20646F6573206E6F74206578 PUSH1 0x40 DUP3 ADD MSTORE PUSH3 0x1A5CDD PUSH1 0xEA SHL PUSH1 0x60 DUP3 ADD MSTORE PUSH1 0x80 ADD SWAP1 JUMP JUMPDEST SWAP1 DUP2 MSTORE PUSH1 0x20 ADD SWAP1 JUMP JUMPDEST SWAP2 DUP3 MSTORE PUSH1 0x1 PUSH1 0x1 PUSH1 0xA0 SHL SUB AND PUSH1 0x20 DUP3 ADD MSTORE PUSH1 0x40 ADD SWAP1 JUMP JUMPDEST SWAP3 DUP4 MSTORE PUSH1 0x1 PUSH1 0x1 PUSH1 0xA0 SHL SUB SWAP2 DUP3 AND PUSH1 0x20 DUP5 ADD MSTORE AND PUSH1 0x40 DUP3 ADD MSTORE PUSH1 0x60 ADD SWAP1 JUMP JUMPDEST SWAP2 DUP3 MSTORE PUSH1 0x20 DUP3 ADD MSTORE PUSH1 0x40 ADD SWAP1 JUMP JUMPDEST PUSH1 0x40 MLOAD DUP2 DUP2 ADD PUSH8 0xFFFFFFFFFFFFFFFF DUP2 GT DUP3 DUP3 LT OR ISZERO PUSH2 0x2168 JUMPI PUSH1 0x0 DUP1 REVERT JUMPDEST PUSH1 0x40 MSTORE SWAP2 SWAP1 POP JUMP JUMPDEST PUSH1 0x0 PUSH8 0xFFFFFFFFFFFFFFFF DUP3 GT ISZERO PUSH2 0x2186 JUMPI DUP1 DUP2 REVERT JUMPDEST POP PUSH1 0x20 SWAP1 DUP2 MUL ADD SWAP1 JUMP JUMPDEST PUSH1 0x0 JUMPDEST DUP4 DUP2 LT ISZERO PUSH2 0x21AB JUMPI DUP2 DUP2 ADD MLOAD DUP4 DUP3 ADD MSTORE PUSH1 0x20 ADD PUSH2 0x2193 JUMP JUMPDEST DUP4 DUP2 GT ISZERO PUSH2 0x1872 JUMPI POP POP PUSH1 0x0 SWAP2 ADD MSTORE JUMP JUMPDEST PUSH1 0x1 PUSH1 0x1 PUSH1 0xA0 SHL SUB DUP2 AND DUP2 EQ PUSH2 0x98B JUMPI PUSH1 0x0 DUP1 REVERT INVALID LOG2 PUSH5 0x6970667358 0x22 SLT KECCAK256 DUP14 PUSH10 0x7662CC8AFA267F064AB6 0xBE PUSH2 0x8119 ORIGIN COINBASE 0xE1 OR 0x25 0xB5 0x5C NOT CODESIZE SWAP2 COINBASE 0xC2 ADDRESS 0xB3 CALLDATACOPY SELFDESTRUCT PUSH5 0x736F6C6343 STOP MOD 0xC STOP CALLER "},"gasEstimates":{"creation":{"codeDepositCost":"1742200","executionCost":"infinite","totalCost":"infinite"},"external":{"addPool(uint256,address,address)":"infinite","burnAddress()":"363","burnPercent()":"1052","deposit(uint256,uint256)":"infinite","emergencyWithdraw(uint256)":"infinite","mora()":"infinite","moraPerSecond()":"1095","name()":"infinite","owner()":"1159","pendingReward(uint256,address)":"infinite","poolInfo(uint256)":"6387","poolLength()":"1096","renounceOwnership()":"24388","setBonusEmissionRate(uint256,uint256)":"infinite","setEmissionRate(uint256)":"infinite","setPercent(uint256)":"infinite","setPool(uint256,uint256,address)":"infinite","startTime()":"infinite","totalAllocPoint()":"1051","transferOwnership(address)":"24576","updateAllPools()":"infinite","updateMultiplePools(uint256[])":"infinite","updatePool(uint256)":"infinite","userInfo(uint256,address)":"2293","withdraw(uint256,uint256)":"infinite"},"internal":{"calculate(uint256)":"infinite","getMultiplier(uint256,uint256)":"infinite"}},"methodIdentifiers":{"addPool(uint256,address,address)":"f624d2c5","burnAddress()":"70d5ae05","burnPercent()":"03807ee5","deposit(uint256,uint256)":"e2bbb158","emergencyWithdraw(uint256)":"5312ea8e","mora()":"0e3e22df","moraPerSecond()":"86472033","name()":"06fdde03","owner()":"8da5cb5b","pendingReward(uint256,address)":"98969e82","poolInfo(uint256)":"1526fe27","poolLength()":"081e3eda","renounceOwnership()":"715018a6","setBonusEmissionRate(uint256,uint256)":"0d969044","setEmissionRate(uint256)":"a1bdb15e","setPercent(uint256)":"7154b8b5","setPool(uint256,uint256,address)":"e846ee59","startTime()":"78e97925","totalAllocPoint()":"17caf6f1","transferOwnership(address)":"f2fde38b","updateAllPools()":"b9ec7d74","updateMultiplePools(uint256[])":"96c8c4b5","updatePool(uint256)":"51eb05a6","userInfo(uint256,address)":"93f1a40b","withdraw(uint256,uint256)":"441a3e70"}},"storageLayout":{"storage":[{"astId":430,"contract":"contracts/MasterChef.sol:MasterChef","label":"_owner","offset":0,"slot":"0","type":"t_address"},{"astId":2011,"contract":"contracts/MasterChef.sol:MasterChef","label":"_status","offset":0,"slot":"1","type":"t_uint256"},{"astId":2144,"contract":"contracts/MasterChef.sol:MasterChef","label":"burnPercent","offset":0,"slot":"2","type":"t_uint256"},{"astId":2146,"contract":"contracts/MasterChef.sol:MasterChef","label":"moraPerSecond","offset":0,"slot":"3","type":"t_uint256"},{"astId":2149,"contract":"contracts/MasterChef.sol:MasterChef","label":"poolInfo","offset":0,"slot":"4","type":"t_array(t_struct(PoolInfo)2132_storage)dyn_storage"},{"astId":2155,"contract":"contracts/MasterChef.sol:MasterChef","label":"userInfo","offset":0,"slot":"5","type":"t_mapping(t_uint256,t_mapping(t_address,t_struct(UserInfo)2119_storage))"},{"astId":2157,"contract":"contracts/MasterChef.sol:MasterChef","label":"totalAllocPoint","offset":0,"slot":"6","type":"t_uint256"}],"types":{"t_address":{"encoding":"inplace","label":"address","numberOfBytes":"20"},"t_array(t_struct(PoolInfo)2132_storage)dyn_storage":{"base":"t_struct(PoolInfo)2132_storage","encoding":"dynamic_array","label":"struct MasterChef.PoolInfo[]","numberOfBytes":"32"},"t_contract(IERC20)1468":{"encoding":"inplace","label":"contract IERC20","numberOfBytes":"20"},"t_mapping(t_address,t_struct(UserInfo)2119_storage)":{"encoding":"mapping","key":"t_address","label":"mapping(address => struct MasterChef.UserInfo)","numberOfBytes":"32","value":"t_struct(UserInfo)2119_storage"},"t_mapping(t_uint256,t_mapping(t_address,t_struct(UserInfo)2119_storage))":{"encoding":"mapping","key":"t_uint256","label":"mapping(uint256 => mapping(address => struct MasterChef.UserInfo))","numberOfBytes":"32","value":"t_mapping(t_address,t_struct(UserInfo)2119_storage)"},"t_struct(PoolInfo)2132_storage":{"encoding":"inplace","label":"struct MasterChef.PoolInfo","members":[{"astId":2121,"contract":"contracts/MasterChef.sol:MasterChef","label":"lpToken","offset":0,"slot":"0","type":"t_contract(IERC20)1468"},{"astId":2123,"contract":"contracts/MasterChef.sol:MasterChef","label":"allocPoint","offset":0,"slot":"1","type":"t_uint256"},{"astId":2125,"contract":"contracts/MasterChef.sol:MasterChef","label":"lastRewardTime","offset":0,"slot":"2","type":"t_uint256"},{"astId":2127,"contract":"contracts/MasterChef.sol:MasterChef","label":"accMoraPerShare","offset":0,"slot":"3","type":"t_uint256"},{"astId":2129,"contract":"contracts/MasterChef.sol:MasterChef","label":"totalLp","offset":0,"slot":"4","type":"t_uint256"},{"astId":2131,"contract":"contracts/MasterChef.sol:MasterChef","label":"rewarder","offset":0,"slot":"5","type":"t_address"}],"numberOfBytes":"192"},"t_struct(UserInfo)2119_storage":{"encoding":"inplace","label":"struct MasterChef.UserInfo","members":[{"astId":2116,"contract":"contracts/MasterChef.sol:MasterChef","label":"amount","offset":0,"slot":"0","type":"t_uint256"},{"astId":2118,"contract":"contracts/MasterChef.sol:MasterChef","label":"rewardDebt","offset":0,"slot":"1","type":"t_uint256"}],"numberOfBytes":"64"},"t_uint256":{"encoding":"inplace","label":"uint256","numberOfBytes":"32"}}},"userdoc":{"kind":"user","methods":{},"version":1}}}}