{"contracts/Rewarder.sol":{"Rewarder":{"abi":[{"inputs":[{"internalType":"contract IERC20","name":"_rewardToken","type":"address"},{"internalType":"contract IERC20","name":"_lpToken","type":"address"},{"internalType":"uint256","name":"_rewardPerSecond","type":"uint256"},{"internalType":"address","name":"_chef","type":"address"},{"internalType":"uint256","name":"_startTime","type":"uint256"}],"stateMutability":"nonpayable","type":"constructor"},{"anonymous":false,"inputs":[{"indexed":true,"internalType":"address","name":"user","type":"address"},{"indexed":false,"internalType":"uint256","name":"amount","type":"uint256"}],"name":"OnReward","type":"event"},{"anonymous":false,"inputs":[{"indexed":true,"internalType":"address","name":"previousOwner","type":"address"},{"indexed":true,"internalType":"address","name":"newOwner","type":"address"}],"name":"OwnershipTransferred","type":"event"},{"anonymous":false,"inputs":[{"indexed":false,"internalType":"uint256","name":"oldRate","type":"uint256"},{"indexed":false,"internalType":"uint256","name":"newRate","type":"uint256"}],"name":"SetRewardPerSecond","type":"event"},{"inputs":[],"name":"chef","outputs":[{"internalType":"address","name":"","type":"address"}],"stateMutability":"view","type":"function"},{"inputs":[],"name":"lpToken","outputs":[{"internalType":"contract IERC20","name":"","type":"address"}],"stateMutability":"view","type":"function"},{"inputs":[{"internalType":"address","name":"_user","type":"address"},{"internalType":"uint256","name":"_amount","type":"uint256"}],"name":"onReward","outputs":[],"stateMutability":"nonpayable","type":"function"},{"inputs":[],"name":"owner","outputs":[{"internalType":"address","name":"","type":"address"}],"stateMutability":"view","type":"function"},{"inputs":[{"internalType":"address","name":"_user","type":"address"},{"internalType":"uint256","name":"_amount","type":"uint256"}],"name":"pendingReward","outputs":[{"internalType":"uint256","name":"","type":"uint256"}],"stateMutability":"view","type":"function"},{"inputs":[],"name":"poolInfo","outputs":[{"internalType":"uint256","name":"accRewardPerShare","type":"uint256"},{"internalType":"uint256","name":"lastRewardTime","type":"uint256"},{"internalType":"uint256","name":"totalLp","type":"uint256"}],"stateMutability":"view","type":"function"},{"inputs":[{"internalType":"address","name":"token","type":"address"},{"internalType":"uint256","name":"amount","type":"uint256"},{"internalType":"address payable","name":"to","type":"address"}],"name":"reclaimTokens","outputs":[],"stateMutability":"nonpayable","type":"function"},{"inputs":[],"name":"renounceOwnership","outputs":[],"stateMutability":"nonpayable","type":"function"},{"inputs":[],"name":"rewardPerSecond","outputs":[{"internalType":"uint256","name":"","type":"uint256"}],"stateMutability":"view","type":"function"},{"inputs":[],"name":"rewardToken","outputs":[{"internalType":"contract IERC20","name":"","type":"address"}],"stateMutability":"view","type":"function"},{"inputs":[{"internalType":"uint256","name":"_rewardPerSecond","type":"uint256"}],"name":"setRewardPerSecond","outputs":[],"stateMutability":"nonpayable","type":"function"},{"inputs":[{"internalType":"address","name":"newOwner","type":"address"}],"name":"transferOwnership","outputs":[],"stateMutability":"nonpayable","type":"function"},{"inputs":[],"name":"updatePool","outputs":[{"components":[{"internalType":"uint256","name":"accRewardPerShare","type":"uint256"},{"internalType":"uint256","name":"lastRewardTime","type":"uint256"},{"internalType":"uint256","name":"totalLp","type":"uint256"}],"internalType":"struct Rewarder.PoolInfo","name":"pool","type":"tuple"}],"stateMutability":"nonpayable","type":"function"},{"inputs":[{"internalType":"address","name":"","type":"address"}],"name":"userInfo","outputs":[{"internalType":"uint256","name":"amount","type":"uint256"},{"internalType":"uint256","name":"rewardDebt","type":"uint256"}],"stateMutability":"view","type":"function"}],"devdoc":{"kind":"dev","methods":{"owner()":{"details":"Returns the address of the current owner."},"renounceOwnership()":{"details":"Leaves the contract without owner. It will not be possible to call `onlyOwner` functions anymore. Can only be called by the current owner. NOTE: Renouncing ownership will leave the contract without an owner, thereby removing any functionality that is only available to the owner."},"transferOwnership(address)":{"details":"Transfers ownership of the contract to a new account (`newOwner`). Can only be called by the current owner."}},"version":1},"evm":{"bytecode":{"linkReferences":{},"object":"60e060405234801561001057600080fd5b506040516200122738038062001227833981016040819052610031916100dc565b600061003b6100d8565b600080546001600160a01b0319166001600160a01b0383169081178255604051929350917f8be0079c531659141344cd1fd0a4f28419497f9722a3daafe3b4186f6b6457e0908290a3506001600160601b0319606095861b811660805293851b841660a052600592909255831b90911660c05260408051928301815260008084526020840183905292018290526001829055600255600355610154565b3390565b600080600080600060a086880312156100f3578081fd5b85516100fe8161013c565b602087015190955061010f8161013c565b6040870151606088015191955093506101278161013c565b80925050608086015190509295509295909350565b6001600160a01b038116811461015157600080fd5b50565b60805160601c60a05160601c60c05160601c6110896200019e6000398061020b528061044052508061023b5250806104e1528061059252806105cb52806108e852506110896000f3fe608060405234801561001057600080fd5b50600436106100ea5760003560e01c80638f10369a1161008c578063e3161ddd11610066578063e3161ddd146101ad578063f2fde38b146101c2578063f430cf0d146101d5578063f7c618c1146101e8576100ea565b80638f10369a14610172578063c1ea386814610187578063c37232881461019a576100ea565b80635fcbd285116100c85780635fcbd2851461014557806366da58151461014d578063715018a6146101625780638da5cb5b1461016a576100ea565b80631959a002146100ef5780631fc8bc5d146101195780635a2f3d091461012e575b600080fd5b6101026100fd366004610beb565b6101f0565b604051610110929190610fe7565b60405180910390f35b610121610209565b6040516101109190610cdf565b61013661022d565b60405161011093929190610ff5565b610121610239565b61016061015b366004610c93565b61025d565b005b6101606102f4565b61012161037d565b61017a61038d565b6040516101109190610fde565b610160610195366004610c32565b610393565b6101606101a8366004610c07565b610435565b6101b561067c565b6040516101109190610fbd565b6101606101d0366004610beb565b610731565b61017a6101e3366004610c07565b6107f1565b6101216108e6565b6004602052600090815260409020805460019091015482565b7f000000000000000000000000000000000000000000000000000000000000000081565b60015460025460035483565b7f000000000000000000000000000000000000000000000000000000000000000081565b61026561090a565b6001600160a01b031661027661037d565b6001600160a01b0316146102a55760405162461bcd60e51b815260040161029c90610eb1565b60405180910390fd5b6102ad61067c565b5060058054908290556040517fcf46b21c204617ffb815b827463db479e0f3cdc9586e33690d10ced9541fcda0906102e89083908590610fe7565b60405180910390a15050565b6102fc61090a565b6001600160a01b031661030d61037d565b6001600160a01b0316146103335760405162461bcd60e51b815260040161029c90610eb1565b600080546040516001600160a01b03909116907f8be0079c531659141344cd1fd0a4f28419497f9722a3daafe3b4186f6b6457e0908390a3600080546001600160a01b0319169055565b6000546001600160a01b03165b90565b60055481565b61039b61090a565b6001600160a01b03166103ac61037d565b6001600160a01b0316146103d25760405162461bcd60e51b815260040161029c90610eb1565b6001600160a01b03831661041c576040516001600160a01b0382169083156108fc029084906000818181858888f19350505050158015610416573d6000803e3d6000fd5b50610430565b6104306001600160a01b038416828461090e565b505050565b336001600160a01b037f0000000000000000000000000000000000000000000000000000000000000000161461047d5760405162461bcd60e51b815260040161029c90610ee6565b61048561067c565b506001600160a01b0382166000908152600460205260408120805460019290156105f4576001820154835483546104db92916104d591670de0b6b3a7640000916104cf9190610964565b906109a5565b906109d7565b905060007f00000000000000000000000000000000000000000000000000000000000000006001600160a01b03166370a08231306040518263ffffffff1660e01b815260040161052b9190610cdf565b60206040518083038186803b15801561054357600080fd5b505afa158015610557573d6000803e3d6000fd5b505050506040513d601f19601f8201168201806040525081019061057b9190610cab565b9050808211156105be576105b96001600160a01b037f000000000000000000000000000000000000000000000000000000000000000016878361090e565b6105f2565b6105f26001600160a01b037f000000000000000000000000000000000000000000000000000000000000000016878461090e565b505b8154600284015461060a91906104d590876109ff565b6002840155838255825461062d90670de0b6b3a7640000906104cf908790610964565b60018301556040516001600160a01b038616907fd1072bb52c3131d0c96197b73fb8a45637e30f8b6664fc142310cc9b242859b49061066d908490610fde565b60405180910390a25050505050565b610684610bca565b5060408051606081018252600154815260025460208201819052600354928201929092529042111561038a57604081015180156107155760006106d48360200151426109d790919063ffffffff16565b905060006106ed6005548361096490919063ffffffff16565b9050610710610708846104cf84670de0b6b3a7640000610964565b8551906109ff565b845250505b5042602082018190528151600155600255604081015160035590565b61073961090a565b6001600160a01b031661074a61037d565b6001600160a01b0316146107705760405162461bcd60e51b815260040161029c90610eb1565b6001600160a01b0381166107965760405162461bcd60e51b815260040161029c90610d3f565b600080546040516001600160a01b03808516939216917f8be0079c531659141344cd1fd0a4f28419497f9722a3daafe3b4186f6b6457e091a3600080546001600160a01b0319166001600160a01b0392909216919091179055565b60006107fb610bca565b5060408051606081018252600154815260025460208083019182526003548385019081526001600160a01b03881660009081526004909252939020825193519151929390929091904211801561085057508015155b156108ae57600061086e8560200151426109d790919063ffffffff16565b905060006108876005548361096490919063ffffffff16565b90506108a96108a2846104cf84670de0b6b3a7640000610964565b85906109ff565b935050505b6108d983600101546104d5670de0b6b3a76400006104cf86886000015461096490919063ffffffff16565b9450505050505b92915050565b7f000000000000000000000000000000000000000000000000000000000000000081565b3390565b6104308363a9059cbb60e01b848460405160240161092d929190610cf3565b60408051601f198184030181529190526020810180516001600160e01b03166001600160e01b031990931692909217909152610a24565b600082610973575060006108e0565b8282028284828161098057fe5b041461099e5760405162461bcd60e51b815260040161029c90610e70565b9392505050565b60008082116109c65760405162461bcd60e51b815260040161029c90610e39565b8183816109cf57fe5b049392505050565b6000828211156109f95760405162461bcd60e51b815260040161029c90610dbc565b50900390565b60008282018381101561099e5760405162461bcd60e51b815260040161029c90610d85565b6060610a79826040518060400160405280602081526020017f5361666545524332303a206c6f772d6c6576656c2063616c6c206661696c6564815250856001600160a01b0316610ab39092919063ffffffff16565b8051909150156104305780806020019051810190610a979190610c73565b6104305760405162461bcd60e51b815260040161029c90610f73565b6060610ac28484600085610aca565b949350505050565b606082471015610aec5760405162461bcd60e51b815260040161029c90610df3565b610af585610b8b565b610b115760405162461bcd60e51b815260040161029c90610f3c565b60006060866001600160a01b03168587604051610b2e9190610cc3565b60006040518083038185875af1925050503d8060008114610b6b576040519150601f19603f3d011682016040523d82523d6000602084013e610b70565b606091505b5091509150610b80828286610b91565b979650505050505050565b3b151590565b60608315610ba057508161099e565b825115610bb05782518084602001fd5b8160405162461bcd60e51b815260040161029c9190610d0c565b60405180606001604052806000815260200160008152602001600081525090565b600060208284031215610bfc578081fd5b813561099e8161103b565b60008060408385031215610c19578081fd5b8235610c248161103b565b946020939093013593505050565b600080600060608486031215610c46578081fd5b8335610c518161103b565b9250602084013591506040840135610c688161103b565b809150509250925092565b600060208284031215610c84578081fd5b8151801515811461099e578182fd5b600060208284031215610ca4578081fd5b5035919050565b600060208284031215610cbc578081fd5b5051919050565b60008251610cd581846020870161100b565b9190910192915050565b6001600160a01b0391909116815260200190565b6001600160a01b03929092168252602082015260400190565b6000602082528251806020840152610d2b81604085016020870161100b565b601f01601f19169190910160400192915050565b60208082526026908201527f4f776e61626c653a206e6577206f776e657220697320746865207a65726f206160408201526564647265737360d01b606082015260800190565b6020808252601b908201527f536166654d6174683a206164646974696f6e206f766572666c6f770000000000604082015260600190565b6020808252601e908201527f536166654d6174683a207375627472616374696f6e206f766572666c6f770000604082015260600190565b60208082526026908201527f416464726573733a20696e73756666696369656e742062616c616e636520666f6040820152651c8818d85b1b60d21b606082015260800190565b6020808252601a908201527f536166654d6174683a206469766973696f6e206279207a65726f000000000000604082015260600190565b60208082526021908201527f536166654d6174683a206d756c7469706c69636174696f6e206f766572666c6f6040820152607760f81b606082015260800190565b6020808252818101527f4f776e61626c653a2063616c6c6572206973206e6f7420746865206f776e6572604082015260600190565b60208082526036908201527f6f6e6c794d6173746572436865663a206f6e6c79204d6173746572436865662060408201527531b0b71031b0b636103a3434b990333ab731ba34b7b760511b606082015260800190565b6020808252601d908201527f416464726573733a2063616c6c20746f206e6f6e2d636f6e7472616374000000604082015260600190565b6020808252602a908201527f5361666545524332303a204552433230206f7065726174696f6e20646964206e6040820152691bdd081cdd58d8d9595960b21b606082015260800190565b81518152602080830151908201526040918201519181019190915260600190565b90815260200190565b918252602082015260400190565b9283526020830191909152604082015260600190565b60005b8381101561102657818101518382015260200161100e565b83811115611035576000848401525b50505050565b6001600160a01b038116811461105057600080fd5b5056fea26469706673582212201f39fba867eed2b84e41685b860848be704f03c20696381d42dccdb7fde3669f64736f6c634300060c0033","opcodes":"PUSH1 0xE0 PUSH1 0x40 MSTORE CALLVALUE DUP1 ISZERO PUSH2 0x10 JUMPI PUSH1 0x0 DUP1 REVERT JUMPDEST POP PUSH1 0x40 MLOAD PUSH3 0x1227 CODESIZE SUB DUP1 PUSH3 0x1227 DUP4 CODECOPY DUP2 ADD PUSH1 0x40 DUP2 SWAP1 MSTORE PUSH2 0x31 SWAP2 PUSH2 0xDC JUMP JUMPDEST PUSH1 0x0 PUSH2 0x3B PUSH2 0xD8 JUMP JUMPDEST PUSH1 0x0 DUP1 SLOAD PUSH1 0x1 PUSH1 0x1 PUSH1 0xA0 SHL SUB NOT AND PUSH1 0x1 PUSH1 0x1 PUSH1 0xA0 SHL SUB DUP4 AND SWAP1 DUP2 OR DUP3 SSTORE PUSH1 0x40 MLOAD SWAP3 SWAP4 POP SWAP2 PUSH32 0x8BE0079C531659141344CD1FD0A4F28419497F9722A3DAAFE3B4186F6B6457E0 SWAP1 DUP3 SWAP1 LOG3 POP PUSH1 0x1 PUSH1 0x1 PUSH1 0x60 SHL SUB NOT PUSH1 0x60 SWAP6 DUP7 SHL DUP2 AND PUSH1 0x80 MSTORE SWAP4 DUP6 SHL DUP5 AND PUSH1 0xA0 MSTORE PUSH1 0x5 SWAP3 SWAP1 SWAP3 SSTORE DUP4 SHL SWAP1 SWAP2 AND PUSH1 0xC0 MSTORE PUSH1 0x40 DUP1 MLOAD SWAP3 DUP4 ADD DUP2 MSTORE PUSH1 0x0 DUP1 DUP5 MSTORE PUSH1 0x20 DUP5 ADD DUP4 SWAP1 MSTORE SWAP3 ADD DUP3 SWAP1 MSTORE PUSH1 0x1 DUP3 SWAP1 SSTORE PUSH1 0x2 SSTORE PUSH1 0x3 SSTORE PUSH2 0x154 JUMP JUMPDEST CALLER SWAP1 JUMP JUMPDEST PUSH1 0x0 DUP1 PUSH1 0x0 DUP1 PUSH1 0x0 PUSH1 0xA0 DUP7 DUP9 SUB SLT ISZERO PUSH2 0xF3 JUMPI DUP1 DUP2 REVERT JUMPDEST DUP6 MLOAD PUSH2 0xFE DUP2 PUSH2 0x13C JUMP JUMPDEST PUSH1 0x20 DUP8 ADD MLOAD SWAP1 SWAP6 POP PUSH2 0x10F DUP2 PUSH2 0x13C JUMP JUMPDEST PUSH1 0x40 DUP8 ADD MLOAD PUSH1 0x60 DUP9 ADD MLOAD SWAP2 SWAP6 POP SWAP4 POP PUSH2 0x127 DUP2 PUSH2 0x13C JUMP JUMPDEST DUP1 SWAP3 POP POP PUSH1 0x80 DUP7 ADD MLOAD SWAP1 POP SWAP3 SWAP6 POP SWAP3 SWAP6 SWAP1 SWAP4 POP JUMP JUMPDEST PUSH1 0x1 PUSH1 0x1 PUSH1 0xA0 SHL SUB DUP2 AND DUP2 EQ PUSH2 0x151 JUMPI PUSH1 0x0 DUP1 REVERT JUMPDEST POP JUMP JUMPDEST PUSH1 0x80 MLOAD PUSH1 0x60 SHR PUSH1 0xA0 MLOAD PUSH1 0x60 SHR PUSH1 0xC0 MLOAD PUSH1 0x60 SHR PUSH2 0x1089 PUSH3 0x19E PUSH1 0x0 CODECOPY DUP1 PUSH2 0x20B MSTORE DUP1 PUSH2 0x440 MSTORE POP DUP1 PUSH2 0x23B MSTORE POP DUP1 PUSH2 0x4E1 MSTORE DUP1 PUSH2 0x592 MSTORE DUP1 PUSH2 0x5CB MSTORE DUP1 PUSH2 0x8E8 MSTORE POP PUSH2 0x1089 PUSH1 0x0 RETURN INVALID PUSH1 0x80 PUSH1 0x40 MSTORE CALLVALUE DUP1 ISZERO PUSH2 0x10 JUMPI PUSH1 0x0 DUP1 REVERT JUMPDEST POP PUSH1 0x4 CALLDATASIZE LT PUSH2 0xEA JUMPI PUSH1 0x0 CALLDATALOAD PUSH1 0xE0 SHR DUP1 PUSH4 0x8F10369A GT PUSH2 0x8C JUMPI DUP1 PUSH4 0xE3161DDD GT PUSH2 0x66 JUMPI DUP1 PUSH4 0xE3161DDD EQ PUSH2 0x1AD JUMPI DUP1 PUSH4 0xF2FDE38B EQ PUSH2 0x1C2 JUMPI DUP1 PUSH4 0xF430CF0D EQ PUSH2 0x1D5 JUMPI DUP1 PUSH4 0xF7C618C1 EQ PUSH2 0x1E8 JUMPI PUSH2 0xEA JUMP JUMPDEST DUP1 PUSH4 0x8F10369A EQ PUSH2 0x172 JUMPI DUP1 PUSH4 0xC1EA3868 EQ PUSH2 0x187 JUMPI DUP1 PUSH4 0xC3723288 EQ PUSH2 0x19A JUMPI PUSH2 0xEA JUMP JUMPDEST DUP1 PUSH4 0x5FCBD285 GT PUSH2 0xC8 JUMPI DUP1 PUSH4 0x5FCBD285 EQ PUSH2 0x145 JUMPI DUP1 PUSH4 0x66DA5815 EQ PUSH2 0x14D JUMPI DUP1 PUSH4 0x715018A6 EQ PUSH2 0x162 JUMPI DUP1 PUSH4 0x8DA5CB5B EQ PUSH2 0x16A JUMPI PUSH2 0xEA JUMP JUMPDEST DUP1 PUSH4 0x1959A002 EQ PUSH2 0xEF JUMPI DUP1 PUSH4 0x1FC8BC5D EQ PUSH2 0x119 JUMPI DUP1 PUSH4 0x5A2F3D09 EQ PUSH2 0x12E JUMPI JUMPDEST PUSH1 0x0 DUP1 REVERT JUMPDEST PUSH2 0x102 PUSH2 0xFD CALLDATASIZE PUSH1 0x4 PUSH2 0xBEB JUMP JUMPDEST PUSH2 0x1F0 JUMP JUMPDEST PUSH1 0x40 MLOAD PUSH2 0x110 SWAP3 SWAP2 SWAP1 PUSH2 0xFE7 JUMP JUMPDEST PUSH1 0x40 MLOAD DUP1 SWAP2 SUB SWAP1 RETURN JUMPDEST PUSH2 0x121 PUSH2 0x209 JUMP JUMPDEST PUSH1 0x40 MLOAD PUSH2 0x110 SWAP2 SWAP1 PUSH2 0xCDF JUMP JUMPDEST PUSH2 0x136 PUSH2 0x22D JUMP JUMPDEST PUSH1 0x40 MLOAD PUSH2 0x110 SWAP4 SWAP3 SWAP2 SWAP1 PUSH2 0xFF5 JUMP JUMPDEST PUSH2 0x121 PUSH2 0x239 JUMP JUMPDEST PUSH2 0x160 PUSH2 0x15B CALLDATASIZE PUSH1 0x4 PUSH2 0xC93 JUMP JUMPDEST PUSH2 0x25D JUMP JUMPDEST STOP JUMPDEST PUSH2 0x160 PUSH2 0x2F4 JUMP JUMPDEST PUSH2 0x121 PUSH2 0x37D JUMP JUMPDEST PUSH2 0x17A PUSH2 0x38D JUMP JUMPDEST PUSH1 0x40 MLOAD PUSH2 0x110 SWAP2 SWAP1 PUSH2 0xFDE JUMP JUMPDEST PUSH2 0x160 PUSH2 0x195 CALLDATASIZE PUSH1 0x4 PUSH2 0xC32 JUMP JUMPDEST PUSH2 0x393 JUMP JUMPDEST PUSH2 0x160 PUSH2 0x1A8 CALLDATASIZE PUSH1 0x4 PUSH2 0xC07 JUMP JUMPDEST PUSH2 0x435 JUMP JUMPDEST PUSH2 0x1B5 PUSH2 0x67C JUMP JUMPDEST PUSH1 0x40 MLOAD PUSH2 0x110 SWAP2 SWAP1 PUSH2 0xFBD JUMP JUMPDEST PUSH2 0x160 PUSH2 0x1D0 CALLDATASIZE PUSH1 0x4 PUSH2 0xBEB JUMP JUMPDEST PUSH2 0x731 JUMP JUMPDEST PUSH2 0x17A PUSH2 0x1E3 CALLDATASIZE PUSH1 0x4 PUSH2 0xC07 JUMP JUMPDEST PUSH2 0x7F1 JUMP JUMPDEST PUSH2 0x121 PUSH2 0x8E6 JUMP JUMPDEST PUSH1 0x4 PUSH1 0x20 MSTORE PUSH1 0x0 SWAP1 DUP2 MSTORE PUSH1 0x40 SWAP1 KECCAK256 DUP1 SLOAD PUSH1 0x1 SWAP1 SWAP2 ADD SLOAD DUP3 JUMP JUMPDEST PUSH32 0x0 DUP2 JUMP JUMPDEST PUSH1 0x1 SLOAD PUSH1 0x2 SLOAD PUSH1 0x3 SLOAD DUP4 JUMP JUMPDEST PUSH32 0x0 DUP2 JUMP JUMPDEST PUSH2 0x265 PUSH2 0x90A JUMP JUMPDEST PUSH1 0x1 PUSH1 0x1 PUSH1 0xA0 SHL SUB AND PUSH2 0x276 PUSH2 0x37D JUMP JUMPDEST PUSH1 0x1 PUSH1 0x1 PUSH1 0xA0 SHL SUB AND EQ PUSH2 0x2A5 JUMPI PUSH1 0x40 MLOAD PUSH3 0x461BCD PUSH1 0xE5 SHL DUP2 MSTORE PUSH1 0x4 ADD PUSH2 0x29C SWAP1 PUSH2 0xEB1 JUMP JUMPDEST PUSH1 0x40 MLOAD DUP1 SWAP2 SUB SWAP1 REVERT JUMPDEST PUSH2 0x2AD PUSH2 0x67C JUMP JUMPDEST POP PUSH1 0x5 DUP1 SLOAD SWAP1 DUP3 SWAP1 SSTORE PUSH1 0x40 MLOAD PUSH32 0xCF46B21C204617FFB815B827463DB479E0F3CDC9586E33690D10CED9541FCDA0 SWAP1 PUSH2 0x2E8 SWAP1 DUP4 SWAP1 DUP6 SWAP1 PUSH2 0xFE7 JUMP JUMPDEST PUSH1 0x40 MLOAD DUP1 SWAP2 SUB SWAP1 LOG1 POP POP JUMP JUMPDEST PUSH2 0x2FC PUSH2 0x90A JUMP JUMPDEST PUSH1 0x1 PUSH1 0x1 PUSH1 0xA0 SHL SUB AND PUSH2 0x30D PUSH2 0x37D JUMP JUMPDEST PUSH1 0x1 PUSH1 0x1 PUSH1 0xA0 SHL SUB AND EQ PUSH2 0x333 JUMPI PUSH1 0x40 MLOAD PUSH3 0x461BCD PUSH1 0xE5 SHL DUP2 MSTORE PUSH1 0x4 ADD PUSH2 0x29C SWAP1 PUSH2 0xEB1 JUMP JUMPDEST PUSH1 0x0 DUP1 SLOAD PUSH1 0x40 MLOAD PUSH1 0x1 PUSH1 0x1 PUSH1 0xA0 SHL SUB SWAP1 SWAP2 AND SWAP1 PUSH32 0x8BE0079C531659141344CD1FD0A4F28419497F9722A3DAAFE3B4186F6B6457E0 SWAP1 DUP4 SWAP1 LOG3 PUSH1 0x0 DUP1 SLOAD PUSH1 0x1 PUSH1 0x1 PUSH1 0xA0 SHL SUB NOT AND SWAP1 SSTORE JUMP JUMPDEST PUSH1 0x0 SLOAD PUSH1 0x1 PUSH1 0x1 PUSH1 0xA0 SHL SUB AND JUMPDEST SWAP1 JUMP JUMPDEST PUSH1 0x5 SLOAD DUP2 JUMP JUMPDEST PUSH2 0x39B PUSH2 0x90A JUMP JUMPDEST PUSH1 0x1 PUSH1 0x1 PUSH1 0xA0 SHL SUB AND PUSH2 0x3AC PUSH2 0x37D JUMP JUMPDEST PUSH1 0x1 PUSH1 0x1 PUSH1 0xA0 SHL SUB AND EQ PUSH2 0x3D2 JUMPI PUSH1 0x40 MLOAD PUSH3 0x461BCD PUSH1 0xE5 SHL DUP2 MSTORE PUSH1 0x4 ADD PUSH2 0x29C SWAP1 PUSH2 0xEB1 JUMP JUMPDEST PUSH1 0x1 PUSH1 0x1 PUSH1 0xA0 SHL SUB DUP4 AND PUSH2 0x41C JUMPI PUSH1 0x40 MLOAD PUSH1 0x1 PUSH1 0x1 PUSH1 0xA0 SHL SUB DUP3 AND SWAP1 DUP4 ISZERO PUSH2 0x8FC MUL SWAP1 DUP5 SWAP1 PUSH1 0x0 DUP2 DUP2 DUP2 DUP6 DUP9 DUP9 CALL SWAP4 POP POP POP POP ISZERO DUP1 ISZERO PUSH2 0x416 JUMPI RETURNDATASIZE PUSH1 0x0 DUP1 RETURNDATACOPY RETURNDATASIZE PUSH1 0x0 REVERT JUMPDEST POP PUSH2 0x430 JUMP JUMPDEST PUSH2 0x430 PUSH1 0x1 PUSH1 0x1 PUSH1 0xA0 SHL SUB DUP5 AND DUP3 DUP5 PUSH2 0x90E JUMP JUMPDEST POP POP POP JUMP JUMPDEST CALLER PUSH1 0x1 PUSH1 0x1 PUSH1 0xA0 SHL SUB PUSH32 0x0 AND EQ PUSH2 0x47D JUMPI PUSH1 0x40 MLOAD PUSH3 0x461BCD PUSH1 0xE5 SHL DUP2 MSTORE PUSH1 0x4 ADD PUSH2 0x29C SWAP1 PUSH2 0xEE6 JUMP JUMPDEST PUSH2 0x485 PUSH2 0x67C JUMP JUMPDEST POP PUSH1 0x1 PUSH1 0x1 PUSH1 0xA0 SHL SUB DUP3 AND PUSH1 0x0 SWAP1 DUP2 MSTORE PUSH1 0x4 PUSH1 0x20 MSTORE PUSH1 0x40 DUP2 KECCAK256 DUP1 SLOAD PUSH1 0x1 SWAP3 SWAP1 ISZERO PUSH2 0x5F4 JUMPI PUSH1 0x1 DUP3 ADD SLOAD DUP4 SLOAD DUP4 SLOAD PUSH2 0x4DB SWAP3 SWAP2 PUSH2 0x4D5 SWAP2 PUSH8 0xDE0B6B3A7640000 SWAP2 PUSH2 0x4CF SWAP2 SWAP1 PUSH2 0x964 JUMP JUMPDEST SWAP1 PUSH2 0x9A5 JUMP JUMPDEST SWAP1 PUSH2 0x9D7 JUMP JUMPDEST SWAP1 POP PUSH1 0x0 PUSH32 0x0 PUSH1 0x1 PUSH1 0x1 PUSH1 0xA0 SHL SUB AND PUSH4 0x70A08231 ADDRESS PUSH1 0x40 MLOAD DUP3 PUSH4 0xFFFFFFFF AND PUSH1 0xE0 SHL DUP2 MSTORE PUSH1 0x4 ADD PUSH2 0x52B SWAP2 SWAP1 PUSH2 0xCDF JUMP JUMPDEST PUSH1 0x20 PUSH1 0x40 MLOAD DUP1 DUP4 SUB DUP2 DUP7 DUP1 EXTCODESIZE ISZERO DUP1 ISZERO PUSH2 0x543 JUMPI PUSH1 0x0 DUP1 REVERT JUMPDEST POP GAS STATICCALL ISZERO DUP1 ISZERO PUSH2 0x557 JUMPI RETURNDATASIZE PUSH1 0x0 DUP1 RETURNDATACOPY RETURNDATASIZE PUSH1 0x0 REVERT JUMPDEST POP POP POP POP PUSH1 0x40 MLOAD RETURNDATASIZE PUSH1 0x1F NOT PUSH1 0x1F DUP3 ADD AND DUP3 ADD DUP1 PUSH1 0x40 MSTORE POP DUP2 ADD SWAP1 PUSH2 0x57B SWAP2 SWAP1 PUSH2 0xCAB JUMP JUMPDEST SWAP1 POP DUP1 DUP3 GT ISZERO PUSH2 0x5BE JUMPI PUSH2 0x5B9 PUSH1 0x1 PUSH1 0x1 PUSH1 0xA0 SHL SUB PUSH32 0x0 AND DUP8 DUP4 PUSH2 0x90E JUMP JUMPDEST PUSH2 0x5F2 JUMP JUMPDEST PUSH2 0x5F2 PUSH1 0x1 PUSH1 0x1 PUSH1 0xA0 SHL SUB PUSH32 0x0 AND DUP8 DUP5 PUSH2 0x90E JUMP JUMPDEST POP JUMPDEST DUP2 SLOAD PUSH1 0x2 DUP5 ADD SLOAD PUSH2 0x60A SWAP2 SWAP1 PUSH2 0x4D5 SWAP1 DUP8 PUSH2 0x9FF JUMP JUMPDEST PUSH1 0x2 DUP5 ADD SSTORE DUP4 DUP3 SSTORE DUP3 SLOAD PUSH2 0x62D SWAP1 PUSH8 0xDE0B6B3A7640000 SWAP1 PUSH2 0x4CF SWAP1 DUP8 SWAP1 PUSH2 0x964 JUMP JUMPDEST PUSH1 0x1 DUP4 ADD SSTORE PUSH1 0x40 MLOAD PUSH1 0x1 PUSH1 0x1 PUSH1 0xA0 SHL SUB DUP7 AND SWAP1 PUSH32 0xD1072BB52C3131D0C96197B73FB8A45637E30F8B6664FC142310CC9B242859B4 SWAP1 PUSH2 0x66D SWAP1 DUP5 SWAP1 PUSH2 0xFDE JUMP JUMPDEST PUSH1 0x40 MLOAD DUP1 SWAP2 SUB SWAP1 LOG2 POP POP POP POP POP JUMP JUMPDEST PUSH2 0x684 PUSH2 0xBCA JUMP JUMPDEST POP PUSH1 0x40 DUP1 MLOAD PUSH1 0x60 DUP2 ADD DUP3 MSTORE PUSH1 0x1 SLOAD DUP2 MSTORE PUSH1 0x2 SLOAD PUSH1 0x20 DUP3 ADD DUP2 SWAP1 MSTORE PUSH1 0x3 SLOAD SWAP3 DUP3 ADD SWAP3 SWAP1 SWAP3 MSTORE SWAP1 TIMESTAMP GT ISZERO PUSH2 0x38A JUMPI PUSH1 0x40 DUP2 ADD MLOAD DUP1 ISZERO PUSH2 0x715 JUMPI PUSH1 0x0 PUSH2 0x6D4 DUP4 PUSH1 0x20 ADD MLOAD TIMESTAMP PUSH2 0x9D7 SWAP1 SWAP2 SWAP1 PUSH4 0xFFFFFFFF AND JUMP JUMPDEST SWAP1 POP PUSH1 0x0 PUSH2 0x6ED PUSH1 0x5 SLOAD DUP4 PUSH2 0x964 SWAP1 SWAP2 SWAP1 PUSH4 0xFFFFFFFF AND JUMP JUMPDEST SWAP1 POP PUSH2 0x710 PUSH2 0x708 DUP5 PUSH2 0x4CF DUP5 PUSH8 0xDE0B6B3A7640000 PUSH2 0x964 JUMP JUMPDEST DUP6 MLOAD SWAP1 PUSH2 0x9FF JUMP JUMPDEST DUP5 MSTORE POP POP JUMPDEST POP TIMESTAMP PUSH1 0x20 DUP3 ADD DUP2 SWAP1 MSTORE DUP2 MLOAD PUSH1 0x1 SSTORE PUSH1 0x2 SSTORE PUSH1 0x40 DUP2 ADD MLOAD PUSH1 0x3 SSTORE SWAP1 JUMP JUMPDEST PUSH2 0x739 PUSH2 0x90A JUMP JUMPDEST PUSH1 0x1 PUSH1 0x1 PUSH1 0xA0 SHL SUB AND PUSH2 0x74A PUSH2 0x37D JUMP JUMPDEST PUSH1 0x1 PUSH1 0x1 PUSH1 0xA0 SHL SUB AND EQ PUSH2 0x770 JUMPI PUSH1 0x40 MLOAD PUSH3 0x461BCD PUSH1 0xE5 SHL DUP2 MSTORE PUSH1 0x4 ADD PUSH2 0x29C SWAP1 PUSH2 0xEB1 JUMP JUMPDEST PUSH1 0x1 PUSH1 0x1 PUSH1 0xA0 SHL SUB DUP2 AND PUSH2 0x796 JUMPI PUSH1 0x40 MLOAD PUSH3 0x461BCD PUSH1 0xE5 SHL DUP2 MSTORE PUSH1 0x4 ADD PUSH2 0x29C SWAP1 PUSH2 0xD3F JUMP JUMPDEST PUSH1 0x0 DUP1 SLOAD PUSH1 0x40 MLOAD PUSH1 0x1 PUSH1 0x1 PUSH1 0xA0 SHL SUB DUP1 DUP6 AND SWAP4 SWAP3 AND SWAP2 PUSH32 0x8BE0079C531659141344CD1FD0A4F28419497F9722A3DAAFE3B4186F6B6457E0 SWAP2 LOG3 PUSH1 0x0 DUP1 SLOAD PUSH1 0x1 PUSH1 0x1 PUSH1 0xA0 SHL SUB NOT AND PUSH1 0x1 PUSH1 0x1 PUSH1 0xA0 SHL SUB SWAP3 SWAP1 SWAP3 AND SWAP2 SWAP1 SWAP2 OR SWAP1 SSTORE JUMP JUMPDEST PUSH1 0x0 PUSH2 0x7FB PUSH2 0xBCA JUMP JUMPDEST POP PUSH1 0x40 DUP1 MLOAD PUSH1 0x60 DUP2 ADD DUP3 MSTORE PUSH1 0x1 SLOAD DUP2 MSTORE PUSH1 0x2 SLOAD PUSH1 0x20 DUP1 DUP4 ADD SWAP2 DUP3 MSTORE PUSH1 0x3 SLOAD DUP4 DUP6 ADD SWAP1 DUP2 MSTORE PUSH1 0x1 PUSH1 0x1 PUSH1 0xA0 SHL SUB DUP9 AND PUSH1 0x0 SWAP1 DUP2 MSTORE PUSH1 0x4 SWAP1 SWAP3 MSTORE SWAP4 SWAP1 KECCAK256 DUP3 MLOAD SWAP4 MLOAD SWAP2 MLOAD SWAP3 SWAP4 SWAP1 SWAP3 SWAP1 SWAP2 SWAP1 TIMESTAMP GT DUP1 ISZERO PUSH2 0x850 JUMPI POP DUP1 ISZERO ISZERO JUMPDEST ISZERO PUSH2 0x8AE JUMPI PUSH1 0x0 PUSH2 0x86E DUP6 PUSH1 0x20 ADD MLOAD TIMESTAMP PUSH2 0x9D7 SWAP1 SWAP2 SWAP1 PUSH4 0xFFFFFFFF AND JUMP JUMPDEST SWAP1 POP PUSH1 0x0 PUSH2 0x887 PUSH1 0x5 SLOAD DUP4 PUSH2 0x964 SWAP1 SWAP2 SWAP1 PUSH4 0xFFFFFFFF AND JUMP JUMPDEST SWAP1 POP PUSH2 0x8A9 PUSH2 0x8A2 DUP5 PUSH2 0x4CF DUP5 PUSH8 0xDE0B6B3A7640000 PUSH2 0x964 JUMP JUMPDEST DUP6 SWAP1 PUSH2 0x9FF JUMP JUMPDEST SWAP4 POP POP POP JUMPDEST PUSH2 0x8D9 DUP4 PUSH1 0x1 ADD SLOAD PUSH2 0x4D5 PUSH8 0xDE0B6B3A7640000 PUSH2 0x4CF DUP7 DUP9 PUSH1 0x0 ADD SLOAD PUSH2 0x964 SWAP1 SWAP2 SWAP1 PUSH4 0xFFFFFFFF AND JUMP JUMPDEST SWAP5 POP POP POP POP POP JUMPDEST SWAP3 SWAP2 POP POP JUMP JUMPDEST PUSH32 0x0 DUP2 JUMP JUMPDEST CALLER SWAP1 JUMP JUMPDEST PUSH2 0x430 DUP4 PUSH4 0xA9059CBB PUSH1 0xE0 SHL DUP5 DUP5 PUSH1 0x40 MLOAD PUSH1 0x24 ADD PUSH2 0x92D SWAP3 SWAP2 SWAP1 PUSH2 0xCF3 JUMP JUMPDEST PUSH1 0x40 DUP1 MLOAD PUSH1 0x1F NOT DUP2 DUP5 SUB ADD DUP2 MSTORE SWAP2 SWAP1 MSTORE PUSH1 0x20 DUP2 ADD DUP1 MLOAD PUSH1 0x1 PUSH1 0x1 PUSH1 0xE0 SHL SUB AND PUSH1 0x1 PUSH1 0x1 PUSH1 0xE0 SHL SUB NOT SWAP1 SWAP4 AND SWAP3 SWAP1 SWAP3 OR SWAP1 SWAP2 MSTORE PUSH2 0xA24 JUMP JUMPDEST PUSH1 0x0 DUP3 PUSH2 0x973 JUMPI POP PUSH1 0x0 PUSH2 0x8E0 JUMP JUMPDEST DUP3 DUP3 MUL DUP3 DUP5 DUP3 DUP2 PUSH2 0x980 JUMPI INVALID JUMPDEST DIV EQ PUSH2 0x99E JUMPI PUSH1 0x40 MLOAD PUSH3 0x461BCD PUSH1 0xE5 SHL DUP2 MSTORE PUSH1 0x4 ADD PUSH2 0x29C SWAP1 PUSH2 0xE70 JUMP JUMPDEST SWAP4 SWAP3 POP POP POP JUMP JUMPDEST PUSH1 0x0 DUP1 DUP3 GT PUSH2 0x9C6 JUMPI PUSH1 0x40 MLOAD PUSH3 0x461BCD PUSH1 0xE5 SHL DUP2 MSTORE PUSH1 0x4 ADD PUSH2 0x29C SWAP1 PUSH2 0xE39 JUMP JUMPDEST DUP2 DUP4 DUP2 PUSH2 0x9CF JUMPI INVALID JUMPDEST DIV SWAP4 SWAP3 POP POP POP JUMP JUMPDEST PUSH1 0x0 DUP3 DUP3 GT ISZERO PUSH2 0x9F9 JUMPI PUSH1 0x40 MLOAD PUSH3 0x461BCD PUSH1 0xE5 SHL DUP2 MSTORE PUSH1 0x4 ADD PUSH2 0x29C SWAP1 PUSH2 0xDBC JUMP JUMPDEST POP SWAP1 SUB SWAP1 JUMP JUMPDEST PUSH1 0x0 DUP3 DUP3 ADD DUP4 DUP2 LT ISZERO PUSH2 0x99E JUMPI PUSH1 0x40 MLOAD PUSH3 0x461BCD PUSH1 0xE5 SHL DUP2 MSTORE PUSH1 0x4 ADD PUSH2 0x29C SWAP1 PUSH2 0xD85 JUMP JUMPDEST PUSH1 0x60 PUSH2 0xA79 DUP3 PUSH1 0x40 MLOAD DUP1 PUSH1 0x40 ADD PUSH1 0x40 MSTORE DUP1 PUSH1 0x20 DUP2 MSTORE PUSH1 0x20 ADD PUSH32 0x5361666545524332303A206C6F772D6C6576656C2063616C6C206661696C6564 DUP2 MSTORE POP DUP6 PUSH1 0x1 PUSH1 0x1 PUSH1 0xA0 SHL SUB AND PUSH2 0xAB3 SWAP1 SWAP3 SWAP2 SWAP1 PUSH4 0xFFFFFFFF AND JUMP JUMPDEST DUP1 MLOAD SWAP1 SWAP2 POP ISZERO PUSH2 0x430 JUMPI DUP1 DUP1 PUSH1 0x20 ADD SWAP1 MLOAD DUP2 ADD SWAP1 PUSH2 0xA97 SWAP2 SWAP1 PUSH2 0xC73 JUMP JUMPDEST PUSH2 0x430 JUMPI PUSH1 0x40 MLOAD PUSH3 0x461BCD PUSH1 0xE5 SHL DUP2 MSTORE PUSH1 0x4 ADD PUSH2 0x29C SWAP1 PUSH2 0xF73 JUMP JUMPDEST PUSH1 0x60 PUSH2 0xAC2 DUP5 DUP5 PUSH1 0x0 DUP6 PUSH2 0xACA JUMP JUMPDEST SWAP5 SWAP4 POP POP POP POP JUMP JUMPDEST PUSH1 0x60 DUP3 SELFBALANCE LT ISZERO PUSH2 0xAEC JUMPI PUSH1 0x40 MLOAD PUSH3 0x461BCD PUSH1 0xE5 SHL DUP2 MSTORE PUSH1 0x4 ADD PUSH2 0x29C SWAP1 PUSH2 0xDF3 JUMP JUMPDEST PUSH2 0xAF5 DUP6 PUSH2 0xB8B JUMP JUMPDEST PUSH2 0xB11 JUMPI PUSH1 0x40 MLOAD PUSH3 0x461BCD PUSH1 0xE5 SHL DUP2 MSTORE PUSH1 0x4 ADD PUSH2 0x29C SWAP1 PUSH2 0xF3C JUMP JUMPDEST PUSH1 0x0 PUSH1 0x60 DUP7 PUSH1 0x1 PUSH1 0x1 PUSH1 0xA0 SHL SUB AND DUP6 DUP8 PUSH1 0x40 MLOAD PUSH2 0xB2E SWAP2 SWAP1 PUSH2 0xCC3 JUMP JUMPDEST PUSH1 0x0 PUSH1 0x40 MLOAD DUP1 DUP4 SUB DUP2 DUP6 DUP8 GAS CALL SWAP3 POP POP POP RETURNDATASIZE DUP1 PUSH1 0x0 DUP2 EQ PUSH2 0xB6B JUMPI PUSH1 0x40 MLOAD SWAP2 POP PUSH1 0x1F NOT PUSH1 0x3F RETURNDATASIZE ADD AND DUP3 ADD PUSH1 0x40 MSTORE RETURNDATASIZE DUP3 MSTORE RETURNDATASIZE PUSH1 0x0 PUSH1 0x20 DUP5 ADD RETURNDATACOPY PUSH2 0xB70 JUMP JUMPDEST PUSH1 0x60 SWAP2 POP JUMPDEST POP SWAP2 POP SWAP2 POP PUSH2 0xB80 DUP3 DUP3 DUP7 PUSH2 0xB91 JUMP JUMPDEST SWAP8 SWAP7 POP POP POP POP POP POP POP JUMP JUMPDEST EXTCODESIZE ISZERO ISZERO SWAP1 JUMP JUMPDEST PUSH1 0x60 DUP4 ISZERO PUSH2 0xBA0 JUMPI POP DUP2 PUSH2 0x99E JUMP JUMPDEST DUP3 MLOAD ISZERO PUSH2 0xBB0 JUMPI DUP3 MLOAD DUP1 DUP5 PUSH1 0x20 ADD REVERT JUMPDEST DUP2 PUSH1 0x40 MLOAD PUSH3 0x461BCD PUSH1 0xE5 SHL DUP2 MSTORE PUSH1 0x4 ADD PUSH2 0x29C SWAP2 SWAP1 PUSH2 0xD0C JUMP JUMPDEST PUSH1 0x40 MLOAD DUP1 PUSH1 0x60 ADD PUSH1 0x40 MSTORE DUP1 PUSH1 0x0 DUP2 MSTORE PUSH1 0x20 ADD PUSH1 0x0 DUP2 MSTORE PUSH1 0x20 ADD PUSH1 0x0 DUP2 MSTORE POP SWAP1 JUMP JUMPDEST PUSH1 0x0 PUSH1 0x20 DUP3 DUP5 SUB SLT ISZERO PUSH2 0xBFC JUMPI DUP1 DUP2 REVERT JUMPDEST DUP2 CALLDATALOAD PUSH2 0x99E DUP2 PUSH2 0x103B JUMP JUMPDEST PUSH1 0x0 DUP1 PUSH1 0x40 DUP4 DUP6 SUB SLT ISZERO PUSH2 0xC19 JUMPI DUP1 DUP2 REVERT JUMPDEST DUP3 CALLDATALOAD PUSH2 0xC24 DUP2 PUSH2 0x103B JUMP JUMPDEST SWAP5 PUSH1 0x20 SWAP4 SWAP1 SWAP4 ADD CALLDATALOAD SWAP4 POP POP POP JUMP JUMPDEST PUSH1 0x0 DUP1 PUSH1 0x0 PUSH1 0x60 DUP5 DUP7 SUB SLT ISZERO PUSH2 0xC46 JUMPI DUP1 DUP2 REVERT JUMPDEST DUP4 CALLDATALOAD PUSH2 0xC51 DUP2 PUSH2 0x103B JUMP JUMPDEST SWAP3 POP PUSH1 0x20 DUP5 ADD CALLDATALOAD SWAP2 POP PUSH1 0x40 DUP5 ADD CALLDATALOAD PUSH2 0xC68 DUP2 PUSH2 0x103B JUMP JUMPDEST DUP1 SWAP2 POP POP SWAP3 POP SWAP3 POP SWAP3 JUMP JUMPDEST PUSH1 0x0 PUSH1 0x20 DUP3 DUP5 SUB SLT ISZERO PUSH2 0xC84 JUMPI DUP1 DUP2 REVERT JUMPDEST DUP2 MLOAD DUP1 ISZERO ISZERO DUP2 EQ PUSH2 0x99E JUMPI DUP2 DUP3 REVERT JUMPDEST PUSH1 0x0 PUSH1 0x20 DUP3 DUP5 SUB SLT ISZERO PUSH2 0xCA4 JUMPI DUP1 DUP2 REVERT JUMPDEST POP CALLDATALOAD SWAP2 SWAP1 POP JUMP JUMPDEST PUSH1 0x0 PUSH1 0x20 DUP3 DUP5 SUB SLT ISZERO PUSH2 0xCBC JUMPI DUP1 DUP2 REVERT JUMPDEST POP MLOAD SWAP2 SWAP1 POP JUMP JUMPDEST PUSH1 0x0 DUP3 MLOAD PUSH2 0xCD5 DUP2 DUP5 PUSH1 0x20 DUP8 ADD PUSH2 0x100B JUMP JUMPDEST SWAP2 SWAP1 SWAP2 ADD SWAP3 SWAP2 POP POP JUMP JUMPDEST PUSH1 0x1 PUSH1 0x1 PUSH1 0xA0 SHL SUB SWAP2 SWAP1 SWAP2 AND DUP2 MSTORE PUSH1 0x20 ADD SWAP1 JUMP JUMPDEST PUSH1 0x1 PUSH1 0x1 PUSH1 0xA0 SHL SUB SWAP3 SWAP1 SWAP3 AND DUP3 MSTORE PUSH1 0x20 DUP3 ADD MSTORE PUSH1 0x40 ADD SWAP1 JUMP JUMPDEST PUSH1 0x0 PUSH1 0x20 DUP3 MSTORE DUP3 MLOAD DUP1 PUSH1 0x20 DUP5 ADD MSTORE PUSH2 0xD2B DUP2 PUSH1 0x40 DUP6 ADD PUSH1 0x20 DUP8 ADD PUSH2 0x100B JUMP JUMPDEST PUSH1 0x1F ADD PUSH1 0x1F NOT AND SWAP2 SWAP1 SWAP2 ADD PUSH1 0x40 ADD SWAP3 SWAP2 POP POP JUMP JUMPDEST PUSH1 0x20 DUP1 DUP3 MSTORE PUSH1 0x26 SWAP1 DUP3 ADD MSTORE PUSH32 0x4F776E61626C653A206E6577206F776E657220697320746865207A65726F2061 PUSH1 0x40 DUP3 ADD MSTORE PUSH6 0x646472657373 PUSH1 0xD0 SHL PUSH1 0x60 DUP3 ADD MSTORE PUSH1 0x80 ADD SWAP1 JUMP JUMPDEST PUSH1 0x20 DUP1 DUP3 MSTORE PUSH1 0x1B SWAP1 DUP3 ADD MSTORE PUSH32 0x536166654D6174683A206164646974696F6E206F766572666C6F770000000000 PUSH1 0x40 DUP3 ADD MSTORE PUSH1 0x60 ADD SWAP1 JUMP JUMPDEST PUSH1 0x20 DUP1 DUP3 MSTORE PUSH1 0x1E SWAP1 DUP3 ADD MSTORE PUSH32 0x536166654D6174683A207375627472616374696F6E206F766572666C6F770000 PUSH1 0x40 DUP3 ADD MSTORE PUSH1 0x60 ADD SWAP1 JUMP JUMPDEST PUSH1 0x20 DUP1 DUP3 MSTORE PUSH1 0x26 SWAP1 DUP3 ADD MSTORE PUSH32 0x416464726573733A20696E73756666696369656E742062616C616E636520666F PUSH1 0x40 DUP3 ADD MSTORE PUSH6 0x1C8818D85B1B PUSH1 0xD2 SHL PUSH1 0x60 DUP3 ADD MSTORE PUSH1 0x80 ADD SWAP1 JUMP JUMPDEST PUSH1 0x20 DUP1 DUP3 MSTORE PUSH1 0x1A SWAP1 DUP3 ADD MSTORE PUSH32 0x536166654D6174683A206469766973696F6E206279207A65726F000000000000 PUSH1 0x40 DUP3 ADD MSTORE PUSH1 0x60 ADD SWAP1 JUMP JUMPDEST PUSH1 0x20 DUP1 DUP3 MSTORE PUSH1 0x21 SWAP1 DUP3 ADD MSTORE PUSH32 0x536166654D6174683A206D756C7469706C69636174696F6E206F766572666C6F PUSH1 0x40 DUP3 ADD MSTORE PUSH1 0x77 PUSH1 0xF8 SHL PUSH1 0x60 DUP3 ADD MSTORE PUSH1 0x80 ADD SWAP1 JUMP JUMPDEST PUSH1 0x20 DUP1 DUP3 MSTORE DUP2 DUP2 ADD MSTORE PUSH32 0x4F776E61626C653A2063616C6C6572206973206E6F7420746865206F776E6572 PUSH1 0x40 DUP3 ADD MSTORE PUSH1 0x60 ADD SWAP1 JUMP JUMPDEST PUSH1 0x20 DUP1 DUP3 MSTORE PUSH1 0x36 SWAP1 DUP3 ADD MSTORE PUSH32 0x6F6E6C794D6173746572436865663A206F6E6C79204D61737465724368656620 PUSH1 0x40 DUP3 ADD MSTORE PUSH22 0x31B0B71031B0B636103A3434B990333AB731BA34B7B7 PUSH1 0x51 SHL PUSH1 0x60 DUP3 ADD MSTORE PUSH1 0x80 ADD SWAP1 JUMP JUMPDEST PUSH1 0x20 DUP1 DUP3 MSTORE PUSH1 0x1D SWAP1 DUP3 ADD MSTORE PUSH32 0x416464726573733A2063616C6C20746F206E6F6E2D636F6E7472616374000000 PUSH1 0x40 DUP3 ADD MSTORE PUSH1 0x60 ADD SWAP1 JUMP JUMPDEST PUSH1 0x20 DUP1 DUP3 MSTORE PUSH1 0x2A SWAP1 DUP3 ADD MSTORE PUSH32 0x5361666545524332303A204552433230206F7065726174696F6E20646964206E PUSH1 0x40 DUP3 ADD MSTORE PUSH10 0x1BDD081CDD58D8D95959 PUSH1 0xB2 SHL PUSH1 0x60 DUP3 ADD MSTORE PUSH1 0x80 ADD SWAP1 JUMP JUMPDEST DUP2 MLOAD DUP2 MSTORE PUSH1 0x20 DUP1 DUP4 ADD MLOAD SWAP1 DUP3 ADD MSTORE PUSH1 0x40 SWAP2 DUP3 ADD MLOAD SWAP2 DUP2 ADD SWAP2 SWAP1 SWAP2 MSTORE PUSH1 0x60 ADD SWAP1 JUMP JUMPDEST SWAP1 DUP2 MSTORE PUSH1 0x20 ADD SWAP1 JUMP JUMPDEST SWAP2 DUP3 MSTORE PUSH1 0x20 DUP3 ADD MSTORE PUSH1 0x40 ADD SWAP1 JUMP JUMPDEST SWAP3 DUP4 MSTORE PUSH1 0x20 DUP4 ADD SWAP2 SWAP1 SWAP2 MSTORE PUSH1 0x40 DUP3 ADD MSTORE PUSH1 0x60 ADD SWAP1 JUMP JUMPDEST PUSH1 0x0 JUMPDEST DUP4 DUP2 LT ISZERO PUSH2 0x1026 JUMPI DUP2 DUP2 ADD MLOAD DUP4 DUP3 ADD MSTORE PUSH1 0x20 ADD PUSH2 0x100E JUMP JUMPDEST DUP4 DUP2 GT ISZERO PUSH2 0x1035 JUMPI PUSH1 0x0 DUP5 DUP5 ADD MSTORE JUMPDEST POP POP POP POP JUMP JUMPDEST PUSH1 0x1 PUSH1 0x1 PUSH1 0xA0 SHL SUB DUP2 AND DUP2 EQ PUSH2 0x1050 JUMPI PUSH1 0x0 DUP1 REVERT JUMPDEST POP JUMP INVALID LOG2 PUSH5 0x6970667358 0x22 SLT KECCAK256 0x1F CODECOPY 0xFB 0xA8 PUSH8 0xEED2B84E41685B86 ADDMOD 0x48 0xBE PUSH17 0x4F03C20696381D42DCCDB7FDE3669F6473 PUSH16 0x6C634300060C00330000000000000000 "},"gasEstimates":{"creation":{"codeDepositCost":"846600","executionCost":"infinite","totalCost":"infinite"},"external":{"chef()":"infinite","lpToken()":"infinite","onReward(address,uint256)":"infinite","owner()":"1160","pendingReward(address,uint256)":"infinite","poolInfo()":"2747","reclaimTokens(address,uint256,address)":"infinite","renounceOwnership()":"24323","rewardPerSecond()":"1051","rewardToken()":"infinite","setRewardPerSecond(uint256)":"infinite","transferOwnership(address)":"24529","updatePool()":"infinite","userInfo(address)":"2103"}},"methodIdentifiers":{"chef()":"1fc8bc5d","lpToken()":"5fcbd285","onReward(address,uint256)":"c3723288","owner()":"8da5cb5b","pendingReward(address,uint256)":"f430cf0d","poolInfo()":"5a2f3d09","reclaimTokens(address,uint256,address)":"c1ea3868","renounceOwnership()":"715018a6","rewardPerSecond()":"8f10369a","rewardToken()":"f7c618c1","setRewardPerSecond(uint256)":"66da5815","transferOwnership(address)":"f2fde38b","updatePool()":"e3161ddd","userInfo(address)":"1959a002"}},"storageLayout":{"storage":[{"astId":430,"contract":"contracts/Rewarder.sol:Rewarder","label":"_owner","offset":0,"slot":"0","type":"t_address"},{"astId":5458,"contract":"contracts/Rewarder.sol:Rewarder","label":"poolInfo","offset":0,"slot":"1","type":"t_struct(PoolInfo)5456_storage"},{"astId":5462,"contract":"contracts/Rewarder.sol:Rewarder","label":"userInfo","offset":0,"slot":"4","type":"t_mapping(t_address,t_struct(UserInfo)5449_storage)"},{"astId":5464,"contract":"contracts/Rewarder.sol:Rewarder","label":"rewardPerSecond","offset":0,"slot":"5","type":"t_uint256"}],"types":{"t_address":{"encoding":"inplace","label":"address","numberOfBytes":"20"},"t_mapping(t_address,t_struct(UserInfo)5449_storage)":{"encoding":"mapping","key":"t_address","label":"mapping(address => struct Rewarder.UserInfo)","numberOfBytes":"32","value":"t_struct(UserInfo)5449_storage"},"t_struct(PoolInfo)5456_storage":{"encoding":"inplace","label":"struct Rewarder.PoolInfo","members":[{"astId":5451,"contract":"contracts/Rewarder.sol:Rewarder","label":"accRewardPerShare","offset":0,"slot":"0","type":"t_uint256"},{"astId":5453,"contract":"contracts/Rewarder.sol:Rewarder","label":"lastRewardTime","offset":0,"slot":"1","type":"t_uint256"},{"astId":5455,"contract":"contracts/Rewarder.sol:Rewarder","label":"totalLp","offset":0,"slot":"2","type":"t_uint256"}],"numberOfBytes":"96"},"t_struct(UserInfo)5449_storage":{"encoding":"inplace","label":"struct Rewarder.UserInfo","members":[{"astId":5446,"contract":"contracts/Rewarder.sol:Rewarder","label":"amount","offset":0,"slot":"0","type":"t_uint256"},{"astId":5448,"contract":"contracts/Rewarder.sol:Rewarder","label":"rewardDebt","offset":0,"slot":"1","type":"t_uint256"}],"numberOfBytes":"64"},"t_uint256":{"encoding":"inplace","label":"uint256","numberOfBytes":"32"}}},"userdoc":{"kind":"user","methods":{},"version":1}}}}