{
  "_format": "hh-sol-artifact-1",
  "contractName": "MoraMakerV2",
  "sourceName": "contracts/MoraMakerV2.sol",
  "abi": [
    {
      "inputs": [
        {
          "internalType": "address",
          "name": "_factory",
          "type": "address"
        },
        {
          "internalType": "address",
          "name": "_bar",
          "type": "address"
        },
        {
          "internalType": "address",
          "name": "_tokenTo",
          "type": "address"
        },
        {
          "internalType": "address",
          "name": "_weth9",
          "type": "address"
        }
      ],
      "stateMutability": "nonpayable",
      "type": "constructor"
    },
    {
      "anonymous": false,
      "inputs": [
        {
          "indexed": true,
          "internalType": "address",
          "name": "_addr",
          "type": "address"
        }
      ],
      "name": "AddAuthorizedAddress",
      "type": "event"
    },
    {
      "anonymous": false,
      "inputs": [
        {
          "indexed": true,
          "internalType": "address",
          "name": "token",
          "type": "address"
        },
        {
          "indexed": true,
          "internalType": "address",
          "name": "oldBridge",
          "type": "address"
        },
        {
          "indexed": true,
          "internalType": "address",
          "name": "bridge",
          "type": "address"
        }
      ],
      "name": "LogBridgeSet",
      "type": "event"
    },
    {
      "anonymous": false,
      "inputs": [
        {
          "indexed": true,
          "internalType": "address",
          "name": "server",
          "type": "address"
        },
        {
          "indexed": true,
          "internalType": "address",
          "name": "token0",
          "type": "address"
        },
        {
          "indexed": true,
          "internalType": "address",
          "name": "token1",
          "type": "address"
        },
        {
          "indexed": false,
          "internalType": "uint256",
          "name": "amount0",
          "type": "uint256"
        },
        {
          "indexed": false,
          "internalType": "uint256",
          "name": "amount1",
          "type": "uint256"
        },
        {
          "indexed": false,
          "internalType": "uint256",
          "name": "amountTOKEN",
          "type": "uint256"
        }
      ],
      "name": "LogConvert",
      "type": "event"
    },
    {
      "anonymous": false,
      "inputs": [
        {
          "indexed": true,
          "internalType": "address",
          "name": "previousOwner",
          "type": "address"
        },
        {
          "indexed": true,
          "internalType": "address",
          "name": "newOwner",
          "type": "address"
        }
      ],
      "name": "OwnershipTransferred",
      "type": "event"
    },
    {
      "anonymous": false,
      "inputs": [
        {
          "indexed": true,
          "internalType": "address",
          "name": "_addr",
          "type": "address"
        }
      ],
      "name": "RemoveAuthorizedAddress",
      "type": "event"
    },
    {
      "anonymous": false,
      "inputs": [
        {
          "indexed": false,
          "internalType": "address",
          "name": "_addr",
          "type": "address"
        }
      ],
      "name": "SetDevAddr",
      "type": "event"
    },
    {
      "anonymous": false,
      "inputs": [
        {
          "indexed": false,
          "internalType": "uint256",
          "name": "_amount",
          "type": "uint256"
        }
      ],
      "name": "SetDevCut",
      "type": "event"
    },
    {
      "anonymous": false,
      "inputs": [
        {
          "indexed": false,
          "internalType": "address",
          "name": "_tokenTo",
          "type": "address"
        }
      ],
      "name": "SetTokenTo",
      "type": "event"
    },
    {
      "inputs": [
        {
          "internalType": "address",
          "name": "_auth",
          "type": "address"
        }
      ],
      "name": "addAuth",
      "outputs": [],
      "stateMutability": "nonpayable",
      "type": "function"
    },
    {
      "inputs": [],
      "name": "bar",
      "outputs": [
        {
          "internalType": "address",
          "name": "",
          "type": "address"
        }
      ],
      "stateMutability": "view",
      "type": "function"
    },
    {
      "inputs": [
        {
          "internalType": "address",
          "name": "token",
          "type": "address"
        }
      ],
      "name": "bridgeFor",
      "outputs": [
        {
          "internalType": "address",
          "name": "bridge",
          "type": "address"
        }
      ],
      "stateMutability": "view",
      "type": "function"
    },
    {
      "inputs": [
        {
          "internalType": "address",
          "name": "token0",
          "type": "address"
        },
        {
          "internalType": "address",
          "name": "token1",
          "type": "address"
        },
        {
          "internalType": "uint256",
          "name": "slippage",
          "type": "uint256"
        }
      ],
      "name": "convert",
      "outputs": [],
      "stateMutability": "nonpayable",
      "type": "function"
    },
    {
      "inputs": [
        {
          "internalType": "address[]",
          "name": "token0",
          "type": "address[]"
        },
        {
          "internalType": "address[]",
          "name": "token1",
          "type": "address[]"
        },
        {
          "internalType": "uint256",
          "name": "slippage",
          "type": "uint256"
        }
      ],
      "name": "convertMultiple",
      "outputs": [],
      "stateMutability": "nonpayable",
      "type": "function"
    },
    {
      "inputs": [],
      "name": "devAddr",
      "outputs": [
        {
          "internalType": "address",
          "name": "",
          "type": "address"
        }
      ],
      "stateMutability": "view",
      "type": "function"
    },
    {
      "inputs": [],
      "name": "devCut",
      "outputs": [
        {
          "internalType": "uint256",
          "name": "",
          "type": "uint256"
        }
      ],
      "stateMutability": "view",
      "type": "function"
    },
    {
      "inputs": [],
      "name": "factory",
      "outputs": [
        {
          "internalType": "contract IMoraswapV2Factory",
          "name": "",
          "type": "address"
        }
      ],
      "stateMutability": "view",
      "type": "function"
    },
    {
      "inputs": [
        {
          "internalType": "uint256",
          "name": "index",
          "type": "uint256"
        }
      ],
      "name": "getAuth",
      "outputs": [
        {
          "internalType": "address",
          "name": "",
          "type": "address"
        }
      ],
      "stateMutability": "view",
      "type": "function"
    },
    {
      "inputs": [],
      "name": "lenAuth",
      "outputs": [
        {
          "internalType": "uint256",
          "name": "",
          "type": "uint256"
        }
      ],
      "stateMutability": "view",
      "type": "function"
    },
    {
      "inputs": [],
      "name": "owner",
      "outputs": [
        {
          "internalType": "address",
          "name": "",
          "type": "address"
        }
      ],
      "stateMutability": "view",
      "type": "function"
    },
    {
      "inputs": [
        {
          "internalType": "address",
          "name": "_auth",
          "type": "address"
        }
      ],
      "name": "removeAuth",
      "outputs": [],
      "stateMutability": "nonpayable",
      "type": "function"
    },
    {
      "inputs": [],
      "name": "renounceOwnership",
      "outputs": [],
      "stateMutability": "nonpayable",
      "type": "function"
    },
    {
      "inputs": [
        {
          "internalType": "address",
          "name": "token",
          "type": "address"
        },
        {
          "internalType": "address",
          "name": "bridge",
          "type": "address"
        }
      ],
      "name": "setBridge",
      "outputs": [],
      "stateMutability": "nonpayable",
      "type": "function"
    },
    {
      "inputs": [
        {
          "internalType": "address",
          "name": "_addr",
          "type": "address"
        }
      ],
      "name": "setDevAddr",
      "outputs": [],
      "stateMutability": "nonpayable",
      "type": "function"
    },
    {
      "inputs": [
        {
          "internalType": "uint256",
          "name": "_amount",
          "type": "uint256"
        }
      ],
      "name": "setDevCut",
      "outputs": [],
      "stateMutability": "nonpayable",
      "type": "function"
    },
    {
      "inputs": [
        {
          "internalType": "address",
          "name": "_tokenTo",
          "type": "address"
        }
      ],
      "name": "setTokenToAddress",
      "outputs": [],
      "stateMutability": "nonpayable",
      "type": "function"
    },
    {
      "inputs": [],
      "name": "tokenTo",
      "outputs": [
        {
          "internalType": "address",
          "name": "",
          "type": "address"
        }
      ],
      "stateMutability": "view",
      "type": "function"
    },
    {
      "inputs": [
        {
          "internalType": "address",
          "name": "newOwner",
          "type": "address"
        }
      ],
      "name": "transferOwnership",
      "outputs": [],
      "stateMutability": "nonpayable",
      "type": "function"
    }
  ],
  "bytecode": "0x60e060405260006002553480156200001657600080fd5b5060405162002a9c38038062002a9c833981810160405260808110156200003c57600080fd5b508051602082015160408301516060909301519192909160006200005f6200028b565b600080546001600160a01b0319166001600160a01b0383169081178255604051929350917f8be0079c531659141344cd1fd0a4f28419497f9722a3daafe3b4186f6b6457e0908290a3506001600160a01b03841662000105576040805162461bcd60e51b815260206004820152601a60248201527f4d6f72614d616b657256323a205a45524f5f4144445245535330000000000000604482015290519081900360640190fd5b6001600160a01b03831662000161576040805162461bcd60e51b815260206004820152601a60248201527f4d6f72614d616b657256323a205a45524f5f4144445245535331000000000000604482015290519081900360640190fd5b6001600160a01b038216620001bd576040805162461bcd60e51b815260206004820152601a60248201527f4d6f72614d616b657256323a205a45524f5f4144445245535332000000000000604482015290519081900360640190fd5b6001600160a01b03811662000219576040805162461bcd60e51b815260206004820152601a60248201527f4d6f72614d616b657256323a205a45524f5f4144445245535333000000000000604482015290519081900360640190fd5b606084811b6001600160601b031990811660805284821b811660a052600180546001600160a01b03199081166001600160a01b038716179091559183901b1660c052600380543392168217905562000280906004906200028f602090811b62000fa017901c565b505050505062000316565b3390565b6000620002a6836001600160a01b038416620002af565b90505b92915050565b6000620002bd8383620002fe565b620002f557508154600181810184556000848152602080822090930184905584548482528286019093526040902091909155620002a9565b506000620002a9565b60009081526001919091016020526040902054151590565b60805160601c60a05160601c60c05160601c6127056200039760003980610bf55280610d20528061166d52806116aa52806117d2528061180f5280611838528061186752806118a452806118cd525080610f7e528061163e5280611733528061179c5280611c4b525080610d5552806110805280611c7152506127056000f3fe608060405234801561001057600080fd5b50600436106101215760003560e01c80638da5cb5b116100ad578063c45a015511610071578063c45a01551461037f578063da09c72c14610387578063dbcc106d1461038f578063f2fde38b146103ac578063febb0f7e146103d257610121565b80638da5cb5b146103135780639c2868371461031b5780639d22ae8c14610323578063a761a93914610351578063c17b73261461037757610121565b80635422224e116100f45780635422224e146102605780636ebb64a214610286578063715018a6146102ac5780637ccaacbb146102b45780637f3fd918146102ed57610121565b8063159e6f07146101265780631d380d3f14610140578063248391ff146101685780633feb270e1461019e575b600080fd5b61012e6103da565b60408051918252519081900360200190f35b6101666004803603602081101561015657600080fd5b50356001600160a01b03166103eb565b005b6101666004803603606081101561017e57600080fd5b506001600160a01b038135811691602081013590911690604001356104fc565b610166600480360360608110156101b457600080fd5b8101906020810181356401000000008111156101cf57600080fd5b8201836020820111156101e157600080fd5b8035906020019184602083028401116401000000008311171561020357600080fd5b91939092909160208101903564010000000081111561022157600080fd5b82018360208201111561023357600080fd5b8035906020019184602083028401116401000000008311171561025557600080fd5b919350915035610607565b6101666004803603602081101561027657600080fd5b50356001600160a01b03166107b4565b6101666004803603602081101561029c57600080fd5b50356001600160a01b03166108a9565b6101666109ba565b6102d1600480360360208110156102ca57600080fd5b5035610a66565b604080516001600160a01b039092168252519081900360200190f35b6101666004803603602081101561030357600080fd5b50356001600160a01b0316610a7b565b6102d1610b70565b61012e610b7f565b6101666004803603604081101561033957600080fd5b506001600160a01b0381358116916020013516610b85565b6102d16004803603602081101561036757600080fd5b50356001600160a01b0316610cfd565b6102d1610d44565b6102d1610d53565b6102d1610d77565b610166600480360360208110156103a557600080fd5b5035610d86565b610166600480360360208110156103c257600080fd5b50356001600160a01b0316610e7a565b6102d1610f7c565b60006103e66004610fbe565b905090565b6103f3610fc9565b6001600160a01b0316610404610b70565b6001600160a01b03161461044d576040805162461bcd60e51b8152602060048201819052602482015260008051602061265a833981519152604482015290519081900360640190fd5b6001600160a01b0381166104a8576040805162461bcd60e51b815260206004820152601f60248201527f736574546f6b656e546f416464726573732c205a45524f5f4144445245535300604482015290519081900360640190fd5b600180546001600160a01b0383166001600160a01b0319909116811790915560408051918252517fbf32c8b1124ae0b6584a5354b035cdfbcfbbba82075e3c7bffc9bf655dc5376e9181900360200190a150565b33321461054c576040805162461bcd60e51b81526020600482015260196024820152784d6f72614d616b657256323a204d5553545f5553455f454f4160381b604482015290519081900360640190fd5b610557600433610fcd565b6105a1576040805162461bcd60e51b815260206004820152601660248201527526b7b930a6b0b5b2b92b191d102327a92124a22222a760511b604482015290519081900360640190fd5b61138881106105f7576040805162461bcd60e51b815260206004820152601e60248201527f4d6f72614d616b657256323a20544f4f5f484947485f534c4950504147450000604482015290519081900360640190fd5b610602838383610fe2565b505050565b333214610657576040805162461bcd60e51b81526020600482015260196024820152784d6f72614d616b657256323a204d5553545f5553455f454f4160381b604482015290519081900360640190fd5b610662600433610fcd565b6106ac576040805162461bcd60e51b815260206004820152601660248201527526b7b930a6b0b5b2b92b191d102327a92124a22222a760511b604482015290519081900360640190fd5b6113888110610702576040805162461bcd60e51b815260206004820152601e60248201527f4d6f72614d616b657256323a20544f4f5f484947485f534c4950504147450000604482015290519081900360640190fd5b838214610756576040805162461bcd60e51b815260206004820152601e60248201527f4d6f72614d616b657256323a204241445f4152524159535f4c454e4754480000604482015290519081900360640190fd5b8360005b818110156107ab576107a387878381811061077157fe5b905060200201356001600160a01b031686868481811061078d57fe5b905060200201356001600160a01b031685610fe2565b60010161075a565b50505050505050565b6107bc610fc9565b6001600160a01b03166107cd610b70565b6001600160a01b031614610816576040805162461bcd60e51b8152602060048201819052602482015260008051602061265a833981519152604482015290519081900360640190fd5b610821600482610fa0565b610872576040805162461bcd60e51b815260206004820152601f60248201527f4d6f72614d616b657256323a20414c52454144595f415554484f52495a454400604482015290519081900360640190fd5b6040516001600160a01b038216907f030e24b250019d43c83e1350821892b74b895598b35969ae338242047c815b4990600090a250565b6108b1610fc9565b6001600160a01b03166108c2610b70565b6001600160a01b03161461090b576040805162461bcd60e51b8152602060048201819052602482015260008051602061265a833981519152604482015290519081900360640190fd5b6001600160a01b038116610966576040805162461bcd60e51b815260206004820152601860248201527f736574446576416464722c205a45524f5f414444524553530000000000000000604482015290519081900360640190fd5b600380546001600160a01b0383166001600160a01b0319909116811790915560408051918252517f45c73fc162405abe4471c4228f0797176ac32cb9f7be4a25a67cbd1dda6d007e9181900360200190a150565b6109c2610fc9565b6001600160a01b03166109d3610b70565b6001600160a01b031614610a1c576040805162461bcd60e51b8152602060048201819052602482015260008051602061265a833981519152604482015290519081900360640190fd5b600080546040516001600160a01b03909116907f8be0079c531659141344cd1fd0a4f28419497f9722a3daafe3b4186f6b6457e0908390a3600080546001600160a01b0319169055565b6000610a736004836114b5565b90505b919050565b610a83610fc9565b6001600160a01b0316610a94610b70565b6001600160a01b031614610add576040805162461bcd60e51b8152602060048201819052602482015260008051602061265a833981519152604482015290519081900360640190fd5b610ae86004826114c1565b610b39576040805162461bcd60e51b815260206004820152601b60248201527f4d6f72614d616b657256323a204e4f545f415554484f52495a45440000000000604482015290519081900360640190fd5b6040516001600160a01b038216907ff39efc52b4beccf22e624f7c591cc2dbfdb4359a0fe0801b1319d162833c0ec590600090a250565b6000546001600160a01b031690565b60025481565b610b90600433610fcd565b610bda576040805162461bcd60e51b815260206004820152601660248201527526b7b930a6b0b5b2b92b191d102327a92124a22222a760511b604482015290519081900360640190fd5b6001546001600160a01b03838116911614801590610c2a57507f00000000000000000000000000000000000000000000000000000000000000006001600160a01b0316826001600160a01b031614155b8015610c485750806001600160a01b0316826001600160a01b031614155b610c99576040805162461bcd60e51b815260206004820152601b60248201527f4d6f72614d616b657256323a20494e56414c49445f4252494447450000000000604482015290519081900360640190fd5b6001600160a01b0380831660008181526006602052604080822080548686166001600160a01b0319821681179092559151919094169392849290917f15e77ca45c8933ccd9fb9c909fd297b4ff5f8b931ba6e5d9df3edbc88f172c149190a4505050565b6001600160a01b038082166000908152600660205260409020541680610a7657507f0000000000000000000000000000000000000000000000000000000000000000919050565b6001546001600160a01b031681565b7f000000000000000000000000000000000000000000000000000000000000000081565b6003546001600160a01b031681565b610d8e610fc9565b6001600160a01b0316610d9f610b70565b6001600160a01b031614610de8576040805162461bcd60e51b8152602060048201819052602482015260008051602061265a833981519152604482015290519081900360640190fd5b611388811115610e3f576040805162461bcd60e51b815260206004820152601760248201527f7365744465764375743a204355545f544f4f5f48494748000000000000000000604482015290519081900360640190fd5b60028190556040805182815290517f914990c75916d406c148e7fca9308486d7806a77c0ef66119c9329add5885d2e9181900360200190a150565b610e82610fc9565b6001600160a01b0316610e93610b70565b6001600160a01b031614610edc576040805162461bcd60e51b8152602060048201819052602482015260008051602061265a833981519152604482015290519081900360640190fd5b6001600160a01b038116610f215760405162461bcd60e51b81526004018080602001828103825260268152602001806125c46026913960400191505060405180910390fd5b600080546040516001600160a01b03808516939216917f8be0079c531659141344cd1fd0a4f28419497f9722a3daafe3b4186f6b6457e091a3600080546001600160a01b0319166001600160a01b0392909216919091179055565b7f000000000000000000000000000000000000000000000000000000000000000081565b6000610fb5836001600160a01b0384166114d6565b90505b92915050565b6000610a7382611520565b3390565b6000610fb5836001600160a01b038416611524565b600080836001600160a01b0316856001600160a01b0316141561107c57604080516370a0823160e01b815230600482015290516001600160a01b038716916370a08231916024808301926020929190829003018186803b15801561104557600080fd5b505afa158015611059573d6000803e3d6000fd5b505050506040513d602081101561106f57600080fd5b5051915060009050611452565b60007f00000000000000000000000000000000000000000000000000000000000000006001600160a01b031663e6a4390587876040518363ffffffff1660e01b815260040180836001600160a01b03168152602001826001600160a01b031681526020019250505060206040518083038186803b1580156110fc57600080fd5b505afa158015611110573d6000803e3d6000fd5b505050506040513d602081101561112657600080fd5b505190506001600160a01b038116611185576040805162461bcd60e51b815260206004820152601960248201527f4d6f72614d616b657256323a20494e56414c49445f5041495200000000000000604482015290519081900360640190fd5b61121381826001600160a01b03166370a08231306040518263ffffffff1660e01b815260040180826001600160a01b0316815260200191505060206040518083038186803b1580156111d657600080fd5b505afa1580156111ea573d6000803e3d6000fd5b505050506040513d602081101561120057600080fd5b50516001600160a01b038416919061153c565b6000866001600160a01b03166370a08231306040518263ffffffff1660e01b815260040180826001600160a01b0316815260200191505060206040518083038186803b15801561126257600080fd5b505afa158015611276573d6000803e3d6000fd5b505050506040513d602081101561128c57600080fd5b5051604080516370a0823160e01b815230600482015290519192506000916001600160a01b038916916370a08231916024808301926020929190829003018186803b1580156112da57600080fd5b505afa1580156112ee573d6000803e3d6000fd5b505050506040513d602081101561130457600080fd5b50516040805163226bf2d160e21b815230600482015281519293506001600160a01b038616926389afcb44926024808401939192918290030181600087803b15801561134f57600080fd5b505af1158015611363573d6000803e3d6000fd5b505050506040513d604081101561137957600080fd5b5050604080516370a0823160e01b815230600482015290516113f99184916001600160a01b038c16916370a08231916024808301926020929190829003018186803b1580156113c757600080fd5b505afa1580156113db573d6000803e3d6000fd5b505050506040513d60208110156113f157600080fd5b50519061158e565b945061144c81886001600160a01b03166370a08231306040518263ffffffff1660e01b815260040180826001600160a01b0316815260200191505060206040518083038186803b1580156113c757600080fd5b93505050505b6001600160a01b03808516908616337fd06b1d7ed79b664d17472c6f6997b929f1abe463ccccb4e5b6a0038f2f730c1585856114918b8b84848d6115eb565b60408051938452602084019290925282820152519081900360600190a45050505050565b6000610fb583836119a9565b6000610fb5836001600160a01b038416611a0d565b60006114e28383611524565b61151857508154600181810184556000848152602080822090930184905584548482528286019093526040902091909155610fb8565b506000610fb8565b5490565b60009081526001919091016020526040902054151590565b604080516001600160a01b038416602482015260448082018490528251808303909101815260649091019091526020810180516001600160e01b031663a9059cbb60e01b179052610602908490611ad3565b6000828211156115e5576040805162461bcd60e51b815260206004820152601e60248201527f536166654d6174683a207375627472616374696f6e206f766572666c6f770000604482015290519081900360640190fd5b50900390565b6000846001600160a01b0316866001600160a01b0316141561170b5760006116138585611b84565b6001549091506001600160a01b038881169116141561166b57600154611663906001600160a01b03167f00000000000000000000000000000000000000000000000000000000000000008361153c565b809150611705565b7f00000000000000000000000000000000000000000000000000000000000000006001600160a01b0316876001600160a01b031614156116d7576116d07f00000000000000000000000000000000000000000000000000000000000000008285611bde565b9150611705565b60006116e288610cfd565b90506116f18882843088611c6c565b91506117018182846000886115eb565b9250505b506119a0565b6001546001600160a01b038781169116141561177457600154611758906001600160a01b03167f00000000000000000000000000000000000000000000000000000000000000008661153c565b61176d84611767878686611bde565b90611b84565b90506119a0565b6001546001600160a01b03868116911614156117d0576001546117c1906001600160a01b03167f00000000000000000000000000000000000000000000000000000000000000008561153c565b61176d83611767888786611bde565b7f00000000000000000000000000000000000000000000000000000000000000006001600160a01b0316866001600160a01b031614156118655761176d7f000000000000000000000000000000000000000000000000000000000000000061185f86611767897f000000000000000000000000000000000000000000000000000000000000000089308a611c6c565b84611bde565b7f00000000000000000000000000000000000000000000000000000000000000006001600160a01b0316856001600160a01b031614156118f45761176d7f000000000000000000000000000000000000000000000000000000000000000061185f856117678a7f00000000000000000000000000000000000000000000000000000000000000008a308a611c6c565b60006118ff87610cfd565b9050600061190c87610cfd565b9050866001600160a01b0316826001600160a01b0316141561194857611941828861193a8b868b308b611c6c565b88886115eb565b925061199d565b876001600160a01b0316816001600160a01b0316141561197b576119418882886119758b868b308c611c6c565b886115eb565b61199a828261198d8b868b308b611c6c565b6119758b868b308c611c6c565b92505b50505b95945050505050565b815460009082106119eb5760405162461bcd60e51b81526004018080602001828103825260228152602001806125a26022913960400191505060405180910390fd5b8260000182815481106119fa57fe5b9060005260206000200154905092915050565b60008181526001830160205260408120548015611ac95783546000198083019190810190600090879083908110611a4057fe5b9060005260206000200154905080876000018481548110611a5d57fe5b600091825260208083209091019290925582815260018981019092526040902090840190558654879080611a8d57fe5b60019003818190600052602060002001600090559055866001016000878152602001908152602001600020600090556001945050505050610fb8565b6000915050610fb8565b6060611b28826040518060400160405280602081526020017f5361666545524332303a206c6f772d6c6576656c2063616c6c206661696c6564815250856001600160a01b03166121389092919063ffffffff16565b80519091501561060257808060200190516020811015611b4757600080fd5b50516106025760405162461bcd60e51b815260040180806020018281038252602a8152602001806126a6602a913960400191505060405180910390fd5b600082820183811015610fb5576040805162461bcd60e51b815260206004820152601b60248201527f536166654d6174683a206164646974696f6e206f766572666c6f770000000000604482015290519081900360640190fd5b600254600090839015611c3657611c0c612710611c066002548461215190919063ffffffff16565b906121aa565b600354909150611c29906001600160a01b0387811691168361153c565b611c33848261158e565b90505b6001546119a09086906001600160a01b0316837f0000000000000000000000000000000000000000000000000000000000000000875b6000807f00000000000000000000000000000000000000000000000000000000000000006001600160a01b031663e6a4390588886040518363ffffffff1660e01b815260040180836001600160a01b03168152602001826001600160a01b031681526020019250505060206040518083038186803b158015611ced57600080fd5b505afa158015611d01573d6000803e3d6000fd5b505050506040513d6020811015611d1757600080fd5b505190506001600160a01b038116611d76576040805162461bcd60e51b815260206004820152601b60248201527f4d6f72614d616b657256323a2043414e4e4f545f434f4e564552540000000000604482015290519081900360640190fd5b600080826001600160a01b0316630902f1ac6040518163ffffffff1660e01b815260040160606040518083038186803b158015611db257600080fd5b505afa158015611dc6573d6000803e3d6000fd5b505050506040513d6060811015611ddc57600080fd5b50805160209182015160408051630dfe168160e01b815290516dffffffffffffffffffffffffffff938416965092909116935060009283926001600160a01b03881692630dfe1681926004808301939192829003018186803b158015611e4157600080fd5b505afa158015611e55573d6000803e3d6000fd5b505050506040513d6020811015611e6b57600080fd5b50516001600160a01b038c8116911614611e86578284611e89565b83835b9092509050611ea26001600160a01b038c16868b61153c565b6000611ef5838d6001600160a01b03166370a08231896040518263ffffffff1660e01b815260040180826001600160a01b0316815260200191505060206040518083038186803b1580156113c757600080fd5b9050611f02818484612211565b96506000611f126127108a61158e565b9050611f306305f5e100611c0683611f2a8682612151565b90612151565b611f3b898587612211565b1015611f8e576040805162461bcd60e51b815260206004820152601c60248201527f4d6f72614d616b657256323a20534c4950504147455f43415547485400000000604482015290519081900360640190fd5b50600080876001600160a01b0316630dfe16816040518163ffffffff1660e01b815260040160206040518083038186803b158015611fcb57600080fd5b505afa158015611fdf573d6000803e3d6000fd5b505050506040513d6020811015611ff557600080fd5b50516001600160a01b038f811691161461201157886000612015565b6000895b90925090506001600160a01b03881663022c0d9f83838e60006040519080825280601f01601f191660200182016040528015612058576020820181803683370190505b506040518563ffffffff1660e01b815260040180858152602001848152602001836001600160a01b0316815260200180602001828103825283818151815260200191508051906020019080838360005b838110156120c05781810151838201526020016120a8565b50505050905090810190601f1680156120ed5780820380516001836020036101000a031916815260200191505b5095505050505050600060405180830381600087803b15801561210f57600080fd5b505af1158015612123573d6000803e3d6000fd5b50505050505050505050505095945050505050565b606061214784846000856122e9565b90505b9392505050565b60008261216057506000610fb8565b8282028284828161216d57fe5b0414610fb55760405162461bcd60e51b81526004018080602001828103825260218152602001806126396021913960400191505060405180910390fd5b6000808211612200576040805162461bcd60e51b815260206004820152601a60248201527f536166654d6174683a206469766973696f6e206279207a65726f000000000000604482015290519081900360640190fd5b81838161220957fe5b049392505050565b60008084116122515760405162461bcd60e51b815260040180806020018281038252602c81526020018061267a602c913960400191505060405180910390fd5b6000831180156122615750600082115b61229c5760405162461bcd60e51b81526004018080602001828103825260298152602001806125ea6029913960400191505060405180910390fd5b60006122aa856103e5612445565b905060006122b88285612445565b905060006122d2836122cc886103e8612445565b906124a8565b90508082816122dd57fe5b04979650505050505050565b60608247101561232a5760405162461bcd60e51b81526004018080602001828103825260268152602001806126136026913960400191505060405180910390fd5b612333856124f7565b612384576040805162461bcd60e51b815260206004820152601d60248201527f416464726573733a2063616c6c20746f206e6f6e2d636f6e7472616374000000604482015290519081900360640190fd5b60006060866001600160a01b031685876040518082805190602001908083835b602083106123c35780518252601f1990920191602091820191016123a4565b6001836020036101000a03801982511681845116808217855250505050505090500191505060006040518083038185875af1925050503d8060008114612425576040519150601f19603f3d011682016040523d82523d6000602084013e61242a565b606091505b509150915061243a8282866124fd565b979650505050505050565b60008115806124605750508082028282828161245d57fe5b04145b610fb8576040805162461bcd60e51b815260206004820152601460248201527364732d6d6174682d6d756c2d6f766572666c6f7760601b604482015290519081900360640190fd5b80820182811015610fb8576040805162461bcd60e51b815260206004820152601460248201527364732d6d6174682d6164642d6f766572666c6f7760601b604482015290519081900360640190fd5b3b151590565b6060831561250c57508161214a565b82511561251c5782518084602001fd5b8160405162461bcd60e51b81526004018080602001828103825283818151815260200191508051906020019080838360005b8381101561256657818101518382015260200161254e565b50505050905090810190601f1680156125935780820380516001836020036101000a031916815260200191505b509250505060405180910390fdfe456e756d657261626c655365743a20696e646578206f7574206f6620626f756e64734f776e61626c653a206e6577206f776e657220697320746865207a65726f20616464726573734d6f72617377617056324c6962726172793a20494e53554646494349454e545f4c4951554944495459416464726573733a20696e73756666696369656e742062616c616e636520666f722063616c6c536166654d6174683a206d756c7469706c69636174696f6e206f766572666c6f774f776e61626c653a2063616c6c6572206973206e6f7420746865206f776e65724d6f72617377617056324c6962726172793a20494e53554646494349454e545f494e5055545f414d4f554e545361666545524332303a204552433230206f7065726174696f6e20646964206e6f742073756363656564a264697066735822122026af0b0fa5ded498578c3fcf861316b1e5c2180277f975a8d4db8d48809274f664736f6c634300060c0033",
  "linkReferences": {},
  "deployedLinkReferences": {}
}